{
	"contracts/AccessControl.sol": {
		"AccessControl": {
			"abi": [
				{
					"inputs": [],
					"stateMutability": "nonpayable",
					"type": "constructor"
				},
				{
					"anonymous": false,
					"inputs": [
						{
							"indexed": true,
							"internalType": "address",
							"name": "_admin",
							"type": "address"
						},
						{
							"indexed": false,
							"internalType": "bool",
							"name": "_isAdmin",
							"type": "bool"
						}
					],
					"name": "AdminUpdated",
					"type": "event"
				},
				{
					"anonymous": false,
					"inputs": [
						{
							"indexed": true,
							"internalType": "uint256",
							"name": "_candidateId",
							"type": "uint256"
						},
						{
							"indexed": false,
							"internalType": "string",
							"name": "_name",
							"type": "string"
						}
					],
					"name": "CandidateAdded",
					"type": "event"
				},
				{
					"anonymous": false,
					"inputs": [
						{
							"indexed": true,
							"internalType": "uint256",
							"name": "_candidateId",
							"type": "uint256"
						},
						{
							"indexed": true,
							"internalType": "address",
							"name": "_voter",
							"type": "address"
						}
					],
					"name": "VoteCast",
					"type": "event"
				},
				{
					"anonymous": false,
					"inputs": [
						{
							"indexed": true,
							"internalType": "address",
							"name": "_voter",
							"type": "address"
						}
					],
					"name": "VoterRegistered",
					"type": "event"
				},
				{
					"inputs": [
						{
							"internalType": "string",
							"name": "_name",
							"type": "string"
						}
					],
					"name": "addCandidate",
					"outputs": [
						{
							"internalType": "uint256",
							"name": "",
							"type": "uint256"
						}
					],
					"stateMutability": "nonpayable",
					"type": "function"
				},
				{
					"inputs": [],
					"name": "admin",
					"outputs": [
						{
							"internalType": "address",
							"name": "",
							"type": "address"
						}
					],
					"stateMutability": "view",
					"type": "function"
				},
				{
					"inputs": [],
					"name": "candidateCount",
					"outputs": [
						{
							"internalType": "uint256",
							"name": "",
							"type": "uint256"
						}
					],
					"stateMutability": "view",
					"type": "function"
				},
				{
					"inputs": [
						{
							"internalType": "uint256",
							"name": "",
							"type": "uint256"
						}
					],
					"name": "candidates",
					"outputs": [
						{
							"internalType": "string",
							"name": "",
							"type": "string"
						}
					],
					"stateMutability": "view",
					"type": "function"
				},
				{
					"inputs": [
						{
							"internalType": "uint256",
							"name": "_candidateId",
							"type": "uint256"
						}
					],
					"name": "castVote",
					"outputs": [],
					"stateMutability": "nonpayable",
					"type": "function"
				},
				{
					"inputs": [],
					"name": "getCandidateCount",
					"outputs": [
						{
							"internalType": "uint256",
							"name": "",
							"type": "uint256"
						}
					],
					"stateMutability": "view",
					"type": "function"
				},
				{
					"inputs": [
						{
							"internalType": "uint256",
							"name": "_candidateId",
							"type": "uint256"
						}
					],
					"name": "getVoteCountForCandidate",
					"outputs": [
						{
							"internalType": "uint256",
							"name": "",
							"type": "uint256"
						}
					],
					"stateMutability": "view",
					"type": "function"
				},
				{
					"inputs": [
						{
							"internalType": "address",
							"name": "_user",
							"type": "address"
						}
					],
					"name": "grantAdmin",
					"outputs": [],
					"stateMutability": "nonpayable",
					"type": "function"
				},
				{
					"inputs": [
						{
							"internalType": "address",
							"name": "",
							"type": "address"
						}
					],
					"name": "isAdmin",
					"outputs": [
						{
							"internalType": "bool",
							"name": "",
							"type": "bool"
						}
					],
					"stateMutability": "view",
					"type": "function"
				},
				{
					"inputs": [
						{
							"internalType": "address",
							"name": "_voter",
							"type": "address"
						}
					],
					"name": "registerVoter",
					"outputs": [],
					"stateMutability": "nonpayable",
					"type": "function"
				},
				{
					"inputs": [
						{
							"internalType": "address",
							"name": "_user",
							"type": "address"
						}
					],
					"name": "revokeAdmin",
					"outputs": [],
					"stateMutability": "nonpayable",
					"type": "function"
				},
				{
					"inputs": [
						{
							"internalType": "uint256",
							"name": "",
							"type": "uint256"
						}
					],
					"name": "voteCounts",
					"outputs": [
						{
							"internalType": "uint256",
							"name": "",
							"type": "uint256"
						}
					],
					"stateMutability": "view",
					"type": "function"
				},
				{
					"inputs": [
						{
							"internalType": "address",
							"name": "",
							"type": "address"
						}
					],
					"name": "voters",
					"outputs": [
						{
							"internalType": "bool",
							"name": "",
							"type": "bool"
						}
					],
					"stateMutability": "view",
					"type": "function"
				}
			],
			"devdoc": {
				"kind": "dev",
				"methods": {},
				"version": 1
			},
			"evm": {
				"assembly": "    /* \"contracts/AccessControl.sol\":57:3410  contract AccessControl {... */\n  mstore(0x40, 0x80)\n    /* \"contracts/AccessControl.sol\":1353:1483  constructor() {... */\n  callvalue\n  dup1\n  iszero\n  tag_1\n  jumpi\n  0x00\n  dup1\n  revert\ntag_1:\n  pop\n    /* \"contracts/AccessControl.sol\":1385:1395  msg.sender */\n  caller\n    /* \"contracts/AccessControl.sol\":1377:1382  admin */\n  0x00\n  dup1\n    /* \"contracts/AccessControl.sol\":1377:1395  admin = msg.sender */\n  0x0100\n  exp\n  dup2\n  sload\n  dup2\n  0xffffffffffffffffffffffffffffffffffffffff\n  mul\n  not\n  and\n  swap1\n  dup4\n  0xffffffffffffffffffffffffffffffffffffffff\n  and\n  mul\n  or\n  swap1\n  sstore\n  pop\n    /* \"contracts/AccessControl.sol\":1427:1431  true */\n  0x01\n    /* \"contracts/AccessControl.sol\":1405:1412  isAdmin */\n  dup1\n    /* \"contracts/AccessControl.sol\":1405:1424  isAdmin[msg.sender] */\n  0x00\n    /* \"contracts/AccessControl.sol\":1413:1423  msg.sender */\n  caller\n    /* \"contracts/AccessControl.sol\":1405:1424  isAdmin[msg.sender] */\n  0xffffffffffffffffffffffffffffffffffffffff\n  and\n  0xffffffffffffffffffffffffffffffffffffffff\n  and\n  dup2\n  mstore\n  0x20\n  add\n  swap1\n  dup2\n  mstore\n  0x20\n  add\n  0x00\n  keccak256\n  0x00\n    /* \"contracts/AccessControl.sol\":1405:1431  isAdmin[msg.sender] = true */\n  0x0100\n  exp\n  dup2\n  sload\n  dup2\n  0xff\n  mul\n  not\n  and\n  swap1\n  dup4\n  iszero\n  iszero\n  mul\n  or\n  swap1\n  sstore\n  pop\n    /* \"contracts/AccessControl.sol\":1459:1469  msg.sender */\n  caller\n    /* \"contracts/AccessControl.sol\":1446:1476  AdminUpdated(msg.sender, true) */\n  0xffffffffffffffffffffffffffffffffffffffff\n  and\n  0x235bc17e7930760029e9f4d860a2a8089976de5b381cf8380fc11c1d88a11133\n    /* \"contracts/AccessControl.sol\":1471:1475  true */\n  0x01\n    /* \"contracts/AccessControl.sol\":1446:1476  AdminUpdated(msg.sender, true) */\n  mload(0x40)\n  tag_4\n  swap2\n  swap1\n  tag_5\n  jump\t// in\ntag_4:\n  mload(0x40)\n  dup1\n  swap2\n  sub\n  swap1\n  log2\n    /* \"contracts/AccessControl.sol\":57:3410  contract AccessControl {... */\n  jump(tag_6)\n    /* \"#utility.yul\":7:97   */\ntag_7:\n    /* \"#utility.yul\":41:48   */\n  0x00\n    /* \"#utility.yul\":84:89   */\n  dup2\n    /* \"#utility.yul\":77:90   */\n  iszero\n    /* \"#utility.yul\":70:91   */\n  iszero\n    /* \"#utility.yul\":59:91   */\n  swap1\n  pop\n    /* \"#utility.yul\":7:97   */\n  swap2\n  swap1\n  pop\n  jump\t// out\n    /* \"#utility.yul\":103:212   */\ntag_8:\n    /* \"#utility.yul\":184:205   */\n  tag_12\n    /* \"#utility.yul\":199:204   */\n  dup2\n    /* \"#utility.yul\":184:205   */\n  tag_7\n  jump\t// in\ntag_12:\n    /* \"#utility.yul\":179:182   */\n  dup3\n    /* \"#utility.yul\":172:206   */\n  mstore\n    /* \"#utility.yul\":103:212   */\n  pop\n  pop\n  jump\t// out\n    /* \"#utility.yul\":218:428   */\ntag_5:\n    /* \"#utility.yul\":305:309   */\n  0x00\n    /* \"#utility.yul\":343:345   */\n  0x20\n    /* \"#utility.yul\":332:341   */\n  dup3\n    /* \"#utility.yul\":328:346   */\n  add\n    /* \"#utility.yul\":320:346   */\n  swap1\n  pop\n    /* \"#utility.yul\":356:421   */\n  tag_14\n    /* \"#utility.yul\":418:419   */\n  0x00\n    /* \"#utility.yul\":407:416   */\n  dup4\n    /* \"#utility.yul\":403:420   */\n  add\n    /* \"#utility.yul\":394:400   */\n  dup5\n    /* \"#utility.yul\":356:421   */\n  tag_8\n  jump\t// in\ntag_14:\n    /* \"#utility.yul\":218:428   */\n  swap3\n  swap2\n  pop\n  pop\n  jump\t// out\n    /* \"contracts/AccessControl.sol\":57:3410  contract AccessControl {... */\ntag_6:\n  dataSize(sub_0)\n  dup1\n  dataOffset(sub_0)\n  0x00\n  codecopy\n  0x00\n  return\nstop\n\nsub_0: assembly {\n        /* \"contracts/AccessControl.sol\":57:3410  contract AccessControl {... */\n      mstore(0x40, 0x80)\n      callvalue\n      dup1\n      iszero\n      tag_1\n      jumpi\n      0x00\n      dup1\n      revert\n    tag_1:\n      pop\n      jumpi(tag_2, lt(calldatasize, 0x04))\n      shr(0xe0, calldataload(0x00))\n      dup1\n      0x38db6dd3\n      gt\n      tag_16\n      jumpi\n      dup1\n      0x462e91ec\n      gt\n      tag_17\n      jumpi\n      dup1\n      0x462e91ec\n      eq\n      tag_12\n      jumpi\n      dup1\n      0xa3ec138d\n      eq\n      tag_13\n      jumpi\n      dup1\n      0xa9a981a3\n      eq\n      tag_14\n      jumpi\n      dup1\n      0xf851a440\n      eq\n      tag_15\n      jumpi\n      jump(tag_2)\n    tag_17:\n      dup1\n      0x38db6dd3\n      eq\n      tag_9\n      jumpi\n      dup1\n      0x3c3a220d\n      eq\n      tag_10\n      jumpi\n      dup1\n      0x3eb76b9c\n      eq\n      tag_11\n      jumpi\n      jump(tag_2)\n    tag_16:\n      dup1\n      0x0ba8afa3\n      eq\n      tag_3\n      jumpi\n      dup1\n      0x24d7806c\n      eq\n      tag_4\n      jumpi\n      dup1\n      0x2d345670\n      eq\n      tag_5\n      jumpi\n      dup1\n      0x30a56347\n      eq\n      tag_6\n      jumpi\n      dup1\n      0x3477ee2e\n      eq\n      tag_7\n      jumpi\n      dup1\n      0x35bb3e16\n      eq\n      tag_8\n      jumpi\n    tag_2:\n      0x00\n      dup1\n      revert\n        /* \"contracts/AccessControl.sol\":3033:3254  function getVoteCountForCandidate(uint _candidateId) public view returns (uint) {... */\n    tag_3:\n      tag_18\n      0x04\n      dup1\n      calldatasize\n      sub\n      dup2\n      add\n      swap1\n      tag_19\n      swap2\n      swap1\n      tag_20\n      jump\t// in\n    tag_19:\n      tag_21\n      jump\t// in\n    tag_18:\n      mload(0x40)\n      tag_22\n      swap2\n      swap1\n      tag_23\n      jump\t// in\n    tag_22:\n      mload(0x40)\n      dup1\n      swap2\n      sub\n      swap1\n      return\n        /* \"contracts/AccessControl.sol\":213:252  mapping(address => bool) public isAdmin */\n    tag_4:\n      tag_24\n      0x04\n      dup1\n      calldatasize\n      sub\n      dup2\n      add\n      swap1\n      tag_25\n      swap2\n      swap1\n      tag_26\n      jump\t// in\n    tag_25:\n      tag_27\n      jump\t// in\n    tag_24:\n      mload(0x40)\n      tag_28\n      swap2\n      swap1\n      tag_29\n      jump\t// in\n    tag_28:\n      mload(0x40)\n      dup1\n      swap2\n      sub\n      swap1\n      return\n        /* \"contracts/AccessControl.sol\":1818:2038  function revokeAdmin(address _user) public onlyAdmin {... */\n    tag_5:\n      tag_30\n      0x04\n      dup1\n      calldatasize\n      sub\n      dup2\n      add\n      swap1\n      tag_31\n      swap2\n      swap1\n      tag_26\n      jump\t// in\n    tag_31:\n      tag_32\n      jump\t// in\n    tag_30:\n      stop\n        /* \"contracts/AccessControl.sol\":3314:3408  function getCandidateCount() public view returns (uint) {... */\n    tag_6:\n      tag_33\n      tag_34\n      jump\t// in\n    tag_33:\n      mload(0x40)\n      tag_35\n      swap2\n      swap1\n      tag_23\n      jump\t// in\n    tag_35:\n      mload(0x40)\n      dup1\n      swap2\n      sub\n      swap1\n      return\n        /* \"contracts/AccessControl.sol\":312:353  mapping(uint => string) public candidates */\n    tag_7:\n      tag_36\n      0x04\n      dup1\n      calldatasize\n      sub\n      dup2\n      add\n      swap1\n      tag_37\n      swap2\n      swap1\n      tag_20\n      jump\t// in\n    tag_37:\n      tag_38\n      jump\t// in\n    tag_36:\n      mload(0x40)\n      tag_39\n      swap2\n      swap1\n      tag_40\n      jump\t// in\n    tag_39:\n      mload(0x40)\n      dup1\n      swap2\n      sub\n      swap1\n      return\n        /* \"contracts/AccessControl.sol\":1584:1714  function grantAdmin(address _user) public onlyAdmin {... */\n    tag_8:\n      tag_41\n      0x04\n      dup1\n      calldatasize\n      sub\n      dup2\n      add\n      swap1\n      tag_42\n      swap2\n      swap1\n      tag_26\n      jump\t// in\n    tag_42:\n      tag_43\n      jump\t// in\n    tag_41:\n      stop\n        /* \"contracts/AccessControl.sol\":2456:2588  function registerVoter(address _voter) public onlyAdmin {... */\n    tag_9:\n      tag_44\n      0x04\n      dup1\n      calldatasize\n      sub\n      dup2\n      add\n      swap1\n      tag_45\n      swap2\n      swap1\n      tag_26\n      jump\t// in\n    tag_45:\n      tag_46\n      jump\t// in\n    tag_44:\n      stop\n        /* \"contracts/AccessControl.sol\":528:567  mapping(uint => uint) public voteCounts */\n    tag_10:\n      tag_47\n      0x04\n      dup1\n      calldatasize\n      sub\n      dup2\n      add\n      swap1\n      tag_48\n      swap2\n      swap1\n      tag_20\n      jump\t// in\n    tag_48:\n      tag_49\n      jump\t// in\n    tag_47:\n      mload(0x40)\n      tag_50\n      swap2\n      swap1\n      tag_23\n      jump\t// in\n    tag_50:\n      mload(0x40)\n      dup1\n      swap2\n      sub\n      swap1\n      return\n        /* \"contracts/AccessControl.sol\":2659:2967  function castVote(uint _candidateId) public {... */\n    tag_11:\n      tag_51\n      0x04\n      dup1\n      calldatasize\n      sub\n      dup2\n      add\n      swap1\n      tag_52\n      swap2\n      swap1\n      tag_20\n      jump\t// in\n    tag_52:\n      tag_53\n      jump\t// in\n    tag_51:\n      stop\n        /* \"contracts/AccessControl.sol\":2114:2383  function addCandidate(string memory _name) public onlyAdmin returns (uint) {... */\n    tag_12:\n      tag_54\n      0x04\n      dup1\n      calldatasize\n      sub\n      dup2\n      add\n      swap1\n      tag_55\n      swap2\n      swap1\n      tag_56\n      jump\t// in\n    tag_55:\n      tag_57\n      jump\t// in\n    tag_54:\n      mload(0x40)\n      tag_58\n      swap2\n      swap1\n      tag_23\n      jump\t// in\n    tag_58:\n      mload(0x40)\n      dup1\n      swap2\n      sub\n      swap1\n      return\n        /* \"contracts/AccessControl.sol\":425:463  mapping(address => bool) public voters */\n    tag_13:\n      tag_59\n      0x04\n      dup1\n      calldatasize\n      sub\n      dup2\n      add\n      swap1\n      tag_60\n      swap2\n      swap1\n      tag_26\n      jump\t// in\n    tag_60:\n      tag_61\n      jump\t// in\n    tag_59:\n      mload(0x40)\n      tag_62\n      swap2\n      swap1\n      tag_29\n      jump\t// in\n    tag_62:\n      mload(0x40)\n      dup1\n      swap2\n      sub\n      swap1\n      return\n        /* \"contracts/AccessControl.sol\":638:664  uint public candidateCount */\n    tag_14:\n      tag_63\n      tag_64\n      jump\t// in\n    tag_63:\n      mload(0x40)\n      tag_65\n      swap2\n      swap1\n      tag_23\n      jump\t// in\n    tag_65:\n      mload(0x40)\n      dup1\n      swap2\n      sub\n      swap1\n      return\n        /* \"contracts/AccessControl.sol\":86:106  address public admin */\n    tag_15:\n      tag_66\n      tag_67\n      jump\t// in\n    tag_66:\n      mload(0x40)\n      tag_68\n      swap2\n      swap1\n      tag_69\n      jump\t// in\n    tag_68:\n      mload(0x40)\n      dup1\n      swap2\n      sub\n      swap1\n      return\n        /* \"contracts/AccessControl.sol\":3033:3254  function getVoteCountForCandidate(uint _candidateId) public view returns (uint) {... */\n    tag_21:\n        /* \"contracts/AccessControl.sol\":3107:3111  uint */\n      0x00\n        /* \"contracts/AccessControl.sol\":3146:3147  0 */\n      dup1\n        /* \"contracts/AccessControl.sol\":3131:3143  _candidateId */\n      dup3\n        /* \"contracts/AccessControl.sol\":3131:3147  _candidateId > 0 */\n      gt\n        /* \"contracts/AccessControl.sol\":3131:3181  _candidateId > 0 && _candidateId <= candidateCount */\n      dup1\n      iszero\n      tag_71\n      jumpi\n      pop\n        /* \"contracts/AccessControl.sol\":3167:3181  candidateCount */\n      sload(0x05)\n        /* \"contracts/AccessControl.sol\":3151:3163  _candidateId */\n      dup3\n        /* \"contracts/AccessControl.sol\":3151:3181  _candidateId <= candidateCount */\n      gt\n      iszero\n        /* \"contracts/AccessControl.sol\":3131:3181  _candidateId > 0 && _candidateId <= candidateCount */\n    tag_71:\n        /* \"contracts/AccessControl.sol\":3123:3206  require(_candidateId > 0 && _candidateId <= candidateCount, \"Invalid candidate ID\") */\n      tag_72\n      jumpi\n      mload(0x40)\n      0x08c379a000000000000000000000000000000000000000000000000000000000\n      dup2\n      mstore\n      0x04\n      add\n      tag_73\n      swap1\n      tag_74\n      jump\t// in\n    tag_73:\n      mload(0x40)\n      dup1\n      swap2\n      sub\n      swap1\n      revert\n    tag_72:\n        /* \"contracts/AccessControl.sol\":3223:3233  voteCounts */\n      0x04\n        /* \"contracts/AccessControl.sol\":3223:3247  voteCounts[_candidateId] */\n      0x00\n        /* \"contracts/AccessControl.sol\":3234:3246  _candidateId */\n      dup4\n        /* \"contracts/AccessControl.sol\":3223:3247  voteCounts[_candidateId] */\n      dup2\n      mstore\n      0x20\n      add\n      swap1\n      dup2\n      mstore\n      0x20\n      add\n      0x00\n      keccak256\n      sload\n        /* \"contracts/AccessControl.sol\":3216:3247  return voteCounts[_candidateId] */\n      swap1\n      pop\n        /* \"contracts/AccessControl.sol\":3033:3254  function getVoteCountForCandidate(uint _candidateId) public view returns (uint) {... */\n      swap2\n      swap1\n      pop\n      jump\t// out\n        /* \"contracts/AccessControl.sol\":213:252  mapping(address => bool) public isAdmin */\n    tag_27:\n      mstore(0x20, 0x01)\n      dup1\n      0x00\n      mstore\n      keccak256(0x00, 0x40)\n      0x00\n      swap2\n      pop\n      sload\n      swap1\n      0x0100\n      exp\n      swap1\n      div\n      0xff\n      and\n      dup2\n      jump\t// out\n        /* \"contracts/AccessControl.sol\":1818:2038  function revokeAdmin(address _user) public onlyAdmin {... */\n    tag_32:\n        /* \"contracts/AccessControl.sol\":1228:1235  isAdmin */\n      0x01\n        /* \"contracts/AccessControl.sol\":1228:1247  isAdmin[msg.sender] */\n      0x00\n        /* \"contracts/AccessControl.sol\":1236:1246  msg.sender */\n      caller\n        /* \"contracts/AccessControl.sol\":1228:1247  isAdmin[msg.sender] */\n      0xffffffffffffffffffffffffffffffffffffffff\n      and\n      0xffffffffffffffffffffffffffffffffffffffff\n      and\n      dup2\n      mstore\n      0x20\n      add\n      swap1\n      dup2\n      mstore\n      0x20\n      add\n      0x00\n      keccak256\n      0x00\n      swap1\n      sload\n      swap1\n      0x0100\n      exp\n      swap1\n      div\n      0xff\n      and\n        /* \"contracts/AccessControl.sol\":1220:1285  require(isAdmin[msg.sender], \"Only admin can call this function\") */\n      tag_76\n      jumpi\n      mload(0x40)\n      0x08c379a000000000000000000000000000000000000000000000000000000000\n      dup2\n      mstore\n      0x04\n      add\n      tag_77\n      swap1\n      tag_78\n      jump\t// in\n    tag_77:\n      mload(0x40)\n      dup1\n      swap2\n      sub\n      swap1\n      revert\n    tag_76:\n        /* \"contracts/AccessControl.sol\":1898:1903  admin */\n      0x00\n      dup1\n      sload\n      swap1\n      0x0100\n      exp\n      swap1\n      div\n      0xffffffffffffffffffffffffffffffffffffffff\n      and\n        /* \"contracts/AccessControl.sol\":1889:1903  _user != admin */\n      0xffffffffffffffffffffffffffffffffffffffff\n      and\n        /* \"contracts/AccessControl.sol\":1889:1894  _user */\n      dup2\n        /* \"contracts/AccessControl.sol\":1889:1903  _user != admin */\n      0xffffffffffffffffffffffffffffffffffffffff\n      and\n      sub\n        /* \"contracts/AccessControl.sol\":1881:1958  require(_user != admin, \"Cannot revoke admin privileges from the main admin\") */\n      tag_80\n      jumpi\n      mload(0x40)\n      0x08c379a000000000000000000000000000000000000000000000000000000000\n      dup2\n      mstore\n      0x04\n      add\n      tag_81\n      swap1\n      tag_82\n      jump\t// in\n    tag_81:\n      mload(0x40)\n      dup1\n      swap2\n      sub\n      swap1\n      revert\n    tag_80:\n        /* \"contracts/AccessControl.sol\":1985:1990  false */\n      0x00\n        /* \"contracts/AccessControl.sol\":1968:1975  isAdmin */\n      0x01\n        /* \"contracts/AccessControl.sol\":1968:1982  isAdmin[_user] */\n      0x00\n        /* \"contracts/AccessControl.sol\":1976:1981  _user */\n      dup4\n        /* \"contracts/AccessControl.sol\":1968:1982  isAdmin[_user] */\n      0xffffffffffffffffffffffffffffffffffffffff\n      and\n      0xffffffffffffffffffffffffffffffffffffffff\n      and\n      dup2\n      mstore\n      0x20\n      add\n      swap1\n      dup2\n      mstore\n      0x20\n      add\n      0x00\n      keccak256\n      0x00\n        /* \"contracts/AccessControl.sol\":1968:1990  isAdmin[_user] = false */\n      0x0100\n      exp\n      dup2\n      sload\n      dup2\n      0xff\n      mul\n      not\n      and\n      swap1\n      dup4\n      iszero\n      iszero\n      mul\n      or\n      swap1\n      sstore\n      pop\n        /* \"contracts/AccessControl.sol\":2018:2023  _user */\n      dup1\n        /* \"contracts/AccessControl.sol\":2005:2031  AdminUpdated(_user, false) */\n      0xffffffffffffffffffffffffffffffffffffffff\n      and\n      0x235bc17e7930760029e9f4d860a2a8089976de5b381cf8380fc11c1d88a11133\n        /* \"contracts/AccessControl.sol\":2025:2030  false */\n      0x00\n        /* \"contracts/AccessControl.sol\":2005:2031  AdminUpdated(_user, false) */\n      mload(0x40)\n      tag_83\n      swap2\n      swap1\n      tag_29\n      jump\t// in\n    tag_83:\n      mload(0x40)\n      dup1\n      swap2\n      sub\n      swap1\n      log2\n        /* \"contracts/AccessControl.sol\":1818:2038  function revokeAdmin(address _user) public onlyAdmin {... */\n      pop\n      jump\t// out\n        /* \"contracts/AccessControl.sol\":3314:3408  function getCandidateCount() public view returns (uint) {... */\n    tag_34:\n        /* \"contracts/AccessControl.sol\":3364:3368  uint */\n      0x00\n        /* \"contracts/AccessControl.sol\":3387:3401  candidateCount */\n      sload(0x05)\n        /* \"contracts/AccessControl.sol\":3380:3401  return candidateCount */\n      swap1\n      pop\n        /* \"contracts/AccessControl.sol\":3314:3408  function getCandidateCount() public view returns (uint) {... */\n      swap1\n      jump\t// out\n        /* \"contracts/AccessControl.sol\":312:353  mapping(uint => string) public candidates */\n    tag_38:\n      mstore(0x20, 0x02)\n      dup1\n      0x00\n      mstore\n      keccak256(0x00, 0x40)\n      0x00\n      swap2\n      pop\n      swap1\n      pop\n      dup1\n      sload\n      tag_85\n      swap1\n      tag_86\n      jump\t// in\n    tag_85:\n      dup1\n      0x1f\n      add\n      0x20\n      dup1\n      swap2\n      div\n      mul\n      0x20\n      add\n      mload(0x40)\n      swap1\n      dup2\n      add\n      0x40\n      mstore\n      dup1\n      swap3\n      swap2\n      swap1\n      dup2\n      dup2\n      mstore\n      0x20\n      add\n      dup3\n      dup1\n      sload\n      tag_87\n      swap1\n      tag_86\n      jump\t// in\n    tag_87:\n      dup1\n      iszero\n      tag_88\n      jumpi\n      dup1\n      0x1f\n      lt\n      tag_89\n      jumpi\n      0x0100\n      dup1\n      dup4\n      sload\n      div\n      mul\n      dup4\n      mstore\n      swap2\n      0x20\n      add\n      swap2\n      jump(tag_88)\n    tag_89:\n      dup3\n      add\n      swap2\n      swap1\n      0x00\n      mstore\n      keccak256(0x00, 0x20)\n      swap1\n    tag_90:\n      dup2\n      sload\n      dup2\n      mstore\n      swap1\n      0x01\n      add\n      swap1\n      0x20\n      add\n      dup1\n      dup4\n      gt\n      tag_90\n      jumpi\n      dup3\n      swap1\n      sub\n      0x1f\n      and\n      dup3\n      add\n      swap2\n    tag_88:\n      pop\n      pop\n      pop\n      pop\n      pop\n      dup2\n      jump\t// out\n        /* \"contracts/AccessControl.sol\":1584:1714  function grantAdmin(address _user) public onlyAdmin {... */\n    tag_43:\n        /* \"contracts/AccessControl.sol\":1228:1235  isAdmin */\n      0x01\n        /* \"contracts/AccessControl.sol\":1228:1247  isAdmin[msg.sender] */\n      0x00\n        /* \"contracts/AccessControl.sol\":1236:1246  msg.sender */\n      caller\n        /* \"contracts/AccessControl.sol\":1228:1247  isAdmin[msg.sender] */\n      0xffffffffffffffffffffffffffffffffffffffff\n      and\n      0xffffffffffffffffffffffffffffffffffffffff\n      and\n      dup2\n      mstore\n      0x20\n      add\n      swap1\n      dup2\n      mstore\n      0x20\n      add\n      0x00\n      keccak256\n      0x00\n      swap1\n      sload\n      swap1\n      0x0100\n      exp\n      swap1\n      div\n      0xff\n      and\n        /* \"contracts/AccessControl.sol\":1220:1285  require(isAdmin[msg.sender], \"Only admin can call this function\") */\n      tag_92\n      jumpi\n      mload(0x40)\n      0x08c379a000000000000000000000000000000000000000000000000000000000\n      dup2\n      mstore\n      0x04\n      add\n      tag_93\n      swap1\n      tag_78\n      jump\t// in\n    tag_93:\n      mload(0x40)\n      dup1\n      swap2\n      sub\n      swap1\n      revert\n    tag_92:\n        /* \"contracts/AccessControl.sol\":1663:1667  true */\n      0x01\n        /* \"contracts/AccessControl.sol\":1646:1653  isAdmin */\n      dup1\n        /* \"contracts/AccessControl.sol\":1646:1660  isAdmin[_user] */\n      0x00\n        /* \"contracts/AccessControl.sol\":1654:1659  _user */\n      dup4\n        /* \"contracts/AccessControl.sol\":1646:1660  isAdmin[_user] */\n      0xffffffffffffffffffffffffffffffffffffffff\n      and\n      0xffffffffffffffffffffffffffffffffffffffff\n      and\n      dup2\n      mstore\n      0x20\n      add\n      swap1\n      dup2\n      mstore\n      0x20\n      add\n      0x00\n      keccak256\n      0x00\n        /* \"contracts/AccessControl.sol\":1646:1667  isAdmin[_user] = true */\n      0x0100\n      exp\n      dup2\n      sload\n      dup2\n      0xff\n      mul\n      not\n      and\n      swap1\n      dup4\n      iszero\n      iszero\n      mul\n      or\n      swap1\n      sstore\n      pop\n        /* \"contracts/AccessControl.sol\":1695:1700  _user */\n      dup1\n        /* \"contracts/AccessControl.sol\":1682:1707  AdminUpdated(_user, true) */\n      0xffffffffffffffffffffffffffffffffffffffff\n      and\n      0x235bc17e7930760029e9f4d860a2a8089976de5b381cf8380fc11c1d88a11133\n        /* \"contracts/AccessControl.sol\":1702:1706  true */\n      0x01\n        /* \"contracts/AccessControl.sol\":1682:1707  AdminUpdated(_user, true) */\n      mload(0x40)\n      tag_95\n      swap2\n      swap1\n      tag_29\n      jump\t// in\n    tag_95:\n      mload(0x40)\n      dup1\n      swap2\n      sub\n      swap1\n      log2\n        /* \"contracts/AccessControl.sol\":1584:1714  function grantAdmin(address _user) public onlyAdmin {... */\n      pop\n      jump\t// out\n        /* \"contracts/AccessControl.sol\":2456:2588  function registerVoter(address _voter) public onlyAdmin {... */\n    tag_46:\n        /* \"contracts/AccessControl.sol\":1228:1235  isAdmin */\n      0x01\n        /* \"contracts/AccessControl.sol\":1228:1247  isAdmin[msg.sender] */\n      0x00\n        /* \"contracts/AccessControl.sol\":1236:1246  msg.sender */\n      caller\n        /* \"contracts/AccessControl.sol\":1228:1247  isAdmin[msg.sender] */\n      0xffffffffffffffffffffffffffffffffffffffff\n      and\n      0xffffffffffffffffffffffffffffffffffffffff\n      and\n      dup2\n      mstore\n      0x20\n      add\n      swap1\n      dup2\n      mstore\n      0x20\n      add\n      0x00\n      keccak256\n      0x00\n      swap1\n      sload\n      swap1\n      0x0100\n      exp\n      swap1\n      div\n      0xff\n      and\n        /* \"contracts/AccessControl.sol\":1220:1285  require(isAdmin[msg.sender], \"Only admin can call this function\") */\n      tag_97\n      jumpi\n      mload(0x40)\n      0x08c379a000000000000000000000000000000000000000000000000000000000\n      dup2\n      mstore\n      0x04\n      add\n      tag_98\n      swap1\n      tag_78\n      jump\t// in\n    tag_98:\n      mload(0x40)\n      dup1\n      swap2\n      sub\n      swap1\n      revert\n    tag_97:\n        /* \"contracts/AccessControl.sol\":2539:2543  true */\n      0x01\n        /* \"contracts/AccessControl.sol\":2522:2528  voters */\n      0x03\n        /* \"contracts/AccessControl.sol\":2522:2536  voters[_voter] */\n      0x00\n        /* \"contracts/AccessControl.sol\":2529:2535  _voter */\n      dup4\n        /* \"contracts/AccessControl.sol\":2522:2536  voters[_voter] */\n      0xffffffffffffffffffffffffffffffffffffffff\n      and\n      0xffffffffffffffffffffffffffffffffffffffff\n      and\n      dup2\n      mstore\n      0x20\n      add\n      swap1\n      dup2\n      mstore\n      0x20\n      add\n      0x00\n      keccak256\n      0x00\n        /* \"contracts/AccessControl.sol\":2522:2543  voters[_voter] = true */\n      0x0100\n      exp\n      dup2\n      sload\n      dup2\n      0xff\n      mul\n      not\n      and\n      swap1\n      dup4\n      iszero\n      iszero\n      mul\n      or\n      swap1\n      sstore\n      pop\n        /* \"contracts/AccessControl.sol\":2574:2580  _voter */\n      dup1\n        /* \"contracts/AccessControl.sol\":2558:2581  VoterRegistered(_voter) */\n      0xffffffffffffffffffffffffffffffffffffffff\n      and\n      0xb6be2187d059cc2a55fe29e0e503b566e1e0f8c8780096e185429350acffd3dd\n      mload(0x40)\n      mload(0x40)\n      dup1\n      swap2\n      sub\n      swap1\n      log2\n        /* \"contracts/AccessControl.sol\":2456:2588  function registerVoter(address _voter) public onlyAdmin {... */\n      pop\n      jump\t// out\n        /* \"contracts/AccessControl.sol\":528:567  mapping(uint => uint) public voteCounts */\n    tag_49:\n      mstore(0x20, 0x04)\n      dup1\n      0x00\n      mstore\n      keccak256(0x00, 0x40)\n      0x00\n      swap2\n      pop\n      swap1\n      pop\n      sload\n      dup2\n      jump\t// out\n        /* \"contracts/AccessControl.sol\":2659:2967  function castVote(uint _candidateId) public {... */\n    tag_53:\n        /* \"contracts/AccessControl.sol\":2721:2727  voters */\n      0x03\n        /* \"contracts/AccessControl.sol\":2721:2739  voters[msg.sender] */\n      0x00\n        /* \"contracts/AccessControl.sol\":2728:2738  msg.sender */\n      caller\n        /* \"contracts/AccessControl.sol\":2721:2739  voters[msg.sender] */\n      0xffffffffffffffffffffffffffffffffffffffff\n      and\n      0xffffffffffffffffffffffffffffffffffffffff\n      and\n      dup2\n      mstore\n      0x20\n      add\n      swap1\n      dup2\n      mstore\n      0x20\n      add\n      0x00\n      keccak256\n      0x00\n      swap1\n      sload\n      swap1\n      0x0100\n      exp\n      swap1\n      div\n      0xff\n      and\n        /* \"contracts/AccessControl.sol\":2713:2781  require(voters[msg.sender], \"Only registered voters can cast votes\") */\n      tag_101\n      jumpi\n      mload(0x40)\n      0x08c379a000000000000000000000000000000000000000000000000000000000\n      dup2\n      mstore\n      0x04\n      add\n      tag_102\n      swap1\n      tag_103\n      jump\t// in\n    tag_102:\n      mload(0x40)\n      dup1\n      swap2\n      sub\n      swap1\n      revert\n    tag_101:\n        /* \"contracts/AccessControl.sol\":2814:2815  0 */\n      0x00\n        /* \"contracts/AccessControl.sol\":2799:2811  _candidateId */\n      dup2\n        /* \"contracts/AccessControl.sol\":2799:2815  _candidateId > 0 */\n      gt\n        /* \"contracts/AccessControl.sol\":2799:2849  _candidateId > 0 && _candidateId <= candidateCount */\n      dup1\n      iszero\n      tag_104\n      jumpi\n      pop\n        /* \"contracts/AccessControl.sol\":2835:2849  candidateCount */\n      sload(0x05)\n        /* \"contracts/AccessControl.sol\":2819:2831  _candidateId */\n      dup2\n        /* \"contracts/AccessControl.sol\":2819:2849  _candidateId <= candidateCount */\n      gt\n      iszero\n        /* \"contracts/AccessControl.sol\":2799:2849  _candidateId > 0 && _candidateId <= candidateCount */\n    tag_104:\n        /* \"contracts/AccessControl.sol\":2791:2874  require(_candidateId > 0 && _candidateId <= candidateCount, \"Invalid candidate ID\") */\n      tag_105\n      jumpi\n      mload(0x40)\n      0x08c379a000000000000000000000000000000000000000000000000000000000\n      dup2\n      mstore\n      0x04\n      add\n      tag_106\n      swap1\n      tag_74\n      jump\t// in\n    tag_106:\n      mload(0x40)\n      dup1\n      swap2\n      sub\n      swap1\n      revert\n    tag_105:\n        /* \"contracts/AccessControl.sol\":2885:2895  voteCounts */\n      0x04\n        /* \"contracts/AccessControl.sol\":2885:2909  voteCounts[_candidateId] */\n      0x00\n        /* \"contracts/AccessControl.sol\":2896:2908  _candidateId */\n      dup3\n        /* \"contracts/AccessControl.sol\":2885:2909  voteCounts[_candidateId] */\n      dup2\n      mstore\n      0x20\n      add\n      swap1\n      dup2\n      mstore\n      0x20\n      add\n      0x00\n      keccak256\n      0x00\n        /* \"contracts/AccessControl.sol\":2885:2911  voteCounts[_candidateId]++ */\n      dup2\n      sload\n      dup1\n      swap3\n      swap2\n      swap1\n      tag_107\n      swap1\n      tag_108\n      jump\t// in\n    tag_107:\n      swap2\n      swap1\n      pop\n      sstore\n      pop\n        /* \"contracts/AccessControl.sol\":2949:2959  msg.sender */\n      caller\n        /* \"contracts/AccessControl.sol\":2926:2960  VoteCast(_candidateId, msg.sender) */\n      0xffffffffffffffffffffffffffffffffffffffff\n      and\n        /* \"contracts/AccessControl.sol\":2935:2947  _candidateId */\n      dup2\n        /* \"contracts/AccessControl.sol\":2926:2960  VoteCast(_candidateId, msg.sender) */\n      0xf1003b73c437642c0460aee9cd9628b0b8c447b66e6c7c905531b9c644214a11\n      mload(0x40)\n      mload(0x40)\n      dup1\n      swap2\n      sub\n      swap1\n      log3\n        /* \"contracts/AccessControl.sol\":2659:2967  function castVote(uint _candidateId) public {... */\n      pop\n      jump\t// out\n        /* \"contracts/AccessControl.sol\":2114:2383  function addCandidate(string memory _name) public onlyAdmin returns (uint) {... */\n    tag_57:\n        /* \"contracts/AccessControl.sol\":2183:2187  uint */\n      0x00\n        /* \"contracts/AccessControl.sol\":1228:1235  isAdmin */\n      0x01\n        /* \"contracts/AccessControl.sol\":1228:1247  isAdmin[msg.sender] */\n      0x00\n        /* \"contracts/AccessControl.sol\":1236:1246  msg.sender */\n      caller\n        /* \"contracts/AccessControl.sol\":1228:1247  isAdmin[msg.sender] */\n      0xffffffffffffffffffffffffffffffffffffffff\n      and\n      0xffffffffffffffffffffffffffffffffffffffff\n      and\n      dup2\n      mstore\n      0x20\n      add\n      swap1\n      dup2\n      mstore\n      0x20\n      add\n      0x00\n      keccak256\n      0x00\n      swap1\n      sload\n      swap1\n      0x0100\n      exp\n      swap1\n      div\n      0xff\n      and\n        /* \"contracts/AccessControl.sol\":1220:1285  require(isAdmin[msg.sender], \"Only admin can call this function\") */\n      tag_110\n      jumpi\n      mload(0x40)\n      0x08c379a000000000000000000000000000000000000000000000000000000000\n      dup2\n      mstore\n      0x04\n      add\n      tag_111\n      swap1\n      tag_78\n      jump\t// in\n    tag_111:\n      mload(0x40)\n      dup1\n      swap2\n      sub\n      swap1\n      revert\n    tag_110:\n        /* \"contracts/AccessControl.sol\":2199:2215  uint candidateId */\n      0x00\n        /* \"contracts/AccessControl.sol\":2218:2232  candidateCount */\n      sload(0x05)\n        /* \"contracts/AccessControl.sol\":2199:2232  uint candidateId = candidateCount */\n      swap1\n      pop\n        /* \"contracts/AccessControl.sol\":2268:2273  _name */\n      dup3\n        /* \"contracts/AccessControl.sol\":2242:2252  candidates */\n      0x02\n        /* \"contracts/AccessControl.sol\":2242:2265  candidates[candidateId] */\n      0x00\n        /* \"contracts/AccessControl.sol\":2253:2264  candidateId */\n      dup4\n        /* \"contracts/AccessControl.sol\":2242:2265  candidates[candidateId] */\n      dup2\n      mstore\n      0x20\n      add\n      swap1\n      dup2\n      mstore\n      0x20\n      add\n      0x00\n      keccak256\n        /* \"contracts/AccessControl.sol\":2242:2273  candidates[candidateId] = _name */\n      swap1\n      dup2\n      tag_113\n      swap2\n      swap1\n      tag_114\n      jump\t// in\n    tag_113:\n      pop\n        /* \"contracts/AccessControl.sol\":2283:2297  candidateCount */\n      0x05\n      0x00\n        /* \"contracts/AccessControl.sol\":2283:2299  candidateCount++ */\n      dup2\n      sload\n      dup1\n      swap3\n      swap2\n      swap1\n      tag_115\n      swap1\n      tag_108\n      jump\t// in\n    tag_115:\n      swap2\n      swap1\n      pop\n      sstore\n      pop\n        /* \"contracts/AccessControl.sol\":2329:2340  candidateId */\n      dup1\n        /* \"contracts/AccessControl.sol\":2314:2348  CandidateAdded(candidateId, _name) */\n      0xe83b2a43e7e82d975c8a0a6d2f045153c869e111136a34d1889ab7b598e396a3\n        /* \"contracts/AccessControl.sol\":2342:2347  _name */\n      dup5\n        /* \"contracts/AccessControl.sol\":2314:2348  CandidateAdded(candidateId, _name) */\n      mload(0x40)\n      tag_116\n      swap2\n      swap1\n      tag_40\n      jump\t// in\n    tag_116:\n      mload(0x40)\n      dup1\n      swap2\n      sub\n      swap1\n      log2\n        /* \"contracts/AccessControl.sol\":2365:2376  candidateId */\n      dup1\n        /* \"contracts/AccessControl.sol\":2358:2376  return candidateId */\n      swap2\n      pop\n      pop\n        /* \"contracts/AccessControl.sol\":2114:2383  function addCandidate(string memory _name) public onlyAdmin returns (uint) {... */\n      swap2\n      swap1\n      pop\n      jump\t// out\n        /* \"contracts/AccessControl.sol\":425:463  mapping(address => bool) public voters */\n    tag_61:\n      mstore(0x20, 0x03)\n      dup1\n      0x00\n      mstore\n      keccak256(0x00, 0x40)\n      0x00\n      swap2\n      pop\n      sload\n      swap1\n      0x0100\n      exp\n      swap1\n      div\n      0xff\n      and\n      dup2\n      jump\t// out\n        /* \"contracts/AccessControl.sol\":638:664  uint public candidateCount */\n    tag_64:\n      sload(0x05)\n      dup2\n      jump\t// out\n        /* \"contracts/AccessControl.sol\":86:106  address public admin */\n    tag_67:\n      0x00\n      dup1\n      sload\n      swap1\n      0x0100\n      exp\n      swap1\n      div\n      0xffffffffffffffffffffffffffffffffffffffff\n      and\n      dup2\n      jump\t// out\n        /* \"#utility.yul\":7:82   */\n    tag_117:\n        /* \"#utility.yul\":40:46   */\n      0x00\n        /* \"#utility.yul\":73:75   */\n      0x40\n        /* \"#utility.yul\":67:76   */\n      mload\n        /* \"#utility.yul\":57:76   */\n      swap1\n      pop\n        /* \"#utility.yul\":7:82   */\n      swap1\n      jump\t// out\n        /* \"#utility.yul\":88:205   */\n    tag_118:\n        /* \"#utility.yul\":197:198   */\n      0x00\n        /* \"#utility.yul\":194:195   */\n      dup1\n        /* \"#utility.yul\":187:199   */\n      revert\n        /* \"#utility.yul\":211:328   */\n    tag_119:\n        /* \"#utility.yul\":320:321   */\n      0x00\n        /* \"#utility.yul\":317:318   */\n      dup1\n        /* \"#utility.yul\":310:322   */\n      revert\n        /* \"#utility.yul\":334:411   */\n    tag_120:\n        /* \"#utility.yul\":371:378   */\n      0x00\n        /* \"#utility.yul\":400:405   */\n      dup2\n        /* \"#utility.yul\":389:405   */\n      swap1\n      pop\n        /* \"#utility.yul\":334:411   */\n      swap2\n      swap1\n      pop\n      jump\t// out\n        /* \"#utility.yul\":417:539   */\n    tag_121:\n        /* \"#utility.yul\":490:514   */\n      tag_176\n        /* \"#utility.yul\":508:513   */\n      dup2\n        /* \"#utility.yul\":490:514   */\n      tag_120\n      jump\t// in\n    tag_176:\n        /* \"#utility.yul\":483:488   */\n      dup2\n        /* \"#utility.yul\":480:515   */\n      eq\n        /* \"#utility.yul\":470:533   */\n      tag_177\n      jumpi\n        /* \"#utility.yul\":529:530   */\n      0x00\n        /* \"#utility.yul\":526:527   */\n      dup1\n        /* \"#utility.yul\":519:531   */\n      revert\n        /* \"#utility.yul\":470:533   */\n    tag_177:\n        /* \"#utility.yul\":417:539   */\n      pop\n      jump\t// out\n        /* \"#utility.yul\":545:684   */\n    tag_122:\n        /* \"#utility.yul\":591:596   */\n      0x00\n        /* \"#utility.yul\":629:635   */\n      dup2\n        /* \"#utility.yul\":616:636   */\n      calldataload\n        /* \"#utility.yul\":607:636   */\n      swap1\n      pop\n        /* \"#utility.yul\":645:678   */\n      tag_179\n        /* \"#utility.yul\":672:677   */\n      dup2\n        /* \"#utility.yul\":645:678   */\n      tag_121\n      jump\t// in\n    tag_179:\n        /* \"#utility.yul\":545:684   */\n      swap3\n      swap2\n      pop\n      pop\n      jump\t// out\n        /* \"#utility.yul\":690:1019   */\n    tag_20:\n        /* \"#utility.yul\":749:755   */\n      0x00\n        /* \"#utility.yul\":798:800   */\n      0x20\n        /* \"#utility.yul\":786:795   */\n      dup3\n        /* \"#utility.yul\":777:784   */\n      dup5\n        /* \"#utility.yul\":773:796   */\n      sub\n        /* \"#utility.yul\":769:801   */\n      slt\n        /* \"#utility.yul\":766:885   */\n      iszero\n      tag_181\n      jumpi\n        /* \"#utility.yul\":804:883   */\n      tag_182\n      tag_118\n      jump\t// in\n    tag_182:\n        /* \"#utility.yul\":766:885   */\n    tag_181:\n        /* \"#utility.yul\":924:925   */\n      0x00\n        /* \"#utility.yul\":949:1002   */\n      tag_183\n        /* \"#utility.yul\":994:1001   */\n      dup5\n        /* \"#utility.yul\":985:991   */\n      dup3\n        /* \"#utility.yul\":974:983   */\n      dup6\n        /* \"#utility.yul\":970:992   */\n      add\n        /* \"#utility.yul\":949:1002   */\n      tag_122\n      jump\t// in\n    tag_183:\n        /* \"#utility.yul\":939:1002   */\n      swap2\n      pop\n        /* \"#utility.yul\":895:1012   */\n      pop\n        /* \"#utility.yul\":690:1019   */\n      swap3\n      swap2\n      pop\n      pop\n      jump\t// out\n        /* \"#utility.yul\":1025:1143   */\n    tag_123:\n        /* \"#utility.yul\":1112:1136   */\n      tag_185\n        /* \"#utility.yul\":1130:1135   */\n      dup2\n        /* \"#utility.yul\":1112:1136   */\n      tag_120\n      jump\t// in\n    tag_185:\n        /* \"#utility.yul\":1107:1110   */\n      dup3\n        /* \"#utility.yul\":1100:1137   */\n      mstore\n        /* \"#utility.yul\":1025:1143   */\n      pop\n      pop\n      jump\t// out\n        /* \"#utility.yul\":1149:1371   */\n    tag_23:\n        /* \"#utility.yul\":1242:1246   */\n      0x00\n        /* \"#utility.yul\":1280:1282   */\n      0x20\n        /* \"#utility.yul\":1269:1278   */\n      dup3\n        /* \"#utility.yul\":1265:1283   */\n      add\n        /* \"#utility.yul\":1257:1283   */\n      swap1\n      pop\n        /* \"#utility.yul\":1293:1364   */\n      tag_187\n        /* \"#utility.yul\":1361:1362   */\n      0x00\n        /* \"#utility.yul\":1350:1359   */\n      dup4\n        /* \"#utility.yul\":1346:1363   */\n      add\n        /* \"#utility.yul\":1337:1343   */\n      dup5\n        /* \"#utility.yul\":1293:1364   */\n      tag_123\n      jump\t// in\n    tag_187:\n        /* \"#utility.yul\":1149:1371   */\n      swap3\n      swap2\n      pop\n      pop\n      jump\t// out\n        /* \"#utility.yul\":1377:1503   */\n    tag_124:\n        /* \"#utility.yul\":1414:1421   */\n      0x00\n        /* \"#utility.yul\":1454:1496   */\n      0xffffffffffffffffffffffffffffffffffffffff\n        /* \"#utility.yul\":1447:1452   */\n      dup3\n        /* \"#utility.yul\":1443:1497   */\n      and\n        /* \"#utility.yul\":1432:1497   */\n      swap1\n      pop\n        /* \"#utility.yul\":1377:1503   */\n      swap2\n      swap1\n      pop\n      jump\t// out\n        /* \"#utility.yul\":1509:1605   */\n    tag_125:\n        /* \"#utility.yul\":1546:1553   */\n      0x00\n        /* \"#utility.yul\":1575:1599   */\n      tag_190\n        /* \"#utility.yul\":1593:1598   */\n      dup3\n        /* \"#utility.yul\":1575:1599   */\n      tag_124\n      jump\t// in\n    tag_190:\n        /* \"#utility.yul\":1564:1599   */\n      swap1\n      pop\n        /* \"#utility.yul\":1509:1605   */\n      swap2\n      swap1\n      pop\n      jump\t// out\n        /* \"#utility.yul\":1611:1733   */\n    tag_126:\n        /* \"#utility.yul\":1684:1708   */\n      tag_192\n        /* \"#utility.yul\":1702:1707   */\n      dup2\n        /* \"#utility.yul\":1684:1708   */\n      tag_125\n      jump\t// in\n    tag_192:\n        /* \"#utility.yul\":1677:1682   */\n      dup2\n        /* \"#utility.yul\":1674:1709   */\n      eq\n        /* \"#utility.yul\":1664:1727   */\n      tag_193\n      jumpi\n        /* \"#utility.yul\":1723:1724   */\n      0x00\n        /* \"#utility.yul\":1720:1721   */\n      dup1\n        /* \"#utility.yul\":1713:1725   */\n      revert\n        /* \"#utility.yul\":1664:1727   */\n    tag_193:\n        /* \"#utility.yul\":1611:1733   */\n      pop\n      jump\t// out\n        /* \"#utility.yul\":1739:1878   */\n    tag_127:\n        /* \"#utility.yul\":1785:1790   */\n      0x00\n        /* \"#utility.yul\":1823:1829   */\n      dup2\n        /* \"#utility.yul\":1810:1830   */\n      calldataload\n        /* \"#utility.yul\":1801:1830   */\n      swap1\n      pop\n        /* \"#utility.yul\":1839:1872   */\n      tag_195\n        /* \"#utility.yul\":1866:1871   */\n      dup2\n        /* \"#utility.yul\":1839:1872   */\n      tag_126\n      jump\t// in\n    tag_195:\n        /* \"#utility.yul\":1739:1878   */\n      swap3\n      swap2\n      pop\n      pop\n      jump\t// out\n        /* \"#utility.yul\":1884:2213   */\n    tag_26:\n        /* \"#utility.yul\":1943:1949   */\n      0x00\n        /* \"#utility.yul\":1992:1994   */\n      0x20\n        /* \"#utility.yul\":1980:1989   */\n      dup3\n        /* \"#utility.yul\":1971:1978   */\n      dup5\n        /* \"#utility.yul\":1967:1990   */\n      sub\n        /* \"#utility.yul\":1963:1995   */\n      slt\n        /* \"#utility.yul\":1960:2079   */\n      iszero\n      tag_197\n      jumpi\n        /* \"#utility.yul\":1998:2077   */\n      tag_198\n      tag_118\n      jump\t// in\n    tag_198:\n        /* \"#utility.yul\":1960:2079   */\n    tag_197:\n        /* \"#utility.yul\":2118:2119   */\n      0x00\n        /* \"#utility.yul\":2143:2196   */\n      tag_199\n        /* \"#utility.yul\":2188:2195   */\n      dup5\n        /* \"#utility.yul\":2179:2185   */\n      dup3\n        /* \"#utility.yul\":2168:2177   */\n      dup6\n        /* \"#utility.yul\":2164:2186   */\n      add\n        /* \"#utility.yul\":2143:2196   */\n      tag_127\n      jump\t// in\n    tag_199:\n        /* \"#utility.yul\":2133:2196   */\n      swap2\n      pop\n        /* \"#utility.yul\":2089:2206   */\n      pop\n        /* \"#utility.yul\":1884:2213   */\n      swap3\n      swap2\n      pop\n      pop\n      jump\t// out\n        /* \"#utility.yul\":2219:2309   */\n    tag_128:\n        /* \"#utility.yul\":2253:2260   */\n      0x00\n        /* \"#utility.yul\":2296:2301   */\n      dup2\n        /* \"#utility.yul\":2289:2302   */\n      iszero\n        /* \"#utility.yul\":2282:2303   */\n      iszero\n        /* \"#utility.yul\":2271:2303   */\n      swap1\n      pop\n        /* \"#utility.yul\":2219:2309   */\n      swap2\n      swap1\n      pop\n      jump\t// out\n        /* \"#utility.yul\":2315:2424   */\n    tag_129:\n        /* \"#utility.yul\":2396:2417   */\n      tag_202\n        /* \"#utility.yul\":2411:2416   */\n      dup2\n        /* \"#utility.yul\":2396:2417   */\n      tag_128\n      jump\t// in\n    tag_202:\n        /* \"#utility.yul\":2391:2394   */\n      dup3\n        /* \"#utility.yul\":2384:2418   */\n      mstore\n        /* \"#utility.yul\":2315:2424   */\n      pop\n      pop\n      jump\t// out\n        /* \"#utility.yul\":2430:2640   */\n    tag_29:\n        /* \"#utility.yul\":2517:2521   */\n      0x00\n        /* \"#utility.yul\":2555:2557   */\n      0x20\n        /* \"#utility.yul\":2544:2553   */\n      dup3\n        /* \"#utility.yul\":2540:2558   */\n      add\n        /* \"#utility.yul\":2532:2558   */\n      swap1\n      pop\n        /* \"#utility.yul\":2568:2633   */\n      tag_204\n        /* \"#utility.yul\":2630:2631   */\n      0x00\n        /* \"#utility.yul\":2619:2628   */\n      dup4\n        /* \"#utility.yul\":2615:2632   */\n      add\n        /* \"#utility.yul\":2606:2612   */\n      dup5\n        /* \"#utility.yul\":2568:2633   */\n      tag_129\n      jump\t// in\n    tag_204:\n        /* \"#utility.yul\":2430:2640   */\n      swap3\n      swap2\n      pop\n      pop\n      jump\t// out\n        /* \"#utility.yul\":2646:2745   */\n    tag_130:\n        /* \"#utility.yul\":2698:2704   */\n      0x00\n        /* \"#utility.yul\":2732:2737   */\n      dup2\n        /* \"#utility.yul\":2726:2738   */\n      mload\n        /* \"#utility.yul\":2716:2738   */\n      swap1\n      pop\n        /* \"#utility.yul\":2646:2745   */\n      swap2\n      swap1\n      pop\n      jump\t// out\n        /* \"#utility.yul\":2751:2920   */\n    tag_131:\n        /* \"#utility.yul\":2835:2846   */\n      0x00\n        /* \"#utility.yul\":2869:2875   */\n      dup3\n        /* \"#utility.yul\":2864:2867   */\n      dup3\n        /* \"#utility.yul\":2857:2876   */\n      mstore\n        /* \"#utility.yul\":2909:2913   */\n      0x20\n        /* \"#utility.yul\":2904:2907   */\n      dup3\n        /* \"#utility.yul\":2900:2914   */\n      add\n        /* \"#utility.yul\":2885:2914   */\n      swap1\n      pop\n        /* \"#utility.yul\":2751:2920   */\n      swap3\n      swap2\n      pop\n      pop\n      jump\t// out\n        /* \"#utility.yul\":2926:3065   */\n    tag_132:\n        /* \"#utility.yul\":3015:3021   */\n      dup3\n        /* \"#utility.yul\":3010:3013   */\n      dup2\n        /* \"#utility.yul\":3005:3008   */\n      dup4\n        /* \"#utility.yul\":2999:3022   */\n      mcopy\n        /* \"#utility.yul\":3056:3057   */\n      0x00\n        /* \"#utility.yul\":3047:3053   */\n      dup4\n        /* \"#utility.yul\":3042:3045   */\n      dup4\n        /* \"#utility.yul\":3038:3054   */\n      add\n        /* \"#utility.yul\":3031:3058   */\n      mstore\n        /* \"#utility.yul\":2926:3065   */\n      pop\n      pop\n      pop\n      jump\t// out\n        /* \"#utility.yul\":3071:3173   */\n    tag_133:\n        /* \"#utility.yul\":3112:3118   */\n      0x00\n        /* \"#utility.yul\":3163:3165   */\n      0x1f\n        /* \"#utility.yul\":3159:3166   */\n      not\n        /* \"#utility.yul\":3154:3156   */\n      0x1f\n        /* \"#utility.yul\":3147:3152   */\n      dup4\n        /* \"#utility.yul\":3143:3157   */\n      add\n        /* \"#utility.yul\":3139:3167   */\n      and\n        /* \"#utility.yul\":3129:3167   */\n      swap1\n      pop\n        /* \"#utility.yul\":3071:3173   */\n      swap2\n      swap1\n      pop\n      jump\t// out\n        /* \"#utility.yul\":3179:3556   */\n    tag_134:\n        /* \"#utility.yul\":3267:3270   */\n      0x00\n        /* \"#utility.yul\":3295:3334   */\n      tag_210\n        /* \"#utility.yul\":3328:3333   */\n      dup3\n        /* \"#utility.yul\":3295:3334   */\n      tag_130\n      jump\t// in\n    tag_210:\n        /* \"#utility.yul\":3350:3421   */\n      tag_211\n        /* \"#utility.yul\":3414:3420   */\n      dup2\n        /* \"#utility.yul\":3409:3412   */\n      dup6\n        /* \"#utility.yul\":3350:3421   */\n      tag_131\n      jump\t// in\n    tag_211:\n        /* \"#utility.yul\":3343:3421   */\n      swap4\n      pop\n        /* \"#utility.yul\":3430:3495   */\n      tag_212\n        /* \"#utility.yul\":3488:3494   */\n      dup2\n        /* \"#utility.yul\":3483:3486   */\n      dup6\n        /* \"#utility.yul\":3476:3480   */\n      0x20\n        /* \"#utility.yul\":3469:3474   */\n      dup7\n        /* \"#utility.yul\":3465:3481   */\n      add\n        /* \"#utility.yul\":3430:3495   */\n      tag_132\n      jump\t// in\n    tag_212:\n        /* \"#utility.yul\":3520:3549   */\n      tag_213\n        /* \"#utility.yul\":3542:3548   */\n      dup2\n        /* \"#utility.yul\":3520:3549   */\n      tag_133\n      jump\t// in\n    tag_213:\n        /* \"#utility.yul\":3515:3518   */\n      dup5\n        /* \"#utility.yul\":3511:3550   */\n      add\n        /* \"#utility.yul\":3504:3550   */\n      swap2\n      pop\n        /* \"#utility.yul\":3271:3556   */\n      pop\n        /* \"#utility.yul\":3179:3556   */\n      swap3\n      swap2\n      pop\n      pop\n      jump\t// out\n        /* \"#utility.yul\":3562:3875   */\n    tag_40:\n        /* \"#utility.yul\":3675:3679   */\n      0x00\n        /* \"#utility.yul\":3713:3715   */\n      0x20\n        /* \"#utility.yul\":3702:3711   */\n      dup3\n        /* \"#utility.yul\":3698:3716   */\n      add\n        /* \"#utility.yul\":3690:3716   */\n      swap1\n      pop\n        /* \"#utility.yul\":3762:3771   */\n      dup2\n        /* \"#utility.yul\":3756:3760   */\n      dup2\n        /* \"#utility.yul\":3752:3772   */\n      sub\n        /* \"#utility.yul\":3748:3749   */\n      0x00\n        /* \"#utility.yul\":3737:3746   */\n      dup4\n        /* \"#utility.yul\":3733:3750   */\n      add\n        /* \"#utility.yul\":3726:3773   */\n      mstore\n        /* \"#utility.yul\":3790:3868   */\n      tag_215\n        /* \"#utility.yul\":3863:3867   */\n      dup2\n        /* \"#utility.yul\":3854:3860   */\n      dup5\n        /* \"#utility.yul\":3790:3868   */\n      tag_134\n      jump\t// in\n    tag_215:\n        /* \"#utility.yul\":3782:3868   */\n      swap1\n      pop\n        /* \"#utility.yul\":3562:3875   */\n      swap3\n      swap2\n      pop\n      pop\n      jump\t// out\n        /* \"#utility.yul\":3881:3998   */\n    tag_135:\n        /* \"#utility.yul\":3990:3991   */\n      0x00\n        /* \"#utility.yul\":3987:3988   */\n      dup1\n        /* \"#utility.yul\":3980:3992   */\n      revert\n        /* \"#utility.yul\":4004:4121   */\n    tag_136:\n        /* \"#utility.yul\":4113:4114   */\n      0x00\n        /* \"#utility.yul\":4110:4111   */\n      dup1\n        /* \"#utility.yul\":4103:4115   */\n      revert\n        /* \"#utility.yul\":4127:4307   */\n    tag_137:\n        /* \"#utility.yul\":4175:4252   */\n      0x4e487b7100000000000000000000000000000000000000000000000000000000\n        /* \"#utility.yul\":4172:4173   */\n      0x00\n        /* \"#utility.yul\":4165:4253   */\n      mstore\n        /* \"#utility.yul\":4272:4276   */\n      0x41\n        /* \"#utility.yul\":4269:4270   */\n      0x04\n        /* \"#utility.yul\":4262:4277   */\n      mstore\n        /* \"#utility.yul\":4296:4300   */\n      0x24\n        /* \"#utility.yul\":4293:4294   */\n      0x00\n        /* \"#utility.yul\":4286:4301   */\n      revert\n        /* \"#utility.yul\":4313:4594   */\n    tag_138:\n        /* \"#utility.yul\":4396:4423   */\n      tag_220\n        /* \"#utility.yul\":4418:4422   */\n      dup3\n        /* \"#utility.yul\":4396:4423   */\n      tag_133\n      jump\t// in\n    tag_220:\n        /* \"#utility.yul\":4388:4394   */\n      dup2\n        /* \"#utility.yul\":4384:4424   */\n      add\n        /* \"#utility.yul\":4526:4532   */\n      dup2\n        /* \"#utility.yul\":4514:4524   */\n      dup2\n        /* \"#utility.yul\":4511:4533   */\n      lt\n        /* \"#utility.yul\":4490:4508   */\n      0xffffffffffffffff\n        /* \"#utility.yul\":4478:4488   */\n      dup3\n        /* \"#utility.yul\":4475:4509   */\n      gt\n        /* \"#utility.yul\":4472:4534   */\n      or\n        /* \"#utility.yul\":4469:4557   */\n      iszero\n      tag_221\n      jumpi\n        /* \"#utility.yul\":4537:4555   */\n      tag_222\n      tag_137\n      jump\t// in\n    tag_222:\n        /* \"#utility.yul\":4469:4557   */\n    tag_221:\n        /* \"#utility.yul\":4577:4587   */\n      dup1\n        /* \"#utility.yul\":4573:4575   */\n      0x40\n        /* \"#utility.yul\":4566:4588   */\n      mstore\n        /* \"#utility.yul\":4356:4594   */\n      pop\n        /* \"#utility.yul\":4313:4594   */\n      pop\n      pop\n      jump\t// out\n        /* \"#utility.yul\":4600:4729   */\n    tag_139:\n        /* \"#utility.yul\":4634:4640   */\n      0x00\n        /* \"#utility.yul\":4661:4681   */\n      tag_224\n      tag_117\n      jump\t// in\n    tag_224:\n        /* \"#utility.yul\":4651:4681   */\n      swap1\n      pop\n        /* \"#utility.yul\":4690:4723   */\n      tag_225\n        /* \"#utility.yul\":4718:4722   */\n      dup3\n        /* \"#utility.yul\":4710:4716   */\n      dup3\n        /* \"#utility.yul\":4690:4723   */\n      tag_138\n      jump\t// in\n    tag_225:\n        /* \"#utility.yul\":4600:4729   */\n      swap2\n      swap1\n      pop\n      jump\t// out\n        /* \"#utility.yul\":4735:5043   */\n    tag_140:\n        /* \"#utility.yul\":4797:4801   */\n      0x00\n        /* \"#utility.yul\":4887:4905   */\n      0xffffffffffffffff\n        /* \"#utility.yul\":4879:4885   */\n      dup3\n        /* \"#utility.yul\":4876:4906   */\n      gt\n        /* \"#utility.yul\":4873:4929   */\n      iszero\n      tag_227\n      jumpi\n        /* \"#utility.yul\":4909:4927   */\n      tag_228\n      tag_137\n      jump\t// in\n    tag_228:\n        /* \"#utility.yul\":4873:4929   */\n    tag_227:\n        /* \"#utility.yul\":4947:4976   */\n      tag_229\n        /* \"#utility.yul\":4969:4975   */\n      dup3\n        /* \"#utility.yul\":4947:4976   */\n      tag_133\n      jump\t// in\n    tag_229:\n        /* \"#utility.yul\":4939:4976   */\n      swap1\n      pop\n        /* \"#utility.yul\":5031:5035   */\n      0x20\n        /* \"#utility.yul\":5025:5029   */\n      dup2\n        /* \"#utility.yul\":5021:5036   */\n      add\n        /* \"#utility.yul\":5013:5036   */\n      swap1\n      pop\n        /* \"#utility.yul\":4735:5043   */\n      swap2\n      swap1\n      pop\n      jump\t// out\n        /* \"#utility.yul\":5049:5197   */\n    tag_141:\n        /* \"#utility.yul\":5147:5153   */\n      dup3\n        /* \"#utility.yul\":5142:5145   */\n      dup2\n        /* \"#utility.yul\":5137:5140   */\n      dup4\n        /* \"#utility.yul\":5124:5154   */\n      calldatacopy\n        /* \"#utility.yul\":5188:5189   */\n      0x00\n        /* \"#utility.yul\":5179:5185   */\n      dup4\n        /* \"#utility.yul\":5174:5177   */\n      dup4\n        /* \"#utility.yul\":5170:5186   */\n      add\n        /* \"#utility.yul\":5163:5190   */\n      mstore\n        /* \"#utility.yul\":5049:5197   */\n      pop\n      pop\n      pop\n      jump\t// out\n        /* \"#utility.yul\":5203:5628   */\n    tag_142:\n        /* \"#utility.yul\":5281:5286   */\n      0x00\n        /* \"#utility.yul\":5306:5372   */\n      tag_232\n        /* \"#utility.yul\":5322:5371   */\n      tag_233\n        /* \"#utility.yul\":5364:5370   */\n      dup5\n        /* \"#utility.yul\":5322:5371   */\n      tag_140\n      jump\t// in\n    tag_233:\n        /* \"#utility.yul\":5306:5372   */\n      tag_139\n      jump\t// in\n    tag_232:\n        /* \"#utility.yul\":5297:5372   */\n      swap1\n      pop\n        /* \"#utility.yul\":5395:5401   */\n      dup3\n        /* \"#utility.yul\":5388:5393   */\n      dup2\n        /* \"#utility.yul\":5381:5402   */\n      mstore\n        /* \"#utility.yul\":5433:5437   */\n      0x20\n        /* \"#utility.yul\":5426:5431   */\n      dup2\n        /* \"#utility.yul\":5422:5438   */\n      add\n        /* \"#utility.yul\":5471:5474   */\n      dup5\n        /* \"#utility.yul\":5462:5468   */\n      dup5\n        /* \"#utility.yul\":5457:5460   */\n      dup5\n        /* \"#utility.yul\":5453:5469   */\n      add\n        /* \"#utility.yul\":5450:5475   */\n      gt\n        /* \"#utility.yul\":5447:5559   */\n      iszero\n      tag_234\n      jumpi\n        /* \"#utility.yul\":5478:5557   */\n      tag_235\n      tag_136\n      jump\t// in\n    tag_235:\n        /* \"#utility.yul\":5447:5559   */\n    tag_234:\n        /* \"#utility.yul\":5568:5622   */\n      tag_236\n        /* \"#utility.yul\":5615:5621   */\n      dup5\n        /* \"#utility.yul\":5610:5613   */\n      dup3\n        /* \"#utility.yul\":5605:5608   */\n      dup6\n        /* \"#utility.yul\":5568:5622   */\n      tag_141\n      jump\t// in\n    tag_236:\n        /* \"#utility.yul\":5287:5628   */\n      pop\n        /* \"#utility.yul\":5203:5628   */\n      swap4\n      swap3\n      pop\n      pop\n      pop\n      jump\t// out\n        /* \"#utility.yul\":5648:5988   */\n    tag_143:\n        /* \"#utility.yul\":5704:5709   */\n      0x00\n        /* \"#utility.yul\":5753:5756   */\n      dup3\n        /* \"#utility.yul\":5746:5750   */\n      0x1f\n        /* \"#utility.yul\":5738:5744   */\n      dup4\n        /* \"#utility.yul\":5734:5751   */\n      add\n        /* \"#utility.yul\":5730:5757   */\n      slt\n        /* \"#utility.yul\":5720:5842   */\n      tag_238\n      jumpi\n        /* \"#utility.yul\":5761:5840   */\n      tag_239\n      tag_135\n      jump\t// in\n    tag_239:\n        /* \"#utility.yul\":5720:5842   */\n    tag_238:\n        /* \"#utility.yul\":5878:5884   */\n      dup2\n        /* \"#utility.yul\":5865:5885   */\n      calldataload\n        /* \"#utility.yul\":5903:5982   */\n      tag_240\n        /* \"#utility.yul\":5978:5981   */\n      dup5\n        /* \"#utility.yul\":5970:5976   */\n      dup3\n        /* \"#utility.yul\":5963:5967   */\n      0x20\n        /* \"#utility.yul\":5955:5961   */\n      dup7\n        /* \"#utility.yul\":5951:5968   */\n      add\n        /* \"#utility.yul\":5903:5982   */\n      tag_142\n      jump\t// in\n    tag_240:\n        /* \"#utility.yul\":5894:5982   */\n      swap2\n      pop\n        /* \"#utility.yul\":5710:5988   */\n      pop\n        /* \"#utility.yul\":5648:5988   */\n      swap3\n      swap2\n      pop\n      pop\n      jump\t// out\n        /* \"#utility.yul\":5994:6503   */\n    tag_56:\n        /* \"#utility.yul\":6063:6069   */\n      0x00\n        /* \"#utility.yul\":6112:6114   */\n      0x20\n        /* \"#utility.yul\":6100:6109   */\n      dup3\n        /* \"#utility.yul\":6091:6098   */\n      dup5\n        /* \"#utility.yul\":6087:6110   */\n      sub\n        /* \"#utility.yul\":6083:6115   */\n      slt\n        /* \"#utility.yul\":6080:6199   */\n      iszero\n      tag_242\n      jumpi\n        /* \"#utility.yul\":6118:6197   */\n      tag_243\n      tag_118\n      jump\t// in\n    tag_243:\n        /* \"#utility.yul\":6080:6199   */\n    tag_242:\n        /* \"#utility.yul\":6266:6267   */\n      0x00\n        /* \"#utility.yul\":6255:6264   */\n      dup3\n        /* \"#utility.yul\":6251:6268   */\n      add\n        /* \"#utility.yul\":6238:6269   */\n      calldataload\n        /* \"#utility.yul\":6296:6314   */\n      0xffffffffffffffff\n        /* \"#utility.yul\":6288:6294   */\n      dup2\n        /* \"#utility.yul\":6285:6315   */\n      gt\n        /* \"#utility.yul\":6282:6399   */\n      iszero\n      tag_244\n      jumpi\n        /* \"#utility.yul\":6318:6397   */\n      tag_245\n      tag_119\n      jump\t// in\n    tag_245:\n        /* \"#utility.yul\":6282:6399   */\n    tag_244:\n        /* \"#utility.yul\":6423:6486   */\n      tag_246\n        /* \"#utility.yul\":6478:6485   */\n      dup5\n        /* \"#utility.yul\":6469:6475   */\n      dup3\n        /* \"#utility.yul\":6458:6467   */\n      dup6\n        /* \"#utility.yul\":6454:6476   */\n      add\n        /* \"#utility.yul\":6423:6486   */\n      tag_143\n      jump\t// in\n    tag_246:\n        /* \"#utility.yul\":6413:6486   */\n      swap2\n      pop\n        /* \"#utility.yul\":6209:6496   */\n      pop\n        /* \"#utility.yul\":5994:6503   */\n      swap3\n      swap2\n      pop\n      pop\n      jump\t// out\n        /* \"#utility.yul\":6509:6627   */\n    tag_144:\n        /* \"#utility.yul\":6596:6620   */\n      tag_248\n        /* \"#utility.yul\":6614:6619   */\n      dup2\n        /* \"#utility.yul\":6596:6620   */\n      tag_125\n      jump\t// in\n    tag_248:\n        /* \"#utility.yul\":6591:6594   */\n      dup3\n        /* \"#utility.yul\":6584:6621   */\n      mstore\n        /* \"#utility.yul\":6509:6627   */\n      pop\n      pop\n      jump\t// out\n        /* \"#utility.yul\":6633:6855   */\n    tag_69:\n        /* \"#utility.yul\":6726:6730   */\n      0x00\n        /* \"#utility.yul\":6764:6766   */\n      0x20\n        /* \"#utility.yul\":6753:6762   */\n      dup3\n        /* \"#utility.yul\":6749:6767   */\n      add\n        /* \"#utility.yul\":6741:6767   */\n      swap1\n      pop\n        /* \"#utility.yul\":6777:6848   */\n      tag_250\n        /* \"#utility.yul\":6845:6846   */\n      0x00\n        /* \"#utility.yul\":6834:6843   */\n      dup4\n        /* \"#utility.yul\":6830:6847   */\n      add\n        /* \"#utility.yul\":6821:6827   */\n      dup5\n        /* \"#utility.yul\":6777:6848   */\n      tag_144\n      jump\t// in\n    tag_250:\n        /* \"#utility.yul\":6633:6855   */\n      swap3\n      swap2\n      pop\n      pop\n      jump\t// out\n        /* \"#utility.yul\":6861:7031   */\n    tag_145:\n        /* \"#utility.yul\":7001:7023   */\n      0x496e76616c69642063616e646964617465204944000000000000000000000000\n        /* \"#utility.yul\":6997:6998   */\n      0x00\n        /* \"#utility.yul\":6989:6995   */\n      dup3\n        /* \"#utility.yul\":6985:6999   */\n      add\n        /* \"#utility.yul\":6978:7024   */\n      mstore\n        /* \"#utility.yul\":6861:7031   */\n      pop\n      jump\t// out\n        /* \"#utility.yul\":7037:7403   */\n    tag_146:\n        /* \"#utility.yul\":7179:7182   */\n      0x00\n        /* \"#utility.yul\":7200:7267   */\n      tag_253\n        /* \"#utility.yul\":7264:7266   */\n      0x14\n        /* \"#utility.yul\":7259:7262   */\n      dup4\n        /* \"#utility.yul\":7200:7267   */\n      tag_131\n      jump\t// in\n    tag_253:\n        /* \"#utility.yul\":7193:7267   */\n      swap2\n      pop\n        /* \"#utility.yul\":7276:7369   */\n      tag_254\n        /* \"#utility.yul\":7365:7368   */\n      dup3\n        /* \"#utility.yul\":7276:7369   */\n      tag_145\n      jump\t// in\n    tag_254:\n        /* \"#utility.yul\":7394:7396   */\n      0x20\n        /* \"#utility.yul\":7389:7392   */\n      dup3\n        /* \"#utility.yul\":7385:7397   */\n      add\n        /* \"#utility.yul\":7378:7397   */\n      swap1\n      pop\n        /* \"#utility.yul\":7037:7403   */\n      swap2\n      swap1\n      pop\n      jump\t// out\n        /* \"#utility.yul\":7409:7828   */\n    tag_74:\n        /* \"#utility.yul\":7575:7579   */\n      0x00\n        /* \"#utility.yul\":7613:7615   */\n      0x20\n        /* \"#utility.yul\":7602:7611   */\n      dup3\n        /* \"#utility.yul\":7598:7616   */\n      add\n        /* \"#utility.yul\":7590:7616   */\n      swap1\n      pop\n        /* \"#utility.yul\":7662:7671   */\n      dup2\n        /* \"#utility.yul\":7656:7660   */\n      dup2\n        /* \"#utility.yul\":7652:7672   */\n      sub\n        /* \"#utility.yul\":7648:7649   */\n      0x00\n        /* \"#utility.yul\":7637:7646   */\n      dup4\n        /* \"#utility.yul\":7633:7650   */\n      add\n        /* \"#utility.yul\":7626:7673   */\n      mstore\n        /* \"#utility.yul\":7690:7821   */\n      tag_256\n        /* \"#utility.yul\":7816:7820   */\n      dup2\n        /* \"#utility.yul\":7690:7821   */\n      tag_146\n      jump\t// in\n    tag_256:\n        /* \"#utility.yul\":7682:7821   */\n      swap1\n      pop\n        /* \"#utility.yul\":7409:7828   */\n      swap2\n      swap1\n      pop\n      jump\t// out\n        /* \"#utility.yul\":7834:8054   */\n    tag_147:\n        /* \"#utility.yul\":7974:8008   */\n      0x4f6e6c792061646d696e2063616e2063616c6c20746869732066756e6374696f\n        /* \"#utility.yul\":7970:7971   */\n      0x00\n        /* \"#utility.yul\":7962:7968   */\n      dup3\n        /* \"#utility.yul\":7958:7972   */\n      add\n        /* \"#utility.yul\":7951:8009   */\n      mstore\n        /* \"#utility.yul\":8043:8046   */\n      0x6e00000000000000000000000000000000000000000000000000000000000000\n        /* \"#utility.yul\":8038:8040   */\n      0x20\n        /* \"#utility.yul\":8030:8036   */\n      dup3\n        /* \"#utility.yul\":8026:8041   */\n      add\n        /* \"#utility.yul\":8019:8047   */\n      mstore\n        /* \"#utility.yul\":7834:8054   */\n      pop\n      jump\t// out\n        /* \"#utility.yul\":8060:8426   */\n    tag_148:\n        /* \"#utility.yul\":8202:8205   */\n      0x00\n        /* \"#utility.yul\":8223:8290   */\n      tag_259\n        /* \"#utility.yul\":8287:8289   */\n      0x21\n        /* \"#utility.yul\":8282:8285   */\n      dup4\n        /* \"#utility.yul\":8223:8290   */\n      tag_131\n      jump\t// in\n    tag_259:\n        /* \"#utility.yul\":8216:8290   */\n      swap2\n      pop\n        /* \"#utility.yul\":8299:8392   */\n      tag_260\n        /* \"#utility.yul\":8388:8391   */\n      dup3\n        /* \"#utility.yul\":8299:8392   */\n      tag_147\n      jump\t// in\n    tag_260:\n        /* \"#utility.yul\":8417:8419   */\n      0x40\n        /* \"#utility.yul\":8412:8415   */\n      dup3\n        /* \"#utility.yul\":8408:8420   */\n      add\n        /* \"#utility.yul\":8401:8420   */\n      swap1\n      pop\n        /* \"#utility.yul\":8060:8426   */\n      swap2\n      swap1\n      pop\n      jump\t// out\n        /* \"#utility.yul\":8432:8851   */\n    tag_78:\n        /* \"#utility.yul\":8598:8602   */\n      0x00\n        /* \"#utility.yul\":8636:8638   */\n      0x20\n        /* \"#utility.yul\":8625:8634   */\n      dup3\n        /* \"#utility.yul\":8621:8639   */\n      add\n        /* \"#utility.yul\":8613:8639   */\n      swap1\n      pop\n        /* \"#utility.yul\":8685:8694   */\n      dup2\n        /* \"#utility.yul\":8679:8683   */\n      dup2\n        /* \"#utility.yul\":8675:8695   */\n      sub\n        /* \"#utility.yul\":8671:8672   */\n      0x00\n        /* \"#utility.yul\":8660:8669   */\n      dup4\n        /* \"#utility.yul\":8656:8673   */\n      add\n        /* \"#utility.yul\":8649:8696   */\n      mstore\n        /* \"#utility.yul\":8713:8844   */\n      tag_262\n        /* \"#utility.yul\":8839:8843   */\n      dup2\n        /* \"#utility.yul\":8713:8844   */\n      tag_148\n      jump\t// in\n    tag_262:\n        /* \"#utility.yul\":8705:8844   */\n      swap1\n      pop\n        /* \"#utility.yul\":8432:8851   */\n      swap2\n      swap1\n      pop\n      jump\t// out\n        /* \"#utility.yul\":8857:9094   */\n    tag_149:\n        /* \"#utility.yul\":8997:9031   */\n      0x43616e6e6f74207265766f6b652061646d696e2070726976696c656765732066\n        /* \"#utility.yul\":8993:8994   */\n      0x00\n        /* \"#utility.yul\":8985:8991   */\n      dup3\n        /* \"#utility.yul\":8981:8995   */\n      add\n        /* \"#utility.yul\":8974:9032   */\n      mstore\n        /* \"#utility.yul\":9066:9086   */\n      0x726f6d20746865206d61696e2061646d696e0000000000000000000000000000\n        /* \"#utility.yul\":9061:9063   */\n      0x20\n        /* \"#utility.yul\":9053:9059   */\n      dup3\n        /* \"#utility.yul\":9049:9064   */\n      add\n        /* \"#utility.yul\":9042:9087   */\n      mstore\n        /* \"#utility.yul\":8857:9094   */\n      pop\n      jump\t// out\n        /* \"#utility.yul\":9100:9466   */\n    tag_150:\n        /* \"#utility.yul\":9242:9245   */\n      0x00\n        /* \"#utility.yul\":9263:9330   */\n      tag_265\n        /* \"#utility.yul\":9327:9329   */\n      0x32\n        /* \"#utility.yul\":9322:9325   */\n      dup4\n        /* \"#utility.yul\":9263:9330   */\n      tag_131\n      jump\t// in\n    tag_265:\n        /* \"#utility.yul\":9256:9330   */\n      swap2\n      pop\n        /* \"#utility.yul\":9339:9432   */\n      tag_266\n        /* \"#utility.yul\":9428:9431   */\n      dup3\n        /* \"#utility.yul\":9339:9432   */\n      tag_149\n      jump\t// in\n    tag_266:\n        /* \"#utility.yul\":9457:9459   */\n      0x40\n        /* \"#utility.yul\":9452:9455   */\n      dup3\n        /* \"#utility.yul\":9448:9460   */\n      add\n        /* \"#utility.yul\":9441:9460   */\n      swap1\n      pop\n        /* \"#utility.yul\":9100:9466   */\n      swap2\n      swap1\n      pop\n      jump\t// out\n        /* \"#utility.yul\":9472:9891   */\n    tag_82:\n        /* \"#utility.yul\":9638:9642   */\n      0x00\n        /* \"#utility.yul\":9676:9678   */\n      0x20\n        /* \"#utility.yul\":9665:9674   */\n      dup3\n        /* \"#utility.yul\":9661:9679   */\n      add\n        /* \"#utility.yul\":9653:9679   */\n      swap1\n      pop\n        /* \"#utility.yul\":9725:9734   */\n      dup2\n        /* \"#utility.yul\":9719:9723   */\n      dup2\n        /* \"#utility.yul\":9715:9735   */\n      sub\n        /* \"#utility.yul\":9711:9712   */\n      0x00\n        /* \"#utility.yul\":9700:9709   */\n      dup4\n        /* \"#utility.yul\":9696:9713   */\n      add\n        /* \"#utility.yul\":9689:9736   */\n      mstore\n        /* \"#utility.yul\":9753:9884   */\n      tag_268\n        /* \"#utility.yul\":9879:9883   */\n      dup2\n        /* \"#utility.yul\":9753:9884   */\n      tag_150\n      jump\t// in\n    tag_268:\n        /* \"#utility.yul\":9745:9884   */\n      swap1\n      pop\n        /* \"#utility.yul\":9472:9891   */\n      swap2\n      swap1\n      pop\n      jump\t// out\n        /* \"#utility.yul\":9897:10077   */\n    tag_151:\n        /* \"#utility.yul\":9945:10022   */\n      0x4e487b7100000000000000000000000000000000000000000000000000000000\n        /* \"#utility.yul\":9942:9943   */\n      0x00\n        /* \"#utility.yul\":9935:10023   */\n      mstore\n        /* \"#utility.yul\":10042:10046   */\n      0x22\n        /* \"#utility.yul\":10039:10040   */\n      0x04\n        /* \"#utility.yul\":10032:10047   */\n      mstore\n        /* \"#utility.yul\":10066:10070   */\n      0x24\n        /* \"#utility.yul\":10063:10064   */\n      0x00\n        /* \"#utility.yul\":10056:10071   */\n      revert\n        /* \"#utility.yul\":10083:10403   */\n    tag_86:\n        /* \"#utility.yul\":10127:10133   */\n      0x00\n        /* \"#utility.yul\":10164:10165   */\n      0x02\n        /* \"#utility.yul\":10158:10162   */\n      dup3\n        /* \"#utility.yul\":10154:10166   */\n      div\n        /* \"#utility.yul\":10144:10166   */\n      swap1\n      pop\n        /* \"#utility.yul\":10211:10212   */\n      0x01\n        /* \"#utility.yul\":10205:10209   */\n      dup3\n        /* \"#utility.yul\":10201:10213   */\n      and\n        /* \"#utility.yul\":10232:10250   */\n      dup1\n        /* \"#utility.yul\":10222:10303   */\n      tag_271\n      jumpi\n        /* \"#utility.yul\":10288:10292   */\n      0x7f\n        /* \"#utility.yul\":10280:10286   */\n      dup3\n        /* \"#utility.yul\":10276:10293   */\n      and\n        /* \"#utility.yul\":10266:10293   */\n      swap2\n      pop\n        /* \"#utility.yul\":10222:10303   */\n    tag_271:\n        /* \"#utility.yul\":10350:10352   */\n      0x20\n        /* \"#utility.yul\":10342:10348   */\n      dup3\n        /* \"#utility.yul\":10339:10353   */\n      lt\n        /* \"#utility.yul\":10319:10337   */\n      dup2\n        /* \"#utility.yul\":10316:10354   */\n      sub\n        /* \"#utility.yul\":10313:10397   */\n      tag_272\n      jumpi\n        /* \"#utility.yul\":10369:10387   */\n      tag_273\n      tag_151\n      jump\t// in\n    tag_273:\n        /* \"#utility.yul\":10313:10397   */\n    tag_272:\n        /* \"#utility.yul\":10134:10403   */\n      pop\n        /* \"#utility.yul\":10083:10403   */\n      swap2\n      swap1\n      pop\n      jump\t// out\n        /* \"#utility.yul\":10409:10633   */\n    tag_152:\n        /* \"#utility.yul\":10549:10583   */\n      0x4f6e6c79207265676973746572656420766f746572732063616e206361737420\n        /* \"#utility.yul\":10545:10546   */\n      0x00\n        /* \"#utility.yul\":10537:10543   */\n      dup3\n        /* \"#utility.yul\":10533:10547   */\n      add\n        /* \"#utility.yul\":10526:10584   */\n      mstore\n        /* \"#utility.yul\":10618:10625   */\n      0x766f746573000000000000000000000000000000000000000000000000000000\n        /* \"#utility.yul\":10613:10615   */\n      0x20\n        /* \"#utility.yul\":10605:10611   */\n      dup3\n        /* \"#utility.yul\":10601:10616   */\n      add\n        /* \"#utility.yul\":10594:10626   */\n      mstore\n        /* \"#utility.yul\":10409:10633   */\n      pop\n      jump\t// out\n        /* \"#utility.yul\":10639:11005   */\n    tag_153:\n        /* \"#utility.yul\":10781:10784   */\n      0x00\n        /* \"#utility.yul\":10802:10869   */\n      tag_276\n        /* \"#utility.yul\":10866:10868   */\n      0x25\n        /* \"#utility.yul\":10861:10864   */\n      dup4\n        /* \"#utility.yul\":10802:10869   */\n      tag_131\n      jump\t// in\n    tag_276:\n        /* \"#utility.yul\":10795:10869   */\n      swap2\n      pop\n        /* \"#utility.yul\":10878:10971   */\n      tag_277\n        /* \"#utility.yul\":10967:10970   */\n      dup3\n        /* \"#utility.yul\":10878:10971   */\n      tag_152\n      jump\t// in\n    tag_277:\n        /* \"#utility.yul\":10996:10998   */\n      0x40\n        /* \"#utility.yul\":10991:10994   */\n      dup3\n        /* \"#utility.yul\":10987:10999   */\n      add\n        /* \"#utility.yul\":10980:10999   */\n      swap1\n      pop\n        /* \"#utility.yul\":10639:11005   */\n      swap2\n      swap1\n      pop\n      jump\t// out\n        /* \"#utility.yul\":11011:11430   */\n    tag_103:\n        /* \"#utility.yul\":11177:11181   */\n      0x00\n        /* \"#utility.yul\":11215:11217   */\n      0x20\n        /* \"#utility.yul\":11204:11213   */\n      dup3\n        /* \"#utility.yul\":11200:11218   */\n      add\n        /* \"#utility.yul\":11192:11218   */\n      swap1\n      pop\n        /* \"#utility.yul\":11264:11273   */\n      dup2\n        /* \"#utility.yul\":11258:11262   */\n      dup2\n        /* \"#utility.yul\":11254:11274   */\n      sub\n        /* \"#utility.yul\":11250:11251   */\n      0x00\n        /* \"#utility.yul\":11239:11248   */\n      dup4\n        /* \"#utility.yul\":11235:11252   */\n      add\n        /* \"#utility.yul\":11228:11275   */\n      mstore\n        /* \"#utility.yul\":11292:11423   */\n      tag_279\n        /* \"#utility.yul\":11418:11422   */\n      dup2\n        /* \"#utility.yul\":11292:11423   */\n      tag_153\n      jump\t// in\n    tag_279:\n        /* \"#utility.yul\":11284:11423   */\n      swap1\n      pop\n        /* \"#utility.yul\":11011:11430   */\n      swap2\n      swap1\n      pop\n      jump\t// out\n        /* \"#utility.yul\":11436:11616   */\n    tag_154:\n        /* \"#utility.yul\":11484:11561   */\n      0x4e487b7100000000000000000000000000000000000000000000000000000000\n        /* \"#utility.yul\":11481:11482   */\n      0x00\n        /* \"#utility.yul\":11474:11562   */\n      mstore\n        /* \"#utility.yul\":11581:11585   */\n      0x11\n        /* \"#utility.yul\":11578:11579   */\n      0x04\n        /* \"#utility.yul\":11571:11586   */\n      mstore\n        /* \"#utility.yul\":11605:11609   */\n      0x24\n        /* \"#utility.yul\":11602:11603   */\n      0x00\n        /* \"#utility.yul\":11595:11610   */\n      revert\n        /* \"#utility.yul\":11622:11855   */\n    tag_108:\n        /* \"#utility.yul\":11661:11664   */\n      0x00\n        /* \"#utility.yul\":11684:11708   */\n      tag_282\n        /* \"#utility.yul\":11702:11707   */\n      dup3\n        /* \"#utility.yul\":11684:11708   */\n      tag_120\n      jump\t// in\n    tag_282:\n        /* \"#utility.yul\":11675:11708   */\n      swap2\n      pop\n        /* \"#utility.yul\":11730:11796   */\n      0xffffffffffffffffffffffffffffffffffffffffffffffffffffffffffffffff\n        /* \"#utility.yul\":11723:11728   */\n      dup3\n        /* \"#utility.yul\":11720:11797   */\n      sub\n        /* \"#utility.yul\":11717:11820   */\n      tag_283\n      jumpi\n        /* \"#utility.yul\":11800:11818   */\n      tag_284\n      tag_154\n      jump\t// in\n    tag_284:\n        /* \"#utility.yul\":11717:11820   */\n    tag_283:\n        /* \"#utility.yul\":11847:11848   */\n      0x01\n        /* \"#utility.yul\":11840:11845   */\n      dup3\n        /* \"#utility.yul\":11836:11849   */\n      add\n        /* \"#utility.yul\":11829:11849   */\n      swap1\n      pop\n        /* \"#utility.yul\":11622:11855   */\n      swap2\n      swap1\n      pop\n      jump\t// out\n        /* \"#utility.yul\":11861:12002   */\n    tag_155:\n        /* \"#utility.yul\":11910:11914   */\n      0x00\n        /* \"#utility.yul\":11933:11936   */\n      dup2\n        /* \"#utility.yul\":11925:11936   */\n      swap1\n      pop\n        /* \"#utility.yul\":11956:11959   */\n      dup2\n        /* \"#utility.yul\":11953:11954   */\n      0x00\n        /* \"#utility.yul\":11946:11960   */\n      mstore\n        /* \"#utility.yul\":11990:11994   */\n      0x20\n        /* \"#utility.yul\":11987:11988   */\n      0x00\n        /* \"#utility.yul\":11977:11995   */\n      keccak256\n        /* \"#utility.yul\":11969:11995   */\n      swap1\n      pop\n        /* \"#utility.yul\":11861:12002   */\n      swap2\n      swap1\n      pop\n      jump\t// out\n        /* \"#utility.yul\":12008:12101   */\n    tag_156:\n        /* \"#utility.yul\":12045:12051   */\n      0x00\n        /* \"#utility.yul\":12092:12094   */\n      0x20\n        /* \"#utility.yul\":12087:12089   */\n      0x1f\n        /* \"#utility.yul\":12080:12085   */\n      dup4\n        /* \"#utility.yul\":12076:12090   */\n      add\n        /* \"#utility.yul\":12072:12095   */\n      div\n        /* \"#utility.yul\":12062:12095   */\n      swap1\n      pop\n        /* \"#utility.yul\":12008:12101   */\n      swap2\n      swap1\n      pop\n      jump\t// out\n        /* \"#utility.yul\":12107:12214   */\n    tag_157:\n        /* \"#utility.yul\":12151:12159   */\n      0x00\n        /* \"#utility.yul\":12201:12206   */\n      dup3\n        /* \"#utility.yul\":12195:12199   */\n      dup3\n        /* \"#utility.yul\":12191:12207   */\n      shl\n        /* \"#utility.yul\":12170:12207   */\n      swap1\n      pop\n        /* \"#utility.yul\":12107:12214   */\n      swap3\n      swap2\n      pop\n      pop\n      jump\t// out\n        /* \"#utility.yul\":12220:12613   */\n    tag_158:\n        /* \"#utility.yul\":12289:12295   */\n      0x00\n        /* \"#utility.yul\":12339:12340   */\n      0x08\n        /* \"#utility.yul\":12327:12337   */\n      dup4\n        /* \"#utility.yul\":12323:12341   */\n      mul\n        /* \"#utility.yul\":12362:12459   */\n      tag_289\n        /* \"#utility.yul\":12392:12458   */\n      0xffffffffffffffffffffffffffffffffffffffffffffffffffffffffffffffff\n        /* \"#utility.yul\":12381:12390   */\n      dup3\n        /* \"#utility.yul\":12362:12459   */\n      tag_157\n      jump\t// in\n    tag_289:\n        /* \"#utility.yul\":12480:12519   */\n      tag_290\n        /* \"#utility.yul\":12510:12518   */\n      dup7\n        /* \"#utility.yul\":12499:12508   */\n      dup4\n        /* \"#utility.yul\":12480:12519   */\n      tag_157\n      jump\t// in\n    tag_290:\n        /* \"#utility.yul\":12468:12519   */\n      swap6\n      pop\n        /* \"#utility.yul\":12552:12556   */\n      dup1\n        /* \"#utility.yul\":12548:12557   */\n      not\n        /* \"#utility.yul\":12541:12546   */\n      dup5\n        /* \"#utility.yul\":12537:12558   */\n      and\n        /* \"#utility.yul\":12528:12558   */\n      swap4\n      pop\n        /* \"#utility.yul\":12601:12605   */\n      dup1\n        /* \"#utility.yul\":12591:12599   */\n      dup7\n        /* \"#utility.yul\":12587:12606   */\n      and\n        /* \"#utility.yul\":12580:12585   */\n      dup5\n        /* \"#utility.yul\":12577:12607   */\n      or\n        /* \"#utility.yul\":12567:12607   */\n      swap3\n      pop\n        /* \"#utility.yul\":12296:12613   */\n      pop\n      pop\n        /* \"#utility.yul\":12220:12613   */\n      swap4\n      swap3\n      pop\n      pop\n      pop\n      jump\t// out\n        /* \"#utility.yul\":12619:12679   */\n    tag_159:\n        /* \"#utility.yul\":12647:12650   */\n      0x00\n        /* \"#utility.yul\":12668:12673   */\n      dup2\n        /* \"#utility.yul\":12661:12673   */\n      swap1\n      pop\n        /* \"#utility.yul\":12619:12679   */\n      swap2\n      swap1\n      pop\n      jump\t// out\n        /* \"#utility.yul\":12685:12827   */\n    tag_160:\n        /* \"#utility.yul\":12735:12744   */\n      0x00\n        /* \"#utility.yul\":12768:12821   */\n      tag_293\n        /* \"#utility.yul\":12786:12820   */\n      tag_294\n        /* \"#utility.yul\":12795:12819   */\n      tag_295\n        /* \"#utility.yul\":12813:12818   */\n      dup5\n        /* \"#utility.yul\":12795:12819   */\n      tag_120\n      jump\t// in\n    tag_295:\n        /* \"#utility.yul\":12786:12820   */\n      tag_159\n      jump\t// in\n    tag_294:\n        /* \"#utility.yul\":12768:12821   */\n      tag_120\n      jump\t// in\n    tag_293:\n        /* \"#utility.yul\":12755:12821   */\n      swap1\n      pop\n        /* \"#utility.yul\":12685:12827   */\n      swap2\n      swap1\n      pop\n      jump\t// out\n        /* \"#utility.yul\":12833:12908   */\n    tag_161:\n        /* \"#utility.yul\":12876:12879   */\n      0x00\n        /* \"#utility.yul\":12897:12902   */\n      dup2\n        /* \"#utility.yul\":12890:12902   */\n      swap1\n      pop\n        /* \"#utility.yul\":12833:12908   */\n      swap2\n      swap1\n      pop\n      jump\t// out\n        /* \"#utility.yul\":12914:13183   */\n    tag_162:\n        /* \"#utility.yul\":13024:13063   */\n      tag_298\n        /* \"#utility.yul\":13055:13062   */\n      dup4\n        /* \"#utility.yul\":13024:13063   */\n      tag_160\n      jump\t// in\n    tag_298:\n        /* \"#utility.yul\":13085:13176   */\n      tag_299\n        /* \"#utility.yul\":13134:13175   */\n      tag_300\n        /* \"#utility.yul\":13158:13174   */\n      dup3\n        /* \"#utility.yul\":13134:13175   */\n      tag_161\n      jump\t// in\n    tag_300:\n        /* \"#utility.yul\":13126:13132   */\n      dup5\n        /* \"#utility.yul\":13119:13123   */\n      dup5\n        /* \"#utility.yul\":13113:13124   */\n      sload\n        /* \"#utility.yul\":13085:13176   */\n      tag_158\n      jump\t// in\n    tag_299:\n        /* \"#utility.yul\":13079:13083   */\n      dup3\n        /* \"#utility.yul\":13072:13177   */\n      sstore\n        /* \"#utility.yul\":12990:13183   */\n      pop\n        /* \"#utility.yul\":12914:13183   */\n      pop\n      pop\n      pop\n      jump\t// out\n        /* \"#utility.yul\":13189:13262   */\n    tag_163:\n        /* \"#utility.yul\":13234:13237   */\n      0x00\n        /* \"#utility.yul\":13189:13262   */\n      swap1\n      jump\t// out\n        /* \"#utility.yul\":13268:13457   */\n    tag_164:\n        /* \"#utility.yul\":13345:13377   */\n      tag_303\n      tag_163\n      jump\t// in\n    tag_303:\n        /* \"#utility.yul\":13386:13451   */\n      tag_304\n        /* \"#utility.yul\":13444:13450   */\n      dup2\n        /* \"#utility.yul\":13436:13442   */\n      dup5\n        /* \"#utility.yul\":13430:13434   */\n      dup5\n        /* \"#utility.yul\":13386:13451   */\n      tag_162\n      jump\t// in\n    tag_304:\n        /* \"#utility.yul\":13321:13457   */\n      pop\n        /* \"#utility.yul\":13268:13457   */\n      pop\n      pop\n      jump\t// out\n        /* \"#utility.yul\":13463:13649   */\n    tag_165:\n        /* \"#utility.yul\":13523:13643   */\n    tag_306:\n        /* \"#utility.yul\":13540:13543   */\n      dup2\n        /* \"#utility.yul\":13533:13538   */\n      dup2\n        /* \"#utility.yul\":13530:13544   */\n      lt\n        /* \"#utility.yul\":13523:13643   */\n      iszero\n      tag_308\n      jumpi\n        /* \"#utility.yul\":13594:13633   */\n      tag_309\n        /* \"#utility.yul\":13631:13632   */\n      0x00\n        /* \"#utility.yul\":13624:13629   */\n      dup3\n        /* \"#utility.yul\":13594:13633   */\n      tag_164\n      jump\t// in\n    tag_309:\n        /* \"#utility.yul\":13567:13568   */\n      0x01\n        /* \"#utility.yul\":13560:13565   */\n      dup2\n        /* \"#utility.yul\":13556:13569   */\n      add\n        /* \"#utility.yul\":13547:13569   */\n      swap1\n      pop\n        /* \"#utility.yul\":13523:13643   */\n      jump(tag_306)\n    tag_308:\n        /* \"#utility.yul\":13463:13649   */\n      pop\n      pop\n      jump\t// out\n        /* \"#utility.yul\":13655:14198   */\n    tag_166:\n        /* \"#utility.yul\":13756:13758   */\n      0x1f\n        /* \"#utility.yul\":13751:13754   */\n      dup3\n        /* \"#utility.yul\":13748:13759   */\n      gt\n        /* \"#utility.yul\":13745:14191   */\n      iszero\n      tag_311\n      jumpi\n        /* \"#utility.yul\":13790:13828   */\n      tag_312\n        /* \"#utility.yul\":13822:13827   */\n      dup2\n        /* \"#utility.yul\":13790:13828   */\n      tag_155\n      jump\t// in\n    tag_312:\n        /* \"#utility.yul\":13874:13903   */\n      tag_313\n        /* \"#utility.yul\":13892:13902   */\n      dup5\n        /* \"#utility.yul\":13874:13903   */\n      tag_156\n      jump\t// in\n    tag_313:\n        /* \"#utility.yul\":13864:13872   */\n      dup2\n        /* \"#utility.yul\":13860:13904   */\n      add\n        /* \"#utility.yul\":14057:14059   */\n      0x20\n        /* \"#utility.yul\":14045:14055   */\n      dup6\n        /* \"#utility.yul\":14042:14060   */\n      lt\n        /* \"#utility.yul\":14039:14088   */\n      iszero\n      tag_314\n      jumpi\n        /* \"#utility.yul\":14078:14086   */\n      dup2\n        /* \"#utility.yul\":14063:14086   */\n      swap1\n      pop\n        /* \"#utility.yul\":14039:14088   */\n    tag_314:\n        /* \"#utility.yul\":14101:14181   */\n      tag_315\n        /* \"#utility.yul\":14157:14179   */\n      tag_316\n        /* \"#utility.yul\":14175:14178   */\n      dup6\n        /* \"#utility.yul\":14157:14179   */\n      tag_156\n      jump\t// in\n    tag_316:\n        /* \"#utility.yul\":14147:14155   */\n      dup4\n        /* \"#utility.yul\":14143:14180   */\n      add\n        /* \"#utility.yul\":14130:14141   */\n      dup3\n        /* \"#utility.yul\":14101:14181   */\n      tag_165\n      jump\t// in\n    tag_315:\n        /* \"#utility.yul\":13760:14191   */\n      pop\n      pop\n        /* \"#utility.yul\":13745:14191   */\n    tag_311:\n        /* \"#utility.yul\":13655:14198   */\n      pop\n      pop\n      pop\n      jump\t// out\n        /* \"#utility.yul\":14204:14321   */\n    tag_167:\n        /* \"#utility.yul\":14258:14266   */\n      0x00\n        /* \"#utility.yul\":14308:14313   */\n      dup3\n        /* \"#utility.yul\":14302:14306   */\n      dup3\n        /* \"#utility.yul\":14298:14314   */\n      shr\n        /* \"#utility.yul\":14277:14314   */\n      swap1\n      pop\n        /* \"#utility.yul\":14204:14321   */\n      swap3\n      swap2\n      pop\n      pop\n      jump\t// out\n        /* \"#utility.yul\":14327:14496   */\n    tag_168:\n        /* \"#utility.yul\":14371:14377   */\n      0x00\n        /* \"#utility.yul\":14404:14455   */\n      tag_319\n        /* \"#utility.yul\":14452:14453   */\n      0x00\n        /* \"#utility.yul\":14448:14454   */\n      not\n        /* \"#utility.yul\":14440:14445   */\n      dup5\n        /* \"#utility.yul\":14437:14438   */\n      0x08\n        /* \"#utility.yul\":14433:14446   */\n      mul\n        /* \"#utility.yul\":14404:14455   */\n      tag_167\n      jump\t// in\n    tag_319:\n        /* \"#utility.yul\":14400:14456   */\n      not\n        /* \"#utility.yul\":14485:14489   */\n      dup1\n        /* \"#utility.yul\":14479:14483   */\n      dup4\n        /* \"#utility.yul\":14475:14490   */\n      and\n        /* \"#utility.yul\":14465:14490   */\n      swap2\n      pop\n        /* \"#utility.yul\":14378:14496   */\n      pop\n        /* \"#utility.yul\":14327:14496   */\n      swap3\n      swap2\n      pop\n      pop\n      jump\t// out\n        /* \"#utility.yul\":14501:14796   */\n    tag_169:\n        /* \"#utility.yul\":14577:14581   */\n      0x00\n        /* \"#utility.yul\":14723:14752   */\n      tag_321\n        /* \"#utility.yul\":14748:14751   */\n      dup4\n        /* \"#utility.yul\":14742:14746   */\n      dup4\n        /* \"#utility.yul\":14723:14752   */\n      tag_168\n      jump\t// in\n    tag_321:\n        /* \"#utility.yul\":14715:14752   */\n      swap2\n      pop\n        /* \"#utility.yul\":14785:14788   */\n      dup3\n        /* \"#utility.yul\":14782:14783   */\n      0x02\n        /* \"#utility.yul\":14778:14789   */\n      mul\n        /* \"#utility.yul\":14772:14776   */\n      dup3\n        /* \"#utility.yul\":14769:14790   */\n      or\n        /* \"#utility.yul\":14761:14790   */\n      swap1\n      pop\n        /* \"#utility.yul\":14501:14796   */\n      swap3\n      swap2\n      pop\n      pop\n      jump\t// out\n        /* \"#utility.yul\":14801:16196   */\n    tag_114:\n        /* \"#utility.yul\":14918:14955   */\n      tag_323\n        /* \"#utility.yul\":14951:14954   */\n      dup3\n        /* \"#utility.yul\":14918:14955   */\n      tag_130\n      jump\t// in\n    tag_323:\n        /* \"#utility.yul\":15020:15038   */\n      0xffffffffffffffff\n        /* \"#utility.yul\":15012:15018   */\n      dup2\n        /* \"#utility.yul\":15009:15039   */\n      gt\n        /* \"#utility.yul\":15006:15062   */\n      iszero\n      tag_324\n      jumpi\n        /* \"#utility.yul\":15042:15060   */\n      tag_325\n      tag_137\n      jump\t// in\n    tag_325:\n        /* \"#utility.yul\":15006:15062   */\n    tag_324:\n        /* \"#utility.yul\":15086:15124   */\n      tag_326\n        /* \"#utility.yul\":15118:15122   */\n      dup3\n        /* \"#utility.yul\":15112:15123   */\n      sload\n        /* \"#utility.yul\":15086:15124   */\n      tag_86\n      jump\t// in\n    tag_326:\n        /* \"#utility.yul\":15171:15238   */\n      tag_327\n        /* \"#utility.yul\":15231:15237   */\n      dup3\n        /* \"#utility.yul\":15223:15229   */\n      dup3\n        /* \"#utility.yul\":15217:15221   */\n      dup6\n        /* \"#utility.yul\":15171:15238   */\n      tag_166\n      jump\t// in\n    tag_327:\n        /* \"#utility.yul\":15265:15266   */\n      0x00\n        /* \"#utility.yul\":15289:15293   */\n      0x20\n        /* \"#utility.yul\":15276:15293   */\n      swap1\n      pop\n        /* \"#utility.yul\":15321:15323   */\n      0x1f\n        /* \"#utility.yul\":15313:15319   */\n      dup4\n        /* \"#utility.yul\":15310:15324   */\n      gt\n        /* \"#utility.yul\":15338:15339   */\n      0x01\n        /* \"#utility.yul\":15333:15951   */\n      dup2\n      eq\n      tag_329\n      jumpi\n        /* \"#utility.yul\":15995:15996   */\n      0x00\n        /* \"#utility.yul\":16012:16018   */\n      dup5\n        /* \"#utility.yul\":16009:16086   */\n      iszero\n      tag_330\n      jumpi\n        /* \"#utility.yul\":16061:16070   */\n      dup3\n        /* \"#utility.yul\":16056:16059   */\n      dup8\n        /* \"#utility.yul\":16052:16071   */\n      add\n        /* \"#utility.yul\":16046:16072   */\n      mload\n        /* \"#utility.yul\":16037:16072   */\n      swap1\n      pop\n        /* \"#utility.yul\":16009:16086   */\n    tag_330:\n        /* \"#utility.yul\":16112:16179   */\n      tag_331\n        /* \"#utility.yul\":16172:16178   */\n      dup6\n        /* \"#utility.yul\":16165:16170   */\n      dup3\n        /* \"#utility.yul\":16112:16179   */\n      tag_169\n      jump\t// in\n    tag_331:\n        /* \"#utility.yul\":16106:16110   */\n      dup7\n        /* \"#utility.yul\":16099:16180   */\n      sstore\n        /* \"#utility.yul\":15968:16190   */\n      pop\n        /* \"#utility.yul\":15303:16190   */\n      jump(tag_328)\n        /* \"#utility.yul\":15333:15951   */\n    tag_329:\n        /* \"#utility.yul\":15385:15389   */\n      0x1f\n        /* \"#utility.yul\":15381:15390   */\n      not\n        /* \"#utility.yul\":15373:15379   */\n      dup5\n        /* \"#utility.yul\":15369:15391   */\n      and\n        /* \"#utility.yul\":15419:15456   */\n      tag_332\n        /* \"#utility.yul\":15451:15455   */\n      dup7\n        /* \"#utility.yul\":15419:15456   */\n      tag_155\n      jump\t// in\n    tag_332:\n        /* \"#utility.yul\":15478:15479   */\n      0x00\n        /* \"#utility.yul\":15492:15700   */\n    tag_333:\n        /* \"#utility.yul\":15506:15513   */\n      dup3\n        /* \"#utility.yul\":15503:15504   */\n      dup2\n        /* \"#utility.yul\":15500:15514   */\n      lt\n        /* \"#utility.yul\":15492:15700   */\n      iszero\n      tag_335\n      jumpi\n        /* \"#utility.yul\":15585:15594   */\n      dup5\n        /* \"#utility.yul\":15580:15583   */\n      dup10\n        /* \"#utility.yul\":15576:15595   */\n      add\n        /* \"#utility.yul\":15570:15596   */\n      mload\n        /* \"#utility.yul\":15562:15568   */\n      dup3\n        /* \"#utility.yul\":15555:15597   */\n      sstore\n        /* \"#utility.yul\":15636:15637   */\n      0x01\n        /* \"#utility.yul\":15628:15634   */\n      dup3\n        /* \"#utility.yul\":15624:15638   */\n      add\n        /* \"#utility.yul\":15614:15638   */\n      swap2\n      pop\n        /* \"#utility.yul\":15683:15685   */\n      0x20\n        /* \"#utility.yul\":15672:15681   */\n      dup6\n        /* \"#utility.yul\":15668:15686   */\n      add\n        /* \"#utility.yul\":15655:15686   */\n      swap5\n      pop\n        /* \"#utility.yul\":15529:15533   */\n      0x20\n        /* \"#utility.yul\":15526:15527   */\n      dup2\n        /* \"#utility.yul\":15522:15534   */\n      add\n        /* \"#utility.yul\":15517:15534   */\n      swap1\n      pop\n        /* \"#utility.yul\":15492:15700   */\n      jump(tag_333)\n    tag_335:\n        /* \"#utility.yul\":15728:15734   */\n      dup7\n        /* \"#utility.yul\":15719:15726   */\n      dup4\n        /* \"#utility.yul\":15716:15735   */\n      lt\n        /* \"#utility.yul\":15713:15892   */\n      iszero\n      tag_336\n      jumpi\n        /* \"#utility.yul\":15786:15795   */\n      dup5\n        /* \"#utility.yul\":15781:15784   */\n      dup10\n        /* \"#utility.yul\":15777:15796   */\n      add\n        /* \"#utility.yul\":15771:15797   */\n      mload\n        /* \"#utility.yul\":15829:15877   */\n      tag_337\n        /* \"#utility.yul\":15871:15875   */\n      0x1f\n        /* \"#utility.yul\":15863:15869   */\n      dup10\n        /* \"#utility.yul\":15859:15876   */\n      and\n        /* \"#utility.yul\":15848:15857   */\n      dup3\n        /* \"#utility.yul\":15829:15877   */\n      tag_168\n      jump\t// in\n    tag_337:\n        /* \"#utility.yul\":15821:15827   */\n      dup4\n        /* \"#utility.yul\":15814:15878   */\n      sstore\n        /* \"#utility.yul\":15736:15892   */\n      pop\n        /* \"#utility.yul\":15713:15892   */\n    tag_336:\n        /* \"#utility.yul\":15938:15939   */\n      0x01\n        /* \"#utility.yul\":15934:15935   */\n      0x02\n        /* \"#utility.yul\":15926:15932   */\n      dup9\n        /* \"#utility.yul\":15922:15936   */\n      mul\n        /* \"#utility.yul\":15918:15940   */\n      add\n        /* \"#utility.yul\":15912:15916   */\n      dup9\n        /* \"#utility.yul\":15905:15941   */\n      sstore\n        /* \"#utility.yul\":15340:15951   */\n      pop\n      pop\n      pop\n        /* \"#utility.yul\":15303:16190   */\n    tag_328:\n      pop\n        /* \"#utility.yul\":14893:16196   */\n      pop\n      pop\n      pop\n        /* \"#utility.yul\":14801:16196   */\n      pop\n      pop\n      jump\t// out\n\n    auxdata: 0xa2646970667358221220ea721c264650b873e4ae53470de69d959c010ba66668c0e507cb837bb4bb703d64736f6c63430008190033\n}\n",
				"bytecode": {
					"linkReferences": {},
					"object": "608060405234801561000f575f80fd5b50335f806101000a81548173ffffffffffffffffffffffffffffffffffffffff021916908373ffffffffffffffffffffffffffffffffffffffff1602179055506001805f3373ffffffffffffffffffffffffffffffffffffffff1673ffffffffffffffffffffffffffffffffffffffff1681526020019081526020015f205f6101000a81548160ff0219169083151502179055503373ffffffffffffffffffffffffffffffffffffffff167f235bc17e7930760029e9f4d860a2a8089976de5b381cf8380fc11c1d88a1113360016040516100ea9190610111565b60405180910390a261012a565b5f8115159050919050565b61010b816100f7565b82525050565b5f6020820190506101245f830184610102565b92915050565b61139b806101375f395ff3fe608060405234801561000f575f80fd5b50600436106100cd575f3560e01c806338db6dd31161008a578063462e91ec11610064578063462e91ec1461021f578063a3ec138d1461024f578063a9a981a31461027f578063f851a4401461029d576100cd565b806338db6dd3146101b75780633c3a220d146101d35780633eb76b9c14610203576100cd565b80630ba8afa3146100d157806324d7806c146101015780632d3456701461013157806330a563471461014d5780633477ee2e1461016b57806335bb3e161461019b575b5f80fd5b6100eb60048036038101906100e69190610ae0565b6102bb565b6040516100f89190610b1a565b60405180910390f35b61011b60048036038101906101169190610b8d565b610325565b6040516101289190610bd2565b60405180910390f35b61014b60048036038101906101469190610b8d565b610342565b005b6101556104fd565b6040516101629190610b1a565b60405180910390f35b61018560048036038101906101809190610ae0565b610506565b6040516101929190610c5b565b60405180910390f35b6101b560048036038101906101b09190610b8d565b6105a1565b005b6101d160048036038101906101cc9190610b8d565b6106d0565b005b6101ed60048036038101906101e89190610ae0565b6107f4565b6040516101fa9190610b1a565b60405180910390f35b61021d60048036038101906102189190610ae0565b610809565b005b61023960048036038101906102349190610da7565b61094f565b6040516102469190610b1a565b60405180910390f35b61026960048036038101906102649190610b8d565b610a56565b6040516102769190610bd2565b60405180910390f35b610287610a73565b6040516102949190610b1a565b60405180910390f35b6102a5610a79565b6040516102b29190610dfd565b60405180910390f35b5f80821180156102cd57506005548211155b61030c576040517f08c379a000000000000000000000000000000000000000000000000000000000815260040161030390610e60565b60405180910390fd5b60045f8381526020019081526020015f20549050919050565b6001602052805f5260405f205f915054906101000a900460ff1681565b60015f3373ffffffffffffffffffffffffffffffffffffffff1673ffffffffffffffffffffffffffffffffffffffff1681526020019081526020015f205f9054906101000a900460ff166103cb576040517f08c379a00000000000000000000000000000000000000000000000000000000081526004016103c290610eee565b60405180910390fd5b5f8054906101000a900473ffffffffffffffffffffffffffffffffffffffff1673ffffffffffffffffffffffffffffffffffffffff168173ffffffffffffffffffffffffffffffffffffffff1603610458576040517f08c379a000000000000000000000000000000000000000000000000000000000815260040161044f90610f7c565b60405180910390fd5b5f60015f8373ffffffffffffffffffffffffffffffffffffffff1673ffffffffffffffffffffffffffffffffffffffff1681526020019081526020015f205f6101000a81548160ff0219169083151502179055508073ffffffffffffffffffffffffffffffffffffffff167f235bc17e7930760029e9f4d860a2a8089976de5b381cf8380fc11c1d88a111335f6040516104f29190610bd2565b60405180910390a250565b5f600554905090565b6002602052805f5260405f205f91509050805461052290610fc7565b80601f016020809104026020016040519081016040528092919081815260200182805461054e90610fc7565b80156105995780601f1061057057610100808354040283529160200191610599565b820191905f5260205f20905b81548152906001019060200180831161057c57829003601f168201915b505050505081565b60015f3373ffffffffffffffffffffffffffffffffffffffff1673ffffffffffffffffffffffffffffffffffffffff1681526020019081526020015f205f9054906101000a900460ff1661062a576040517f08c379a000000000000000000000000000000000000000000000000000000000815260040161062190610eee565b60405180910390fd5b6001805f8373ffffffffffffffffffffffffffffffffffffffff1673ffffffffffffffffffffffffffffffffffffffff1681526020019081526020015f205f6101000a81548160ff0219169083151502179055508073ffffffffffffffffffffffffffffffffffffffff167f235bc17e7930760029e9f4d860a2a8089976de5b381cf8380fc11c1d88a1113360016040516106c59190610bd2565b60405180910390a250565b60015f3373ffffffffffffffffffffffffffffffffffffffff1673ffffffffffffffffffffffffffffffffffffffff1681526020019081526020015f205f9054906101000a900460ff16610759576040517f08c379a000000000000000000000000000000000000000000000000000000000815260040161075090610eee565b60405180910390fd5b600160035f8373ffffffffffffffffffffffffffffffffffffffff1673ffffffffffffffffffffffffffffffffffffffff1681526020019081526020015f205f6101000a81548160ff0219169083151502179055508073ffffffffffffffffffffffffffffffffffffffff167fb6be2187d059cc2a55fe29e0e503b566e1e0f8c8780096e185429350acffd3dd60405160405180910390a250565b6004602052805f5260405f205f915090505481565b60035f3373ffffffffffffffffffffffffffffffffffffffff1673ffffffffffffffffffffffffffffffffffffffff1681526020019081526020015f205f9054906101000a900460ff16610892576040517f08c379a000000000000000000000000000000000000000000000000000000000815260040161088990611067565b60405180910390fd5b5f811180156108a357506005548111155b6108e2576040517f08c379a00000000000000000000000000000000000000000000000000000000081526004016108d990610e60565b60405180910390fd5b60045f8281526020019081526020015f205f815480929190610903906110b2565b91905055503373ffffffffffffffffffffffffffffffffffffffff16817ff1003b73c437642c0460aee9cd9628b0b8c447b66e6c7c905531b9c644214a1160405160405180910390a350565b5f60015f3373ffffffffffffffffffffffffffffffffffffffff1673ffffffffffffffffffffffffffffffffffffffff1681526020019081526020015f205f9054906101000a900460ff166109d9576040517f08c379a00000000000000000000000000000000000000000000000000000000081526004016109d090610eee565b60405180910390fd5b5f60055490508260025f8381526020019081526020015f2090816109fd9190611296565b5060055f815480929190610a10906110b2565b9190505550807fe83b2a43e7e82d975c8a0a6d2f045153c869e111136a34d1889ab7b598e396a384604051610a459190610c5b565b60405180910390a280915050919050565b6003602052805f5260405f205f915054906101000a900460ff1681565b60055481565b5f8054906101000a900473ffffffffffffffffffffffffffffffffffffffff1681565b5f604051905090565b5f80fd5b5f80fd5b5f819050919050565b610abf81610aad565b8114610ac9575f80fd5b50565b5f81359050610ada81610ab6565b92915050565b5f60208284031215610af557610af4610aa5565b5b5f610b0284828501610acc565b91505092915050565b610b1481610aad565b82525050565b5f602082019050610b2d5f830184610b0b565b92915050565b5f73ffffffffffffffffffffffffffffffffffffffff82169050919050565b5f610b5c82610b33565b9050919050565b610b6c81610b52565b8114610b76575f80fd5b50565b5f81359050610b8781610b63565b92915050565b5f60208284031215610ba257610ba1610aa5565b5b5f610baf84828501610b79565b91505092915050565b5f8115159050919050565b610bcc81610bb8565b82525050565b5f602082019050610be55f830184610bc3565b92915050565b5f81519050919050565b5f82825260208201905092915050565b8281835e5f83830152505050565b5f601f19601f8301169050919050565b5f610c2d82610beb565b610c378185610bf5565b9350610c47818560208601610c05565b610c5081610c13565b840191505092915050565b5f6020820190508181035f830152610c738184610c23565b905092915050565b5f80fd5b5f80fd5b7f4e487b71000000000000000000000000000000000000000000000000000000005f52604160045260245ffd5b610cb982610c13565b810181811067ffffffffffffffff82111715610cd857610cd7610c83565b5b80604052505050565b5f610cea610a9c565b9050610cf68282610cb0565b919050565b5f67ffffffffffffffff821115610d1557610d14610c83565b5b610d1e82610c13565b9050602081019050919050565b828183375f83830152505050565b5f610d4b610d4684610cfb565b610ce1565b905082815260208101848484011115610d6757610d66610c7f565b5b610d72848285610d2b565b509392505050565b5f82601f830112610d8e57610d8d610c7b565b5b8135610d9e848260208601610d39565b91505092915050565b5f60208284031215610dbc57610dbb610aa5565b5b5f82013567ffffffffffffffff811115610dd957610dd8610aa9565b5b610de584828501610d7a565b91505092915050565b610df781610b52565b82525050565b5f602082019050610e105f830184610dee565b92915050565b7f496e76616c69642063616e6469646174652049440000000000000000000000005f82015250565b5f610e4a601483610bf5565b9150610e5582610e16565b602082019050919050565b5f6020820190508181035f830152610e7781610e3e565b9050919050565b7f4f6e6c792061646d696e2063616e2063616c6c20746869732066756e6374696f5f8201527f6e00000000000000000000000000000000000000000000000000000000000000602082015250565b5f610ed8602183610bf5565b9150610ee382610e7e565b604082019050919050565b5f6020820190508181035f830152610f0581610ecc565b9050919050565b7f43616e6e6f74207265766f6b652061646d696e2070726976696c6567657320665f8201527f726f6d20746865206d61696e2061646d696e0000000000000000000000000000602082015250565b5f610f66603283610bf5565b9150610f7182610f0c565b604082019050919050565b5f6020820190508181035f830152610f9381610f5a565b9050919050565b7f4e487b71000000000000000000000000000000000000000000000000000000005f52602260045260245ffd5b5f6002820490506001821680610fde57607f821691505b602082108103610ff157610ff0610f9a565b5b50919050565b7f4f6e6c79207265676973746572656420766f746572732063616e2063617374205f8201527f766f746573000000000000000000000000000000000000000000000000000000602082015250565b5f611051602583610bf5565b915061105c82610ff7565b604082019050919050565b5f6020820190508181035f83015261107e81611045565b9050919050565b7f4e487b71000000000000000000000000000000000000000000000000000000005f52601160045260245ffd5b5f6110bc82610aad565b91507fffffffffffffffffffffffffffffffffffffffffffffffffffffffffffffffff82036110ee576110ed611085565b5b600182019050919050565b5f819050815f5260205f209050919050565b5f6020601f8301049050919050565b5f82821b905092915050565b5f600883026111557fffffffffffffffffffffffffffffffffffffffffffffffffffffffffffffffff8261111a565b61115f868361111a565b95508019841693508086168417925050509392505050565b5f819050919050565b5f61119a61119561119084610aad565b611177565b610aad565b9050919050565b5f819050919050565b6111b383611180565b6111c76111bf826111a1565b848454611126565b825550505050565b5f90565b6111db6111cf565b6111e68184846111aa565b505050565b5b81811015611209576111fe5f826111d3565b6001810190506111ec565b5050565b601f82111561124e5761121f816110f9565b6112288461110b565b81016020851015611237578190505b61124b6112438561110b565b8301826111eb565b50505b505050565b5f82821c905092915050565b5f61126e5f1984600802611253565b1980831691505092915050565b5f611286838361125f565b9150826002028217905092915050565b61129f82610beb565b67ffffffffffffffff8111156112b8576112b7610c83565b5b6112c28254610fc7565b6112cd82828561120d565b5f60209050601f8311600181146112fe575f84156112ec578287015190505b6112f6858261127b565b86555061135d565b601f19841661130c866110f9565b5f5b828110156113335784890151825560018201915060208501945060208101905061130e565b86831015611350578489015161134c601f89168261125f565b8355505b6001600288020188555050505b50505050505056fea2646970667358221220ea721c264650b873e4ae53470de69d959c010ba66668c0e507cb837bb4bb703d64736f6c63430008190033",
					"opcodes": "PUSH1 0x80 PUSH1 0x40 MSTORE CALLVALUE DUP1 ISZERO PUSH2 0xF JUMPI PUSH0 DUP1 REVERT JUMPDEST POP CALLER PUSH0 DUP1 PUSH2 0x100 EXP DUP2 SLOAD DUP2 PUSH20 0xFFFFFFFFFFFFFFFFFFFFFFFFFFFFFFFFFFFFFFFF MUL NOT AND SWAP1 DUP4 PUSH20 0xFFFFFFFFFFFFFFFFFFFFFFFFFFFFFFFFFFFFFFFF AND MUL OR SWAP1 SSTORE POP PUSH1 0x1 DUP1 PUSH0 CALLER PUSH20 0xFFFFFFFFFFFFFFFFFFFFFFFFFFFFFFFFFFFFFFFF AND PUSH20 0xFFFFFFFFFFFFFFFFFFFFFFFFFFFFFFFFFFFFFFFF AND DUP2 MSTORE PUSH1 0x20 ADD SWAP1 DUP2 MSTORE PUSH1 0x20 ADD PUSH0 KECCAK256 PUSH0 PUSH2 0x100 EXP DUP2 SLOAD DUP2 PUSH1 0xFF MUL NOT AND SWAP1 DUP4 ISZERO ISZERO MUL OR SWAP1 SSTORE POP CALLER PUSH20 0xFFFFFFFFFFFFFFFFFFFFFFFFFFFFFFFFFFFFFFFF AND PUSH32 0x235BC17E7930760029E9F4D860A2A8089976DE5B381CF8380FC11C1D88A11133 PUSH1 0x1 PUSH1 0x40 MLOAD PUSH2 0xEA SWAP2 SWAP1 PUSH2 0x111 JUMP JUMPDEST PUSH1 0x40 MLOAD DUP1 SWAP2 SUB SWAP1 LOG2 PUSH2 0x12A JUMP JUMPDEST PUSH0 DUP2 ISZERO ISZERO SWAP1 POP SWAP2 SWAP1 POP JUMP JUMPDEST PUSH2 0x10B DUP2 PUSH2 0xF7 JUMP JUMPDEST DUP3 MSTORE POP POP JUMP JUMPDEST PUSH0 PUSH1 0x20 DUP3 ADD SWAP1 POP PUSH2 0x124 PUSH0 DUP4 ADD DUP5 PUSH2 0x102 JUMP JUMPDEST SWAP3 SWAP2 POP POP JUMP JUMPDEST PUSH2 0x139B DUP1 PUSH2 0x137 PUSH0 CODECOPY PUSH0 RETURN INVALID PUSH1 0x80 PUSH1 0x40 MSTORE CALLVALUE DUP1 ISZERO PUSH2 0xF JUMPI PUSH0 DUP1 REVERT JUMPDEST POP PUSH1 0x4 CALLDATASIZE LT PUSH2 0xCD JUMPI PUSH0 CALLDATALOAD PUSH1 0xE0 SHR DUP1 PUSH4 0x38DB6DD3 GT PUSH2 0x8A JUMPI DUP1 PUSH4 0x462E91EC GT PUSH2 0x64 JUMPI DUP1 PUSH4 0x462E91EC EQ PUSH2 0x21F JUMPI DUP1 PUSH4 0xA3EC138D EQ PUSH2 0x24F JUMPI DUP1 PUSH4 0xA9A981A3 EQ PUSH2 0x27F JUMPI DUP1 PUSH4 0xF851A440 EQ PUSH2 0x29D JUMPI PUSH2 0xCD JUMP JUMPDEST DUP1 PUSH4 0x38DB6DD3 EQ PUSH2 0x1B7 JUMPI DUP1 PUSH4 0x3C3A220D EQ PUSH2 0x1D3 JUMPI DUP1 PUSH4 0x3EB76B9C EQ PUSH2 0x203 JUMPI PUSH2 0xCD JUMP JUMPDEST DUP1 PUSH4 0xBA8AFA3 EQ PUSH2 0xD1 JUMPI DUP1 PUSH4 0x24D7806C EQ PUSH2 0x101 JUMPI DUP1 PUSH4 0x2D345670 EQ PUSH2 0x131 JUMPI DUP1 PUSH4 0x30A56347 EQ PUSH2 0x14D JUMPI DUP1 PUSH4 0x3477EE2E EQ PUSH2 0x16B JUMPI DUP1 PUSH4 0x35BB3E16 EQ PUSH2 0x19B JUMPI JUMPDEST PUSH0 DUP1 REVERT JUMPDEST PUSH2 0xEB PUSH1 0x4 DUP1 CALLDATASIZE SUB DUP2 ADD SWAP1 PUSH2 0xE6 SWAP2 SWAP1 PUSH2 0xAE0 JUMP JUMPDEST PUSH2 0x2BB JUMP JUMPDEST PUSH1 0x40 MLOAD PUSH2 0xF8 SWAP2 SWAP1 PUSH2 0xB1A JUMP JUMPDEST PUSH1 0x40 MLOAD DUP1 SWAP2 SUB SWAP1 RETURN JUMPDEST PUSH2 0x11B PUSH1 0x4 DUP1 CALLDATASIZE SUB DUP2 ADD SWAP1 PUSH2 0x116 SWAP2 SWAP1 PUSH2 0xB8D JUMP JUMPDEST PUSH2 0x325 JUMP JUMPDEST PUSH1 0x40 MLOAD PUSH2 0x128 SWAP2 SWAP1 PUSH2 0xBD2 JUMP JUMPDEST PUSH1 0x40 MLOAD DUP1 SWAP2 SUB SWAP1 RETURN JUMPDEST PUSH2 0x14B PUSH1 0x4 DUP1 CALLDATASIZE SUB DUP2 ADD SWAP1 PUSH2 0x146 SWAP2 SWAP1 PUSH2 0xB8D JUMP JUMPDEST PUSH2 0x342 JUMP JUMPDEST STOP JUMPDEST PUSH2 0x155 PUSH2 0x4FD JUMP JUMPDEST PUSH1 0x40 MLOAD PUSH2 0x162 SWAP2 SWAP1 PUSH2 0xB1A JUMP JUMPDEST PUSH1 0x40 MLOAD DUP1 SWAP2 SUB SWAP1 RETURN JUMPDEST PUSH2 0x185 PUSH1 0x4 DUP1 CALLDATASIZE SUB DUP2 ADD SWAP1 PUSH2 0x180 SWAP2 SWAP1 PUSH2 0xAE0 JUMP JUMPDEST PUSH2 0x506 JUMP JUMPDEST PUSH1 0x40 MLOAD PUSH2 0x192 SWAP2 SWAP1 PUSH2 0xC5B JUMP JUMPDEST PUSH1 0x40 MLOAD DUP1 SWAP2 SUB SWAP1 RETURN JUMPDEST PUSH2 0x1B5 PUSH1 0x4 DUP1 CALLDATASIZE SUB DUP2 ADD SWAP1 PUSH2 0x1B0 SWAP2 SWAP1 PUSH2 0xB8D JUMP JUMPDEST PUSH2 0x5A1 JUMP JUMPDEST STOP JUMPDEST PUSH2 0x1D1 PUSH1 0x4 DUP1 CALLDATASIZE SUB DUP2 ADD SWAP1 PUSH2 0x1CC SWAP2 SWAP1 PUSH2 0xB8D JUMP JUMPDEST PUSH2 0x6D0 JUMP JUMPDEST STOP JUMPDEST PUSH2 0x1ED PUSH1 0x4 DUP1 CALLDATASIZE SUB DUP2 ADD SWAP1 PUSH2 0x1E8 SWAP2 SWAP1 PUSH2 0xAE0 JUMP JUMPDEST PUSH2 0x7F4 JUMP JUMPDEST PUSH1 0x40 MLOAD PUSH2 0x1FA SWAP2 SWAP1 PUSH2 0xB1A JUMP JUMPDEST PUSH1 0x40 MLOAD DUP1 SWAP2 SUB SWAP1 RETURN JUMPDEST PUSH2 0x21D PUSH1 0x4 DUP1 CALLDATASIZE SUB DUP2 ADD SWAP1 PUSH2 0x218 SWAP2 SWAP1 PUSH2 0xAE0 JUMP JUMPDEST PUSH2 0x809 JUMP JUMPDEST STOP JUMPDEST PUSH2 0x239 PUSH1 0x4 DUP1 CALLDATASIZE SUB DUP2 ADD SWAP1 PUSH2 0x234 SWAP2 SWAP1 PUSH2 0xDA7 JUMP JUMPDEST PUSH2 0x94F JUMP JUMPDEST PUSH1 0x40 MLOAD PUSH2 0x246 SWAP2 SWAP1 PUSH2 0xB1A JUMP JUMPDEST PUSH1 0x40 MLOAD DUP1 SWAP2 SUB SWAP1 RETURN JUMPDEST PUSH2 0x269 PUSH1 0x4 DUP1 CALLDATASIZE SUB DUP2 ADD SWAP1 PUSH2 0x264 SWAP2 SWAP1 PUSH2 0xB8D JUMP JUMPDEST PUSH2 0xA56 JUMP JUMPDEST PUSH1 0x40 MLOAD PUSH2 0x276 SWAP2 SWAP1 PUSH2 0xBD2 JUMP JUMPDEST PUSH1 0x40 MLOAD DUP1 SWAP2 SUB SWAP1 RETURN JUMPDEST PUSH2 0x287 PUSH2 0xA73 JUMP JUMPDEST PUSH1 0x40 MLOAD PUSH2 0x294 SWAP2 SWAP1 PUSH2 0xB1A JUMP JUMPDEST PUSH1 0x40 MLOAD DUP1 SWAP2 SUB SWAP1 RETURN JUMPDEST PUSH2 0x2A5 PUSH2 0xA79 JUMP JUMPDEST PUSH1 0x40 MLOAD PUSH2 0x2B2 SWAP2 SWAP1 PUSH2 0xDFD JUMP JUMPDEST PUSH1 0x40 MLOAD DUP1 SWAP2 SUB SWAP1 RETURN JUMPDEST PUSH0 DUP1 DUP3 GT DUP1 ISZERO PUSH2 0x2CD JUMPI POP PUSH1 0x5 SLOAD DUP3 GT ISZERO JUMPDEST PUSH2 0x30C JUMPI PUSH1 0x40 MLOAD PUSH32 0x8C379A000000000000000000000000000000000000000000000000000000000 DUP2 MSTORE PUSH1 0x4 ADD PUSH2 0x303 SWAP1 PUSH2 0xE60 JUMP JUMPDEST PUSH1 0x40 MLOAD DUP1 SWAP2 SUB SWAP1 REVERT JUMPDEST PUSH1 0x4 PUSH0 DUP4 DUP2 MSTORE PUSH1 0x20 ADD SWAP1 DUP2 MSTORE PUSH1 0x20 ADD PUSH0 KECCAK256 SLOAD SWAP1 POP SWAP2 SWAP1 POP JUMP JUMPDEST PUSH1 0x1 PUSH1 0x20 MSTORE DUP1 PUSH0 MSTORE PUSH1 0x40 PUSH0 KECCAK256 PUSH0 SWAP2 POP SLOAD SWAP1 PUSH2 0x100 EXP SWAP1 DIV PUSH1 0xFF AND DUP2 JUMP JUMPDEST PUSH1 0x1 PUSH0 CALLER PUSH20 0xFFFFFFFFFFFFFFFFFFFFFFFFFFFFFFFFFFFFFFFF AND PUSH20 0xFFFFFFFFFFFFFFFFFFFFFFFFFFFFFFFFFFFFFFFF AND DUP2 MSTORE PUSH1 0x20 ADD SWAP1 DUP2 MSTORE PUSH1 0x20 ADD PUSH0 KECCAK256 PUSH0 SWAP1 SLOAD SWAP1 PUSH2 0x100 EXP SWAP1 DIV PUSH1 0xFF AND PUSH2 0x3CB JUMPI PUSH1 0x40 MLOAD PUSH32 0x8C379A000000000000000000000000000000000000000000000000000000000 DUP2 MSTORE PUSH1 0x4 ADD PUSH2 0x3C2 SWAP1 PUSH2 0xEEE JUMP JUMPDEST PUSH1 0x40 MLOAD DUP1 SWAP2 SUB SWAP1 REVERT JUMPDEST PUSH0 DUP1 SLOAD SWAP1 PUSH2 0x100 EXP SWAP1 DIV PUSH20 0xFFFFFFFFFFFFFFFFFFFFFFFFFFFFFFFFFFFFFFFF AND PUSH20 0xFFFFFFFFFFFFFFFFFFFFFFFFFFFFFFFFFFFFFFFF AND DUP2 PUSH20 0xFFFFFFFFFFFFFFFFFFFFFFFFFFFFFFFFFFFFFFFF AND SUB PUSH2 0x458 JUMPI PUSH1 0x40 MLOAD PUSH32 0x8C379A000000000000000000000000000000000000000000000000000000000 DUP2 MSTORE PUSH1 0x4 ADD PUSH2 0x44F SWAP1 PUSH2 0xF7C JUMP JUMPDEST PUSH1 0x40 MLOAD DUP1 SWAP2 SUB SWAP1 REVERT JUMPDEST PUSH0 PUSH1 0x1 PUSH0 DUP4 PUSH20 0xFFFFFFFFFFFFFFFFFFFFFFFFFFFFFFFFFFFFFFFF AND PUSH20 0xFFFFFFFFFFFFFFFFFFFFFFFFFFFFFFFFFFFFFFFF AND DUP2 MSTORE PUSH1 0x20 ADD SWAP1 DUP2 MSTORE PUSH1 0x20 ADD PUSH0 KECCAK256 PUSH0 PUSH2 0x100 EXP DUP2 SLOAD DUP2 PUSH1 0xFF MUL NOT AND SWAP1 DUP4 ISZERO ISZERO MUL OR SWAP1 SSTORE POP DUP1 PUSH20 0xFFFFFFFFFFFFFFFFFFFFFFFFFFFFFFFFFFFFFFFF AND PUSH32 0x235BC17E7930760029E9F4D860A2A8089976DE5B381CF8380FC11C1D88A11133 PUSH0 PUSH1 0x40 MLOAD PUSH2 0x4F2 SWAP2 SWAP1 PUSH2 0xBD2 JUMP JUMPDEST PUSH1 0x40 MLOAD DUP1 SWAP2 SUB SWAP1 LOG2 POP JUMP JUMPDEST PUSH0 PUSH1 0x5 SLOAD SWAP1 POP SWAP1 JUMP JUMPDEST PUSH1 0x2 PUSH1 0x20 MSTORE DUP1 PUSH0 MSTORE PUSH1 0x40 PUSH0 KECCAK256 PUSH0 SWAP2 POP SWAP1 POP DUP1 SLOAD PUSH2 0x522 SWAP1 PUSH2 0xFC7 JUMP JUMPDEST DUP1 PUSH1 0x1F ADD PUSH1 0x20 DUP1 SWAP2 DIV MUL PUSH1 0x20 ADD PUSH1 0x40 MLOAD SWAP1 DUP2 ADD PUSH1 0x40 MSTORE DUP1 SWAP3 SWAP2 SWAP1 DUP2 DUP2 MSTORE PUSH1 0x20 ADD DUP3 DUP1 SLOAD PUSH2 0x54E SWAP1 PUSH2 0xFC7 JUMP JUMPDEST DUP1 ISZERO PUSH2 0x599 JUMPI DUP1 PUSH1 0x1F LT PUSH2 0x570 JUMPI PUSH2 0x100 DUP1 DUP4 SLOAD DIV MUL DUP4 MSTORE SWAP2 PUSH1 0x20 ADD SWAP2 PUSH2 0x599 JUMP JUMPDEST DUP3 ADD SWAP2 SWAP1 PUSH0 MSTORE PUSH1 0x20 PUSH0 KECCAK256 SWAP1 JUMPDEST DUP2 SLOAD DUP2 MSTORE SWAP1 PUSH1 0x1 ADD SWAP1 PUSH1 0x20 ADD DUP1 DUP4 GT PUSH2 0x57C JUMPI DUP3 SWAP1 SUB PUSH1 0x1F AND DUP3 ADD SWAP2 JUMPDEST POP POP POP POP POP DUP2 JUMP JUMPDEST PUSH1 0x1 PUSH0 CALLER PUSH20 0xFFFFFFFFFFFFFFFFFFFFFFFFFFFFFFFFFFFFFFFF AND PUSH20 0xFFFFFFFFFFFFFFFFFFFFFFFFFFFFFFFFFFFFFFFF AND DUP2 MSTORE PUSH1 0x20 ADD SWAP1 DUP2 MSTORE PUSH1 0x20 ADD PUSH0 KECCAK256 PUSH0 SWAP1 SLOAD SWAP1 PUSH2 0x100 EXP SWAP1 DIV PUSH1 0xFF AND PUSH2 0x62A JUMPI PUSH1 0x40 MLOAD PUSH32 0x8C379A000000000000000000000000000000000000000000000000000000000 DUP2 MSTORE PUSH1 0x4 ADD PUSH2 0x621 SWAP1 PUSH2 0xEEE JUMP JUMPDEST PUSH1 0x40 MLOAD DUP1 SWAP2 SUB SWAP1 REVERT JUMPDEST PUSH1 0x1 DUP1 PUSH0 DUP4 PUSH20 0xFFFFFFFFFFFFFFFFFFFFFFFFFFFFFFFFFFFFFFFF AND PUSH20 0xFFFFFFFFFFFFFFFFFFFFFFFFFFFFFFFFFFFFFFFF AND DUP2 MSTORE PUSH1 0x20 ADD SWAP1 DUP2 MSTORE PUSH1 0x20 ADD PUSH0 KECCAK256 PUSH0 PUSH2 0x100 EXP DUP2 SLOAD DUP2 PUSH1 0xFF MUL NOT AND SWAP1 DUP4 ISZERO ISZERO MUL OR SWAP1 SSTORE POP DUP1 PUSH20 0xFFFFFFFFFFFFFFFFFFFFFFFFFFFFFFFFFFFFFFFF AND PUSH32 0x235BC17E7930760029E9F4D860A2A8089976DE5B381CF8380FC11C1D88A11133 PUSH1 0x1 PUSH1 0x40 MLOAD PUSH2 0x6C5 SWAP2 SWAP1 PUSH2 0xBD2 JUMP JUMPDEST PUSH1 0x40 MLOAD DUP1 SWAP2 SUB SWAP1 LOG2 POP JUMP JUMPDEST PUSH1 0x1 PUSH0 CALLER PUSH20 0xFFFFFFFFFFFFFFFFFFFFFFFFFFFFFFFFFFFFFFFF AND PUSH20 0xFFFFFFFFFFFFFFFFFFFFFFFFFFFFFFFFFFFFFFFF AND DUP2 MSTORE PUSH1 0x20 ADD SWAP1 DUP2 MSTORE PUSH1 0x20 ADD PUSH0 KECCAK256 PUSH0 SWAP1 SLOAD SWAP1 PUSH2 0x100 EXP SWAP1 DIV PUSH1 0xFF AND PUSH2 0x759 JUMPI PUSH1 0x40 MLOAD PUSH32 0x8C379A000000000000000000000000000000000000000000000000000000000 DUP2 MSTORE PUSH1 0x4 ADD PUSH2 0x750 SWAP1 PUSH2 0xEEE JUMP JUMPDEST PUSH1 0x40 MLOAD DUP1 SWAP2 SUB SWAP1 REVERT JUMPDEST PUSH1 0x1 PUSH1 0x3 PUSH0 DUP4 PUSH20 0xFFFFFFFFFFFFFFFFFFFFFFFFFFFFFFFFFFFFFFFF AND PUSH20 0xFFFFFFFFFFFFFFFFFFFFFFFFFFFFFFFFFFFFFFFF AND DUP2 MSTORE PUSH1 0x20 ADD SWAP1 DUP2 MSTORE PUSH1 0x20 ADD PUSH0 KECCAK256 PUSH0 PUSH2 0x100 EXP DUP2 SLOAD DUP2 PUSH1 0xFF MUL NOT AND SWAP1 DUP4 ISZERO ISZERO MUL OR SWAP1 SSTORE POP DUP1 PUSH20 0xFFFFFFFFFFFFFFFFFFFFFFFFFFFFFFFFFFFFFFFF AND PUSH32 0xB6BE2187D059CC2A55FE29E0E503B566E1E0F8C8780096E185429350ACFFD3DD PUSH1 0x40 MLOAD PUSH1 0x40 MLOAD DUP1 SWAP2 SUB SWAP1 LOG2 POP JUMP JUMPDEST PUSH1 0x4 PUSH1 0x20 MSTORE DUP1 PUSH0 MSTORE PUSH1 0x40 PUSH0 KECCAK256 PUSH0 SWAP2 POP SWAP1 POP SLOAD DUP2 JUMP JUMPDEST PUSH1 0x3 PUSH0 CALLER PUSH20 0xFFFFFFFFFFFFFFFFFFFFFFFFFFFFFFFFFFFFFFFF AND PUSH20 0xFFFFFFFFFFFFFFFFFFFFFFFFFFFFFFFFFFFFFFFF AND DUP2 MSTORE PUSH1 0x20 ADD SWAP1 DUP2 MSTORE PUSH1 0x20 ADD PUSH0 KECCAK256 PUSH0 SWAP1 SLOAD SWAP1 PUSH2 0x100 EXP SWAP1 DIV PUSH1 0xFF AND PUSH2 0x892 JUMPI PUSH1 0x40 MLOAD PUSH32 0x8C379A000000000000000000000000000000000000000000000000000000000 DUP2 MSTORE PUSH1 0x4 ADD PUSH2 0x889 SWAP1 PUSH2 0x1067 JUMP JUMPDEST PUSH1 0x40 MLOAD DUP1 SWAP2 SUB SWAP1 REVERT JUMPDEST PUSH0 DUP2 GT DUP1 ISZERO PUSH2 0x8A3 JUMPI POP PUSH1 0x5 SLOAD DUP2 GT ISZERO JUMPDEST PUSH2 0x8E2 JUMPI PUSH1 0x40 MLOAD PUSH32 0x8C379A000000000000000000000000000000000000000000000000000000000 DUP2 MSTORE PUSH1 0x4 ADD PUSH2 0x8D9 SWAP1 PUSH2 0xE60 JUMP JUMPDEST PUSH1 0x40 MLOAD DUP1 SWAP2 SUB SWAP1 REVERT JUMPDEST PUSH1 0x4 PUSH0 DUP3 DUP2 MSTORE PUSH1 0x20 ADD SWAP1 DUP2 MSTORE PUSH1 0x20 ADD PUSH0 KECCAK256 PUSH0 DUP2 SLOAD DUP1 SWAP3 SWAP2 SWAP1 PUSH2 0x903 SWAP1 PUSH2 0x10B2 JUMP JUMPDEST SWAP2 SWAP1 POP SSTORE POP CALLER PUSH20 0xFFFFFFFFFFFFFFFFFFFFFFFFFFFFFFFFFFFFFFFF AND DUP2 PUSH32 0xF1003B73C437642C0460AEE9CD9628B0B8C447B66E6C7C905531B9C644214A11 PUSH1 0x40 MLOAD PUSH1 0x40 MLOAD DUP1 SWAP2 SUB SWAP1 LOG3 POP JUMP JUMPDEST PUSH0 PUSH1 0x1 PUSH0 CALLER PUSH20 0xFFFFFFFFFFFFFFFFFFFFFFFFFFFFFFFFFFFFFFFF AND PUSH20 0xFFFFFFFFFFFFFFFFFFFFFFFFFFFFFFFFFFFFFFFF AND DUP2 MSTORE PUSH1 0x20 ADD SWAP1 DUP2 MSTORE PUSH1 0x20 ADD PUSH0 KECCAK256 PUSH0 SWAP1 SLOAD SWAP1 PUSH2 0x100 EXP SWAP1 DIV PUSH1 0xFF AND PUSH2 0x9D9 JUMPI PUSH1 0x40 MLOAD PUSH32 0x8C379A000000000000000000000000000000000000000000000000000000000 DUP2 MSTORE PUSH1 0x4 ADD PUSH2 0x9D0 SWAP1 PUSH2 0xEEE JUMP JUMPDEST PUSH1 0x40 MLOAD DUP1 SWAP2 SUB SWAP1 REVERT JUMPDEST PUSH0 PUSH1 0x5 SLOAD SWAP1 POP DUP3 PUSH1 0x2 PUSH0 DUP4 DUP2 MSTORE PUSH1 0x20 ADD SWAP1 DUP2 MSTORE PUSH1 0x20 ADD PUSH0 KECCAK256 SWAP1 DUP2 PUSH2 0x9FD SWAP2 SWAP1 PUSH2 0x1296 JUMP JUMPDEST POP PUSH1 0x5 PUSH0 DUP2 SLOAD DUP1 SWAP3 SWAP2 SWAP1 PUSH2 0xA10 SWAP1 PUSH2 0x10B2 JUMP JUMPDEST SWAP2 SWAP1 POP SSTORE POP DUP1 PUSH32 0xE83B2A43E7E82D975C8A0A6D2F045153C869E111136A34D1889AB7B598E396A3 DUP5 PUSH1 0x40 MLOAD PUSH2 0xA45 SWAP2 SWAP1 PUSH2 0xC5B JUMP JUMPDEST PUSH1 0x40 MLOAD DUP1 SWAP2 SUB SWAP1 LOG2 DUP1 SWAP2 POP POP SWAP2 SWAP1 POP JUMP JUMPDEST PUSH1 0x3 PUSH1 0x20 MSTORE DUP1 PUSH0 MSTORE PUSH1 0x40 PUSH0 KECCAK256 PUSH0 SWAP2 POP SLOAD SWAP1 PUSH2 0x100 EXP SWAP1 DIV PUSH1 0xFF AND DUP2 JUMP JUMPDEST PUSH1 0x5 SLOAD DUP2 JUMP JUMPDEST PUSH0 DUP1 SLOAD SWAP1 PUSH2 0x100 EXP SWAP1 DIV PUSH20 0xFFFFFFFFFFFFFFFFFFFFFFFFFFFFFFFFFFFFFFFF AND DUP2 JUMP JUMPDEST PUSH0 PUSH1 0x40 MLOAD SWAP1 POP SWAP1 JUMP JUMPDEST PUSH0 DUP1 REVERT JUMPDEST PUSH0 DUP1 REVERT JUMPDEST PUSH0 DUP2 SWAP1 POP SWAP2 SWAP1 POP JUMP JUMPDEST PUSH2 0xABF DUP2 PUSH2 0xAAD JUMP JUMPDEST DUP2 EQ PUSH2 0xAC9 JUMPI PUSH0 DUP1 REVERT JUMPDEST POP JUMP JUMPDEST PUSH0 DUP2 CALLDATALOAD SWAP1 POP PUSH2 0xADA DUP2 PUSH2 0xAB6 JUMP JUMPDEST SWAP3 SWAP2 POP POP JUMP JUMPDEST PUSH0 PUSH1 0x20 DUP3 DUP5 SUB SLT ISZERO PUSH2 0xAF5 JUMPI PUSH2 0xAF4 PUSH2 0xAA5 JUMP JUMPDEST JUMPDEST PUSH0 PUSH2 0xB02 DUP5 DUP3 DUP6 ADD PUSH2 0xACC JUMP JUMPDEST SWAP2 POP POP SWAP3 SWAP2 POP POP JUMP JUMPDEST PUSH2 0xB14 DUP2 PUSH2 0xAAD JUMP JUMPDEST DUP3 MSTORE POP POP JUMP JUMPDEST PUSH0 PUSH1 0x20 DUP3 ADD SWAP1 POP PUSH2 0xB2D PUSH0 DUP4 ADD DUP5 PUSH2 0xB0B JUMP JUMPDEST SWAP3 SWAP2 POP POP JUMP JUMPDEST PUSH0 PUSH20 0xFFFFFFFFFFFFFFFFFFFFFFFFFFFFFFFFFFFFFFFF DUP3 AND SWAP1 POP SWAP2 SWAP1 POP JUMP JUMPDEST PUSH0 PUSH2 0xB5C DUP3 PUSH2 0xB33 JUMP JUMPDEST SWAP1 POP SWAP2 SWAP1 POP JUMP JUMPDEST PUSH2 0xB6C DUP2 PUSH2 0xB52 JUMP JUMPDEST DUP2 EQ PUSH2 0xB76 JUMPI PUSH0 DUP1 REVERT JUMPDEST POP JUMP JUMPDEST PUSH0 DUP2 CALLDATALOAD SWAP1 POP PUSH2 0xB87 DUP2 PUSH2 0xB63 JUMP JUMPDEST SWAP3 SWAP2 POP POP JUMP JUMPDEST PUSH0 PUSH1 0x20 DUP3 DUP5 SUB SLT ISZERO PUSH2 0xBA2 JUMPI PUSH2 0xBA1 PUSH2 0xAA5 JUMP JUMPDEST JUMPDEST PUSH0 PUSH2 0xBAF DUP5 DUP3 DUP6 ADD PUSH2 0xB79 JUMP JUMPDEST SWAP2 POP POP SWAP3 SWAP2 POP POP JUMP JUMPDEST PUSH0 DUP2 ISZERO ISZERO SWAP1 POP SWAP2 SWAP1 POP JUMP JUMPDEST PUSH2 0xBCC DUP2 PUSH2 0xBB8 JUMP JUMPDEST DUP3 MSTORE POP POP JUMP JUMPDEST PUSH0 PUSH1 0x20 DUP3 ADD SWAP1 POP PUSH2 0xBE5 PUSH0 DUP4 ADD DUP5 PUSH2 0xBC3 JUMP JUMPDEST SWAP3 SWAP2 POP POP JUMP JUMPDEST PUSH0 DUP2 MLOAD SWAP1 POP SWAP2 SWAP1 POP JUMP JUMPDEST PUSH0 DUP3 DUP3 MSTORE PUSH1 0x20 DUP3 ADD SWAP1 POP SWAP3 SWAP2 POP POP JUMP JUMPDEST DUP3 DUP2 DUP4 MCOPY PUSH0 DUP4 DUP4 ADD MSTORE POP POP POP JUMP JUMPDEST PUSH0 PUSH1 0x1F NOT PUSH1 0x1F DUP4 ADD AND SWAP1 POP SWAP2 SWAP1 POP JUMP JUMPDEST PUSH0 PUSH2 0xC2D DUP3 PUSH2 0xBEB JUMP JUMPDEST PUSH2 0xC37 DUP2 DUP6 PUSH2 0xBF5 JUMP JUMPDEST SWAP4 POP PUSH2 0xC47 DUP2 DUP6 PUSH1 0x20 DUP7 ADD PUSH2 0xC05 JUMP JUMPDEST PUSH2 0xC50 DUP2 PUSH2 0xC13 JUMP JUMPDEST DUP5 ADD SWAP2 POP POP SWAP3 SWAP2 POP POP JUMP JUMPDEST PUSH0 PUSH1 0x20 DUP3 ADD SWAP1 POP DUP2 DUP2 SUB PUSH0 DUP4 ADD MSTORE PUSH2 0xC73 DUP2 DUP5 PUSH2 0xC23 JUMP JUMPDEST SWAP1 POP SWAP3 SWAP2 POP POP JUMP JUMPDEST PUSH0 DUP1 REVERT JUMPDEST PUSH0 DUP1 REVERT JUMPDEST PUSH32 0x4E487B7100000000000000000000000000000000000000000000000000000000 PUSH0 MSTORE PUSH1 0x41 PUSH1 0x4 MSTORE PUSH1 0x24 PUSH0 REVERT JUMPDEST PUSH2 0xCB9 DUP3 PUSH2 0xC13 JUMP JUMPDEST DUP2 ADD DUP2 DUP2 LT PUSH8 0xFFFFFFFFFFFFFFFF DUP3 GT OR ISZERO PUSH2 0xCD8 JUMPI PUSH2 0xCD7 PUSH2 0xC83 JUMP JUMPDEST JUMPDEST DUP1 PUSH1 0x40 MSTORE POP POP POP JUMP JUMPDEST PUSH0 PUSH2 0xCEA PUSH2 0xA9C JUMP JUMPDEST SWAP1 POP PUSH2 0xCF6 DUP3 DUP3 PUSH2 0xCB0 JUMP JUMPDEST SWAP2 SWAP1 POP JUMP JUMPDEST PUSH0 PUSH8 0xFFFFFFFFFFFFFFFF DUP3 GT ISZERO PUSH2 0xD15 JUMPI PUSH2 0xD14 PUSH2 0xC83 JUMP JUMPDEST JUMPDEST PUSH2 0xD1E DUP3 PUSH2 0xC13 JUMP JUMPDEST SWAP1 POP PUSH1 0x20 DUP2 ADD SWAP1 POP SWAP2 SWAP1 POP JUMP JUMPDEST DUP3 DUP2 DUP4 CALLDATACOPY PUSH0 DUP4 DUP4 ADD MSTORE POP POP POP JUMP JUMPDEST PUSH0 PUSH2 0xD4B PUSH2 0xD46 DUP5 PUSH2 0xCFB JUMP JUMPDEST PUSH2 0xCE1 JUMP JUMPDEST SWAP1 POP DUP3 DUP2 MSTORE PUSH1 0x20 DUP2 ADD DUP5 DUP5 DUP5 ADD GT ISZERO PUSH2 0xD67 JUMPI PUSH2 0xD66 PUSH2 0xC7F JUMP JUMPDEST JUMPDEST PUSH2 0xD72 DUP5 DUP3 DUP6 PUSH2 0xD2B JUMP JUMPDEST POP SWAP4 SWAP3 POP POP POP JUMP JUMPDEST PUSH0 DUP3 PUSH1 0x1F DUP4 ADD SLT PUSH2 0xD8E JUMPI PUSH2 0xD8D PUSH2 0xC7B JUMP JUMPDEST JUMPDEST DUP2 CALLDATALOAD PUSH2 0xD9E DUP5 DUP3 PUSH1 0x20 DUP7 ADD PUSH2 0xD39 JUMP JUMPDEST SWAP2 POP POP SWAP3 SWAP2 POP POP JUMP JUMPDEST PUSH0 PUSH1 0x20 DUP3 DUP5 SUB SLT ISZERO PUSH2 0xDBC JUMPI PUSH2 0xDBB PUSH2 0xAA5 JUMP JUMPDEST JUMPDEST PUSH0 DUP3 ADD CALLDATALOAD PUSH8 0xFFFFFFFFFFFFFFFF DUP2 GT ISZERO PUSH2 0xDD9 JUMPI PUSH2 0xDD8 PUSH2 0xAA9 JUMP JUMPDEST JUMPDEST PUSH2 0xDE5 DUP5 DUP3 DUP6 ADD PUSH2 0xD7A JUMP JUMPDEST SWAP2 POP POP SWAP3 SWAP2 POP POP JUMP JUMPDEST PUSH2 0xDF7 DUP2 PUSH2 0xB52 JUMP JUMPDEST DUP3 MSTORE POP POP JUMP JUMPDEST PUSH0 PUSH1 0x20 DUP3 ADD SWAP1 POP PUSH2 0xE10 PUSH0 DUP4 ADD DUP5 PUSH2 0xDEE JUMP JUMPDEST SWAP3 SWAP2 POP POP JUMP JUMPDEST PUSH32 0x496E76616C69642063616E646964617465204944000000000000000000000000 PUSH0 DUP3 ADD MSTORE POP JUMP JUMPDEST PUSH0 PUSH2 0xE4A PUSH1 0x14 DUP4 PUSH2 0xBF5 JUMP JUMPDEST SWAP2 POP PUSH2 0xE55 DUP3 PUSH2 0xE16 JUMP JUMPDEST PUSH1 0x20 DUP3 ADD SWAP1 POP SWAP2 SWAP1 POP JUMP JUMPDEST PUSH0 PUSH1 0x20 DUP3 ADD SWAP1 POP DUP2 DUP2 SUB PUSH0 DUP4 ADD MSTORE PUSH2 0xE77 DUP2 PUSH2 0xE3E JUMP JUMPDEST SWAP1 POP SWAP2 SWAP1 POP JUMP JUMPDEST PUSH32 0x4F6E6C792061646D696E2063616E2063616C6C20746869732066756E6374696F PUSH0 DUP3 ADD MSTORE PUSH32 0x6E00000000000000000000000000000000000000000000000000000000000000 PUSH1 0x20 DUP3 ADD MSTORE POP JUMP JUMPDEST PUSH0 PUSH2 0xED8 PUSH1 0x21 DUP4 PUSH2 0xBF5 JUMP JUMPDEST SWAP2 POP PUSH2 0xEE3 DUP3 PUSH2 0xE7E JUMP JUMPDEST PUSH1 0x40 DUP3 ADD SWAP1 POP SWAP2 SWAP1 POP JUMP JUMPDEST PUSH0 PUSH1 0x20 DUP3 ADD SWAP1 POP DUP2 DUP2 SUB PUSH0 DUP4 ADD MSTORE PUSH2 0xF05 DUP2 PUSH2 0xECC JUMP JUMPDEST SWAP1 POP SWAP2 SWAP1 POP JUMP JUMPDEST PUSH32 0x43616E6E6F74207265766F6B652061646D696E2070726976696C656765732066 PUSH0 DUP3 ADD MSTORE PUSH32 0x726F6D20746865206D61696E2061646D696E0000000000000000000000000000 PUSH1 0x20 DUP3 ADD MSTORE POP JUMP JUMPDEST PUSH0 PUSH2 0xF66 PUSH1 0x32 DUP4 PUSH2 0xBF5 JUMP JUMPDEST SWAP2 POP PUSH2 0xF71 DUP3 PUSH2 0xF0C JUMP JUMPDEST PUSH1 0x40 DUP3 ADD SWAP1 POP SWAP2 SWAP1 POP JUMP JUMPDEST PUSH0 PUSH1 0x20 DUP3 ADD SWAP1 POP DUP2 DUP2 SUB PUSH0 DUP4 ADD MSTORE PUSH2 0xF93 DUP2 PUSH2 0xF5A JUMP JUMPDEST SWAP1 POP SWAP2 SWAP1 POP JUMP JUMPDEST PUSH32 0x4E487B7100000000000000000000000000000000000000000000000000000000 PUSH0 MSTORE PUSH1 0x22 PUSH1 0x4 MSTORE PUSH1 0x24 PUSH0 REVERT JUMPDEST PUSH0 PUSH1 0x2 DUP3 DIV SWAP1 POP PUSH1 0x1 DUP3 AND DUP1 PUSH2 0xFDE JUMPI PUSH1 0x7F DUP3 AND SWAP2 POP JUMPDEST PUSH1 0x20 DUP3 LT DUP2 SUB PUSH2 0xFF1 JUMPI PUSH2 0xFF0 PUSH2 0xF9A JUMP JUMPDEST JUMPDEST POP SWAP2 SWAP1 POP JUMP JUMPDEST PUSH32 0x4F6E6C79207265676973746572656420766F746572732063616E206361737420 PUSH0 DUP3 ADD MSTORE PUSH32 0x766F746573000000000000000000000000000000000000000000000000000000 PUSH1 0x20 DUP3 ADD MSTORE POP JUMP JUMPDEST PUSH0 PUSH2 0x1051 PUSH1 0x25 DUP4 PUSH2 0xBF5 JUMP JUMPDEST SWAP2 POP PUSH2 0x105C DUP3 PUSH2 0xFF7 JUMP JUMPDEST PUSH1 0x40 DUP3 ADD SWAP1 POP SWAP2 SWAP1 POP JUMP JUMPDEST PUSH0 PUSH1 0x20 DUP3 ADD SWAP1 POP DUP2 DUP2 SUB PUSH0 DUP4 ADD MSTORE PUSH2 0x107E DUP2 PUSH2 0x1045 JUMP JUMPDEST SWAP1 POP SWAP2 SWAP1 POP JUMP JUMPDEST PUSH32 0x4E487B7100000000000000000000000000000000000000000000000000000000 PUSH0 MSTORE PUSH1 0x11 PUSH1 0x4 MSTORE PUSH1 0x24 PUSH0 REVERT JUMPDEST PUSH0 PUSH2 0x10BC DUP3 PUSH2 0xAAD JUMP JUMPDEST SWAP2 POP PUSH32 0xFFFFFFFFFFFFFFFFFFFFFFFFFFFFFFFFFFFFFFFFFFFFFFFFFFFFFFFFFFFFFFFF DUP3 SUB PUSH2 0x10EE JUMPI PUSH2 0x10ED PUSH2 0x1085 JUMP JUMPDEST JUMPDEST PUSH1 0x1 DUP3 ADD SWAP1 POP SWAP2 SWAP1 POP JUMP JUMPDEST PUSH0 DUP2 SWAP1 POP DUP2 PUSH0 MSTORE PUSH1 0x20 PUSH0 KECCAK256 SWAP1 POP SWAP2 SWAP1 POP JUMP JUMPDEST PUSH0 PUSH1 0x20 PUSH1 0x1F DUP4 ADD DIV SWAP1 POP SWAP2 SWAP1 POP JUMP JUMPDEST PUSH0 DUP3 DUP3 SHL SWAP1 POP SWAP3 SWAP2 POP POP JUMP JUMPDEST PUSH0 PUSH1 0x8 DUP4 MUL PUSH2 0x1155 PUSH32 0xFFFFFFFFFFFFFFFFFFFFFFFFFFFFFFFFFFFFFFFFFFFFFFFFFFFFFFFFFFFFFFFF DUP3 PUSH2 0x111A JUMP JUMPDEST PUSH2 0x115F DUP7 DUP4 PUSH2 0x111A JUMP JUMPDEST SWAP6 POP DUP1 NOT DUP5 AND SWAP4 POP DUP1 DUP7 AND DUP5 OR SWAP3 POP POP POP SWAP4 SWAP3 POP POP POP JUMP JUMPDEST PUSH0 DUP2 SWAP1 POP SWAP2 SWAP1 POP JUMP JUMPDEST PUSH0 PUSH2 0x119A PUSH2 0x1195 PUSH2 0x1190 DUP5 PUSH2 0xAAD JUMP JUMPDEST PUSH2 0x1177 JUMP JUMPDEST PUSH2 0xAAD JUMP JUMPDEST SWAP1 POP SWAP2 SWAP1 POP JUMP JUMPDEST PUSH0 DUP2 SWAP1 POP SWAP2 SWAP1 POP JUMP JUMPDEST PUSH2 0x11B3 DUP4 PUSH2 0x1180 JUMP JUMPDEST PUSH2 0x11C7 PUSH2 0x11BF DUP3 PUSH2 0x11A1 JUMP JUMPDEST DUP5 DUP5 SLOAD PUSH2 0x1126 JUMP JUMPDEST DUP3 SSTORE POP POP POP POP JUMP JUMPDEST PUSH0 SWAP1 JUMP JUMPDEST PUSH2 0x11DB PUSH2 0x11CF JUMP JUMPDEST PUSH2 0x11E6 DUP2 DUP5 DUP5 PUSH2 0x11AA JUMP JUMPDEST POP POP POP JUMP JUMPDEST JUMPDEST DUP2 DUP2 LT ISZERO PUSH2 0x1209 JUMPI PUSH2 0x11FE PUSH0 DUP3 PUSH2 0x11D3 JUMP JUMPDEST PUSH1 0x1 DUP2 ADD SWAP1 POP PUSH2 0x11EC JUMP JUMPDEST POP POP JUMP JUMPDEST PUSH1 0x1F DUP3 GT ISZERO PUSH2 0x124E JUMPI PUSH2 0x121F DUP2 PUSH2 0x10F9 JUMP JUMPDEST PUSH2 0x1228 DUP5 PUSH2 0x110B JUMP JUMPDEST DUP2 ADD PUSH1 0x20 DUP6 LT ISZERO PUSH2 0x1237 JUMPI DUP2 SWAP1 POP JUMPDEST PUSH2 0x124B PUSH2 0x1243 DUP6 PUSH2 0x110B JUMP JUMPDEST DUP4 ADD DUP3 PUSH2 0x11EB JUMP JUMPDEST POP POP JUMPDEST POP POP POP JUMP JUMPDEST PUSH0 DUP3 DUP3 SHR SWAP1 POP SWAP3 SWAP2 POP POP JUMP JUMPDEST PUSH0 PUSH2 0x126E PUSH0 NOT DUP5 PUSH1 0x8 MUL PUSH2 0x1253 JUMP JUMPDEST NOT DUP1 DUP4 AND SWAP2 POP POP SWAP3 SWAP2 POP POP JUMP JUMPDEST PUSH0 PUSH2 0x1286 DUP4 DUP4 PUSH2 0x125F JUMP JUMPDEST SWAP2 POP DUP3 PUSH1 0x2 MUL DUP3 OR SWAP1 POP SWAP3 SWAP2 POP POP JUMP JUMPDEST PUSH2 0x129F DUP3 PUSH2 0xBEB JUMP JUMPDEST PUSH8 0xFFFFFFFFFFFFFFFF DUP2 GT ISZERO PUSH2 0x12B8 JUMPI PUSH2 0x12B7 PUSH2 0xC83 JUMP JUMPDEST JUMPDEST PUSH2 0x12C2 DUP3 SLOAD PUSH2 0xFC7 JUMP JUMPDEST PUSH2 0x12CD DUP3 DUP3 DUP6 PUSH2 0x120D JUMP JUMPDEST PUSH0 PUSH1 0x20 SWAP1 POP PUSH1 0x1F DUP4 GT PUSH1 0x1 DUP2 EQ PUSH2 0x12FE JUMPI PUSH0 DUP5 ISZERO PUSH2 0x12EC JUMPI DUP3 DUP8 ADD MLOAD SWAP1 POP JUMPDEST PUSH2 0x12F6 DUP6 DUP3 PUSH2 0x127B JUMP JUMPDEST DUP7 SSTORE POP PUSH2 0x135D JUMP JUMPDEST PUSH1 0x1F NOT DUP5 AND PUSH2 0x130C DUP7 PUSH2 0x10F9 JUMP JUMPDEST PUSH0 JUMPDEST DUP3 DUP2 LT ISZERO PUSH2 0x1333 JUMPI DUP5 DUP10 ADD MLOAD DUP3 SSTORE PUSH1 0x1 DUP3 ADD SWAP2 POP PUSH1 0x20 DUP6 ADD SWAP5 POP PUSH1 0x20 DUP2 ADD SWAP1 POP PUSH2 0x130E JUMP JUMPDEST DUP7 DUP4 LT ISZERO PUSH2 0x1350 JUMPI DUP5 DUP10 ADD MLOAD PUSH2 0x134C PUSH1 0x1F DUP10 AND DUP3 PUSH2 0x125F JUMP JUMPDEST DUP4 SSTORE POP JUMPDEST PUSH1 0x1 PUSH1 0x2 DUP9 MUL ADD DUP9 SSTORE POP POP POP JUMPDEST POP POP POP POP POP POP JUMP INVALID LOG2 PUSH5 0x6970667358 0x22 SLT KECCAK256 0xEA PUSH19 0x1C264650B873E4AE53470DE69D959C010BA666 PUSH9 0xC0E507CB837BB4BB70 RETURNDATASIZE PUSH5 0x736F6C6343 STOP ADDMOD NOT STOP CALLER "
				},
				"gasEstimates": {
					"creation": {
						"codeDepositCost": "1003800",
						"executionCost": "51240",
						"totalCost": "1055040"
					},
					"external": {
						"addCandidate(string)": "infinite",
						"admin()": "2593",
						"candidateCount()": "2491",
						"candidates(uint256)": "infinite",
						"castVote(uint256)": "infinite",
						"getCandidateCount()": "2499",
						"getVoteCountForCandidate(uint256)": "infinite",
						"grantAdmin(address)": "28731",
						"isAdmin(address)": "2856",
						"registerVoter(address)": "28226",
						"revokeAdmin(address)": "30830",
						"voteCounts(uint256)": "infinite",
						"voters(address)": "2877"
					}
				},
				"methodIdentifiers": {
					"addCandidate(string)": "462e91ec",
					"admin()": "f851a440",
					"candidateCount()": "a9a981a3",
					"candidates(uint256)": "3477ee2e",
					"castVote(uint256)": "3eb76b9c",
					"getCandidateCount()": "30a56347",
					"getVoteCountForCandidate(uint256)": "0ba8afa3",
					"grantAdmin(address)": "35bb3e16",
					"isAdmin(address)": "24d7806c",
					"registerVoter(address)": "38db6dd3",
					"revokeAdmin(address)": "2d345670",
					"voteCounts(uint256)": "3c3a220d",
					"voters(address)": "a3ec138d"
				}
			},
			"storageLayout": {
				"storage": [
					{
						"astId": 3,
						"contract": "contracts/AccessControl.sol:AccessControl",
						"label": "admin",
						"offset": 0,
						"slot": "0",
						"type": "t_address"
					},
					{
						"astId": 7,
						"contract": "contracts/AccessControl.sol:AccessControl",
						"label": "isAdmin",
						"offset": 0,
						"slot": "1",
						"type": "t_mapping(t_address,t_bool)"
					},
					{
						"astId": 11,
						"contract": "contracts/AccessControl.sol:AccessControl",
						"label": "candidates",
						"offset": 0,
						"slot": "2",
						"type": "t_mapping(t_uint256,t_string_storage)"
					},
					{
						"astId": 15,
						"contract": "contracts/AccessControl.sol:AccessControl",
						"label": "voters",
						"offset": 0,
						"slot": "3",
						"type": "t_mapping(t_address,t_bool)"
					},
					{
						"astId": 19,
						"contract": "contracts/AccessControl.sol:AccessControl",
						"label": "voteCounts",
						"offset": 0,
						"slot": "4",
						"type": "t_mapping(t_uint256,t_uint256)"
					},
					{
						"astId": 21,
						"contract": "contracts/AccessControl.sol:AccessControl",
						"label": "candidateCount",
						"offset": 0,
						"slot": "5",
						"type": "t_uint256"
					}
				],
				"types": {
					"t_address": {
						"encoding": "inplace",
						"label": "address",
						"numberOfBytes": "20"
					},
					"t_bool": {
						"encoding": "inplace",
						"label": "bool",
						"numberOfBytes": "1"
					},
					"t_mapping(t_address,t_bool)": {
						"encoding": "mapping",
						"key": "t_address",
						"label": "mapping(address => bool)",
						"numberOfBytes": "32",
						"value": "t_bool"
					},
					"t_mapping(t_uint256,t_string_storage)": {
						"encoding": "mapping",
						"key": "t_uint256",
						"label": "mapping(uint256 => string)",
						"numberOfBytes": "32",
						"value": "t_string_storage"
					},
					"t_mapping(t_uint256,t_uint256)": {
						"encoding": "mapping",
						"key": "t_uint256",
						"label": "mapping(uint256 => uint256)",
						"numberOfBytes": "32",
						"value": "t_uint256"
					},
					"t_string_storage": {
						"encoding": "bytes",
						"label": "string",
						"numberOfBytes": "32"
					},
					"t_uint256": {
						"encoding": "inplace",
						"label": "uint256",
						"numberOfBytes": "32"
					}
				}
			},
			"userdoc": {
				"kind": "user",
				"methods": {},
				"version": 1
			}
		}
	}
}