{
	"contracts/Admin.sol": {
		"AdminContract": {
			"abi": [
				{
					"inputs": [],
					"stateMutability": "nonpayable",
					"type": "constructor"
				},
				{
					"anonymous": false,
					"inputs": [
						{
							"indexed": true,
							"internalType": "uint256",
							"name": "_id",
							"type": "uint256"
						},
						{
							"indexed": false,
							"internalType": "string",
							"name": "_name",
							"type": "string"
						}
					],
					"name": "CandidateAdded",
					"type": "event"
				},
				{
					"inputs": [
						{
							"internalType": "string",
							"name": "_name",
							"type": "string"
						}
					],
					"name": "addCandidate",
					"outputs": [],
					"stateMutability": "nonpayable",
					"type": "function"
				},
				{
					"inputs": [],
					"name": "admin",
					"outputs": [
						{
							"internalType": "address",
							"name": "",
							"type": "address"
						}
					],
					"stateMutability": "view",
					"type": "function"
				},
				{
					"inputs": [
						{
							"internalType": "uint256",
							"name": "",
							"type": "uint256"
						}
					],
					"name": "candidates",
					"outputs": [
						{
							"internalType": "uint256",
							"name": "id",
							"type": "uint256"
						},
						{
							"internalType": "string",
							"name": "name",
							"type": "string"
						}
					],
					"stateMutability": "view",
					"type": "function"
				},
				{
					"inputs": [],
					"name": "getCandidateCount",
					"outputs": [
						{
							"internalType": "uint256",
							"name": "",
							"type": "uint256"
						}
					],
					"stateMutability": "view",
					"type": "function"
				},
				{
					"inputs": [
						{
							"internalType": "address",
							"name": "_voter",
							"type": "address"
						}
					],
					"name": "registerVoter",
					"outputs": [],
					"stateMutability": "nonpayable",
					"type": "function"
				},
				{
					"inputs": [
						{
							"internalType": "address",
							"name": "_voter",
							"type": "address"
						}
					],
					"name": "unregisterVoter",
					"outputs": [],
					"stateMutability": "nonpayable",
					"type": "function"
				},
				{
					"inputs": [
						{
							"internalType": "address",
							"name": "",
							"type": "address"
						}
					],
					"name": "voters",
					"outputs": [
						{
							"internalType": "bool",
							"name": "",
							"type": "bool"
						}
					],
					"stateMutability": "view",
					"type": "function"
				}
			],
			"devdoc": {
				"kind": "dev",
				"methods": {},
				"version": 1
			},
			"evm": {
				"assembly": "    /* \"contracts/Admin.sol\":57:1567  contract AdminContract {... */\n  mstore(0x40, 0x80)\n    /* \"contracts/Admin.sol\":744:793  constructor() {... */\n  callvalue\n  dup1\n  iszero\n  tag_1\n  jumpi\n  0x00\n  dup1\n  revert\ntag_1:\n  pop\n    /* \"contracts/Admin.sol\":776:786  msg.sender */\n  caller\n    /* \"contracts/Admin.sol\":768:773  admin */\n  0x00\n  dup1\n    /* \"contracts/Admin.sol\":768:786  admin = msg.sender */\n  0x0100\n  exp\n  dup2\n  sload\n  dup2\n  0xffffffffffffffffffffffffffffffffffffffff\n  mul\n  not\n  and\n  swap1\n  dup4\n  0xffffffffffffffffffffffffffffffffffffffff\n  and\n  mul\n  or\n  swap1\n  sstore\n  pop\n    /* \"contracts/Admin.sol\":57:1567  contract AdminContract {... */\n  dataSize(sub_0)\n  dup1\n  dataOffset(sub_0)\n  0x00\n  codecopy\n  0x00\n  return\nstop\n\nsub_0: assembly {\n        /* \"contracts/Admin.sol\":57:1567  contract AdminContract {... */\n      mstore(0x40, 0x80)\n      callvalue\n      dup1\n      iszero\n      tag_1\n      jumpi\n      0x00\n      dup1\n      revert\n    tag_1:\n      pop\n      jumpi(tag_2, lt(calldatasize, 0x04))\n      shr(0xe0, calldataload(0x00))\n      dup1\n      0x462e91ec\n      gt\n      tag_10\n      jumpi\n      dup1\n      0x462e91ec\n      eq\n      tag_6\n      jumpi\n      dup1\n      0x7ed17751\n      eq\n      tag_7\n      jumpi\n      dup1\n      0xa3ec138d\n      eq\n      tag_8\n      jumpi\n      dup1\n      0xf851a440\n      eq\n      tag_9\n      jumpi\n      jump(tag_2)\n    tag_10:\n      dup1\n      0x30a56347\n      eq\n      tag_3\n      jumpi\n      dup1\n      0x3477ee2e\n      eq\n      tag_4\n      jumpi\n      dup1\n      0x38db6dd3\n      eq\n      tag_5\n      jumpi\n    tag_2:\n      0x00\n      dup1\n      revert\n        /* \"contracts/Admin.sol\":1109:1206  function getCandidateCount() public view returns (uint) {... */\n    tag_3:\n      tag_11\n      tag_12\n      jump\t// in\n    tag_11:\n      mload(0x40)\n      tag_13\n      swap2\n      swap1\n      tag_14\n      jump\t// in\n    tag_13:\n      mload(0x40)\n      dup1\n      swap2\n      sub\n      swap1\n      return\n        /* \"contracts/Admin.sol\":256:285  Candidate[] public candidates */\n    tag_4:\n      tag_15\n      0x04\n      dup1\n      calldatasize\n      sub\n      dup2\n      add\n      swap1\n      tag_16\n      swap2\n      swap1\n      tag_17\n      jump\t// in\n    tag_16:\n      tag_18\n      jump\t// in\n    tag_15:\n      mload(0x40)\n      tag_19\n      swap3\n      swap2\n      swap1\n      tag_20\n      jump\t// in\n    tag_19:\n      mload(0x40)\n      dup1\n      swap2\n      sub\n      swap1\n      return\n        /* \"contracts/Admin.sol\":1248:1342  function registerVoter(address _voter) public onlyAdmin {... */\n    tag_5:\n      tag_21\n      0x04\n      dup1\n      calldatasize\n      sub\n      dup2\n      add\n      swap1\n      tag_22\n      swap2\n      swap1\n      tag_23\n      jump\t// in\n    tag_22:\n      tag_24\n      jump\t// in\n    tag_21:\n      stop\n        /* \"contracts/Admin.sol\":861:1049  function addCandidate(string memory _name) public onlyAdmin {... */\n    tag_6:\n      tag_25\n      0x04\n      dup1\n      calldatasize\n      sub\n      dup2\n      add\n      swap1\n      tag_26\n      swap2\n      swap1\n      tag_27\n      jump\t// in\n    tag_26:\n      tag_28\n      jump\t// in\n    tag_25:\n      stop\n        /* \"contracts/Admin.sol\":1386:1482  function unregisterVoter(address _voter) public onlyAdmin {... */\n    tag_7:\n      tag_29\n      0x04\n      dup1\n      calldatasize\n      sub\n      dup2\n      add\n      swap1\n      tag_30\n      swap2\n      swap1\n      tag_23\n      jump\t// in\n    tag_30:\n      tag_31\n      jump\t// in\n    tag_29:\n      stop\n        /* \"contracts/Admin.sol\":379:417  mapping(address => bool) public voters */\n    tag_8:\n      tag_32\n      0x04\n      dup1\n      calldatasize\n      sub\n      dup2\n      add\n      swap1\n      tag_33\n      swap2\n      swap1\n      tag_23\n      jump\t// in\n    tag_33:\n      tag_34\n      jump\t// in\n    tag_32:\n      mload(0x40)\n      tag_35\n      swap2\n      swap1\n      tag_36\n      jump\t// in\n    tag_35:\n      mload(0x40)\n      dup1\n      swap2\n      sub\n      swap1\n      return\n        /* \"contracts/Admin.sol\":86:106  address public admin */\n    tag_9:\n      tag_37\n      tag_38\n      jump\t// in\n    tag_37:\n      mload(0x40)\n      tag_39\n      swap2\n      swap1\n      tag_40\n      jump\t// in\n    tag_39:\n      mload(0x40)\n      dup1\n      swap2\n      sub\n      swap1\n      return\n        /* \"contracts/Admin.sol\":1109:1206  function getCandidateCount() public view returns (uint) {... */\n    tag_12:\n        /* \"contracts/Admin.sol\":1159:1163  uint */\n      0x00\n        /* \"contracts/Admin.sol\":1182:1192  candidates */\n      0x01\n        /* \"contracts/Admin.sol\":1182:1199  candidates.length */\n      dup1\n      sload\n      swap1\n      pop\n        /* \"contracts/Admin.sol\":1175:1199  return candidates.length */\n      swap1\n      pop\n        /* \"contracts/Admin.sol\":1109:1206  function getCandidateCount() public view returns (uint) {... */\n      swap1\n      jump\t// out\n        /* \"contracts/Admin.sol\":256:285  Candidate[] public candidates */\n    tag_18:\n      0x01\n      dup2\n      dup2\n      sload\n      dup2\n      lt\n      tag_42\n      jumpi\n      0x00\n      dup1\n      revert\n    tag_42:\n      swap1\n      0x00\n      mstore\n      keccak256(0x00, 0x20)\n      swap1\n      0x02\n      mul\n      add\n      0x00\n      swap2\n      pop\n      swap1\n      pop\n      dup1\n      0x00\n      add\n      sload\n      swap1\n      dup1\n      0x01\n      add\n      dup1\n      sload\n      tag_44\n      swap1\n      tag_45\n      jump\t// in\n    tag_44:\n      dup1\n      0x1f\n      add\n      0x20\n      dup1\n      swap2\n      div\n      mul\n      0x20\n      add\n      mload(0x40)\n      swap1\n      dup2\n      add\n      0x40\n      mstore\n      dup1\n      swap3\n      swap2\n      swap1\n      dup2\n      dup2\n      mstore\n      0x20\n      add\n      dup3\n      dup1\n      sload\n      tag_46\n      swap1\n      tag_45\n      jump\t// in\n    tag_46:\n      dup1\n      iszero\n      tag_47\n      jumpi\n      dup1\n      0x1f\n      lt\n      tag_48\n      jumpi\n      0x0100\n      dup1\n      dup4\n      sload\n      div\n      mul\n      dup4\n      mstore\n      swap2\n      0x20\n      add\n      swap2\n      jump(tag_47)\n    tag_48:\n      dup3\n      add\n      swap2\n      swap1\n      0x00\n      mstore\n      keccak256(0x00, 0x20)\n      swap1\n    tag_49:\n      dup2\n      sload\n      dup2\n      mstore\n      swap1\n      0x01\n      add\n      swap1\n      0x20\n      add\n      dup1\n      dup4\n      gt\n      tag_49\n      jumpi\n      dup3\n      swap1\n      sub\n      0x1f\n      and\n      dup3\n      add\n      swap2\n    tag_47:\n      pop\n      pop\n      pop\n      pop\n      pop\n      swap1\n      pop\n      dup3\n      jump\t// out\n        /* \"contracts/Admin.sol\":1248:1342  function registerVoter(address _voter) public onlyAdmin {... */\n    tag_24:\n        /* \"contracts/Admin.sol\":633:638  admin */\n      0x00\n      dup1\n      sload\n      swap1\n      0x0100\n      exp\n      swap1\n      div\n      0xffffffffffffffffffffffffffffffffffffffff\n      and\n        /* \"contracts/Admin.sol\":619:638  msg.sender == admin */\n      0xffffffffffffffffffffffffffffffffffffffff\n      and\n        /* \"contracts/Admin.sol\":619:629  msg.sender */\n      caller\n        /* \"contracts/Admin.sol\":619:638  msg.sender == admin */\n      0xffffffffffffffffffffffffffffffffffffffff\n      and\n      eq\n        /* \"contracts/Admin.sol\":611:676  require(msg.sender == admin, \"Only admin can call this function\") */\n      tag_51\n      jumpi\n      mload(0x40)\n      0x08c379a000000000000000000000000000000000000000000000000000000000\n      dup2\n      mstore\n      0x04\n      add\n      tag_52\n      swap1\n      tag_53\n      jump\t// in\n    tag_52:\n      mload(0x40)\n      dup1\n      swap2\n      sub\n      swap1\n      revert\n    tag_51:\n        /* \"contracts/Admin.sol\":1331:1335  true */\n      0x01\n        /* \"contracts/Admin.sol\":1314:1320  voters */\n      0x02\n        /* \"contracts/Admin.sol\":1314:1328  voters[_voter] */\n      0x00\n        /* \"contracts/Admin.sol\":1321:1327  _voter */\n      dup4\n        /* \"contracts/Admin.sol\":1314:1328  voters[_voter] */\n      0xffffffffffffffffffffffffffffffffffffffff\n      and\n      0xffffffffffffffffffffffffffffffffffffffff\n      and\n      dup2\n      mstore\n      0x20\n      add\n      swap1\n      dup2\n      mstore\n      0x20\n      add\n      0x00\n      keccak256\n      0x00\n        /* \"contracts/Admin.sol\":1314:1335  voters[_voter] = true */\n      0x0100\n      exp\n      dup2\n      sload\n      dup2\n      0xff\n      mul\n      not\n      and\n      swap1\n      dup4\n      iszero\n      iszero\n      mul\n      or\n      swap1\n      sstore\n      pop\n        /* \"contracts/Admin.sol\":1248:1342  function registerVoter(address _voter) public onlyAdmin {... */\n      pop\n      jump\t// out\n        /* \"contracts/Admin.sol\":861:1049  function addCandidate(string memory _name) public onlyAdmin {... */\n    tag_28:\n        /* \"contracts/Admin.sol\":633:638  admin */\n      0x00\n      dup1\n      sload\n      swap1\n      0x0100\n      exp\n      swap1\n      div\n      0xffffffffffffffffffffffffffffffffffffffff\n      and\n        /* \"contracts/Admin.sol\":619:638  msg.sender == admin */\n      0xffffffffffffffffffffffffffffffffffffffff\n      and\n        /* \"contracts/Admin.sol\":619:629  msg.sender */\n      caller\n        /* \"contracts/Admin.sol\":619:638  msg.sender == admin */\n      0xffffffffffffffffffffffffffffffffffffffff\n      and\n      eq\n        /* \"contracts/Admin.sol\":611:676  require(msg.sender == admin, \"Only admin can call this function\") */\n      tag_56\n      jumpi\n      mload(0x40)\n      0x08c379a000000000000000000000000000000000000000000000000000000000\n      dup2\n      mstore\n      0x04\n      add\n      tag_57\n      swap1\n      tag_53\n      jump\t// in\n    tag_57:\n      mload(0x40)\n      dup1\n      swap2\n      sub\n      swap1\n      revert\n    tag_56:\n        /* \"contracts/Admin.sol\":931:941  candidates */\n      0x01\n        /* \"contracts/Admin.sol\":947:986  Candidate(candidates.length + 1, _name) */\n      mload(0x40)\n      dup1\n      0x40\n      add\n      0x40\n      mstore\n      dup1\n        /* \"contracts/Admin.sol\":977:978  1 */\n      0x01\n        /* \"contracts/Admin.sol\":957:967  candidates */\n      dup1\n        /* \"contracts/Admin.sol\":957:974  candidates.length */\n      dup1\n      sload\n      swap1\n      pop\n        /* \"contracts/Admin.sol\":957:978  candidates.length + 1 */\n      tag_59\n      swap2\n      swap1\n      tag_60\n      jump\t// in\n    tag_59:\n        /* \"contracts/Admin.sol\":947:986  Candidate(candidates.length + 1, _name) */\n      dup2\n      mstore\n      0x20\n      add\n        /* \"contracts/Admin.sol\":980:985  _name */\n      dup4\n        /* \"contracts/Admin.sol\":947:986  Candidate(candidates.length + 1, _name) */\n      dup2\n      mstore\n      pop\n        /* \"contracts/Admin.sol\":931:987  candidates.push(Candidate(candidates.length + 1, _name)) */\n      swap1\n      dup1\n      0x01\n      dup2\n      sload\n      add\n      dup1\n      dup3\n      sstore\n      dup1\n      swap2\n      pop\n      pop\n      0x01\n      swap1\n      sub\n      swap1\n      0x00\n      mstore\n      keccak256(0x00, 0x20)\n      swap1\n      0x02\n      mul\n      add\n      0x00\n      swap1\n      swap2\n      swap1\n      swap2\n      swap1\n      swap2\n      pop\n      0x00\n      dup3\n      add\n      mload\n      dup2\n      0x00\n      add\n      sstore\n      0x20\n      dup3\n      add\n      mload\n      dup2\n      0x01\n      add\n      swap1\n      dup2\n      tag_62\n      swap2\n      swap1\n      tag_63\n      jump\t// in\n    tag_62:\n      pop\n      pop\n      pop\n        /* \"contracts/Admin.sol\":1017:1027  candidates */\n      0x01\n        /* \"contracts/Admin.sol\":1017:1034  candidates.length */\n      dup1\n      sload\n      swap1\n      pop\n        /* \"contracts/Admin.sol\":1002:1042  CandidateAdded(candidates.length, _name) */\n      0xe83b2a43e7e82d975c8a0a6d2f045153c869e111136a34d1889ab7b598e396a3\n        /* \"contracts/Admin.sol\":1036:1041  _name */\n      dup3\n        /* \"contracts/Admin.sol\":1002:1042  CandidateAdded(candidates.length, _name) */\n      mload(0x40)\n      tag_64\n      swap2\n      swap1\n      tag_65\n      jump\t// in\n    tag_64:\n      mload(0x40)\n      dup1\n      swap2\n      sub\n      swap1\n      log2\n        /* \"contracts/Admin.sol\":861:1049  function addCandidate(string memory _name) public onlyAdmin {... */\n      pop\n      jump\t// out\n        /* \"contracts/Admin.sol\":1386:1482  function unregisterVoter(address _voter) public onlyAdmin {... */\n    tag_31:\n        /* \"contracts/Admin.sol\":633:638  admin */\n      0x00\n      dup1\n      sload\n      swap1\n      0x0100\n      exp\n      swap1\n      div\n      0xffffffffffffffffffffffffffffffffffffffff\n      and\n        /* \"contracts/Admin.sol\":619:638  msg.sender == admin */\n      0xffffffffffffffffffffffffffffffffffffffff\n      and\n        /* \"contracts/Admin.sol\":619:629  msg.sender */\n      caller\n        /* \"contracts/Admin.sol\":619:638  msg.sender == admin */\n      0xffffffffffffffffffffffffffffffffffffffff\n      and\n      eq\n        /* \"contracts/Admin.sol\":611:676  require(msg.sender == admin, \"Only admin can call this function\") */\n      tag_67\n      jumpi\n      mload(0x40)\n      0x08c379a000000000000000000000000000000000000000000000000000000000\n      dup2\n      mstore\n      0x04\n      add\n      tag_68\n      swap1\n      tag_53\n      jump\t// in\n    tag_68:\n      mload(0x40)\n      dup1\n      swap2\n      sub\n      swap1\n      revert\n    tag_67:\n        /* \"contracts/Admin.sol\":1461:1467  voters */\n      0x02\n        /* \"contracts/Admin.sol\":1461:1475  voters[_voter] */\n      0x00\n        /* \"contracts/Admin.sol\":1468:1474  _voter */\n      dup3\n        /* \"contracts/Admin.sol\":1461:1475  voters[_voter] */\n      0xffffffffffffffffffffffffffffffffffffffff\n      and\n      0xffffffffffffffffffffffffffffffffffffffff\n      and\n      dup2\n      mstore\n      0x20\n      add\n      swap1\n      dup2\n      mstore\n      0x20\n      add\n      0x00\n      keccak256\n      0x00\n        /* \"contracts/Admin.sol\":1454:1475  delete voters[_voter] */\n      0x0100\n      exp\n      dup2\n      sload\n      swap1\n      0xff\n      mul\n      not\n      and\n      swap1\n      sstore\n        /* \"contracts/Admin.sol\":1386:1482  function unregisterVoter(address _voter) public onlyAdmin {... */\n      pop\n      jump\t// out\n        /* \"contracts/Admin.sol\":379:417  mapping(address => bool) public voters */\n    tag_34:\n      mstore(0x20, 0x02)\n      dup1\n      0x00\n      mstore\n      keccak256(0x00, 0x40)\n      0x00\n      swap2\n      pop\n      sload\n      swap1\n      0x0100\n      exp\n      swap1\n      div\n      0xff\n      and\n      dup2\n      jump\t// out\n        /* \"contracts/Admin.sol\":86:106  address public admin */\n    tag_38:\n      0x00\n      dup1\n      sload\n      swap1\n      0x0100\n      exp\n      swap1\n      div\n      0xffffffffffffffffffffffffffffffffffffffff\n      and\n      dup2\n      jump\t// out\n        /* \"#utility.yul\":7:84   */\n    tag_70:\n        /* \"#utility.yul\":44:51   */\n      0x00\n        /* \"#utility.yul\":73:78   */\n      dup2\n        /* \"#utility.yul\":62:78   */\n      swap1\n      pop\n        /* \"#utility.yul\":7:84   */\n      swap2\n      swap1\n      pop\n      jump\t// out\n        /* \"#utility.yul\":90:208   */\n    tag_71:\n        /* \"#utility.yul\":177:201   */\n      tag_120\n        /* \"#utility.yul\":195:200   */\n      dup2\n        /* \"#utility.yul\":177:201   */\n      tag_70\n      jump\t// in\n    tag_120:\n        /* \"#utility.yul\":172:175   */\n      dup3\n        /* \"#utility.yul\":165:202   */\n      mstore\n        /* \"#utility.yul\":90:208   */\n      pop\n      pop\n      jump\t// out\n        /* \"#utility.yul\":214:436   */\n    tag_14:\n        /* \"#utility.yul\":307:311   */\n      0x00\n        /* \"#utility.yul\":345:347   */\n      0x20\n        /* \"#utility.yul\":334:343   */\n      dup3\n        /* \"#utility.yul\":330:348   */\n      add\n        /* \"#utility.yul\":322:348   */\n      swap1\n      pop\n        /* \"#utility.yul\":358:429   */\n      tag_122\n        /* \"#utility.yul\":426:427   */\n      0x00\n        /* \"#utility.yul\":415:424   */\n      dup4\n        /* \"#utility.yul\":411:428   */\n      add\n        /* \"#utility.yul\":402:408   */\n      dup5\n        /* \"#utility.yul\":358:429   */\n      tag_71\n      jump\t// in\n    tag_122:\n        /* \"#utility.yul\":214:436   */\n      swap3\n      swap2\n      pop\n      pop\n      jump\t// out\n        /* \"#utility.yul\":442:517   */\n    tag_72:\n        /* \"#utility.yul\":475:481   */\n      0x00\n        /* \"#utility.yul\":508:510   */\n      0x40\n        /* \"#utility.yul\":502:511   */\n      mload\n        /* \"#utility.yul\":492:511   */\n      swap1\n      pop\n        /* \"#utility.yul\":442:517   */\n      swap1\n      jump\t// out\n        /* \"#utility.yul\":523:640   */\n    tag_73:\n        /* \"#utility.yul\":632:633   */\n      0x00\n        /* \"#utility.yul\":629:630   */\n      dup1\n        /* \"#utility.yul\":622:634   */\n      revert\n        /* \"#utility.yul\":646:763   */\n    tag_74:\n        /* \"#utility.yul\":755:756   */\n      0x00\n        /* \"#utility.yul\":752:753   */\n      dup1\n        /* \"#utility.yul\":745:757   */\n      revert\n        /* \"#utility.yul\":769:891   */\n    tag_75:\n        /* \"#utility.yul\":842:866   */\n      tag_127\n        /* \"#utility.yul\":860:865   */\n      dup2\n        /* \"#utility.yul\":842:866   */\n      tag_70\n      jump\t// in\n    tag_127:\n        /* \"#utility.yul\":835:840   */\n      dup2\n        /* \"#utility.yul\":832:867   */\n      eq\n        /* \"#utility.yul\":822:885   */\n      tag_128\n      jumpi\n        /* \"#utility.yul\":881:882   */\n      0x00\n        /* \"#utility.yul\":878:879   */\n      dup1\n        /* \"#utility.yul\":871:883   */\n      revert\n        /* \"#utility.yul\":822:885   */\n    tag_128:\n        /* \"#utility.yul\":769:891   */\n      pop\n      jump\t// out\n        /* \"#utility.yul\":897:1036   */\n    tag_76:\n        /* \"#utility.yul\":943:948   */\n      0x00\n        /* \"#utility.yul\":981:987   */\n      dup2\n        /* \"#utility.yul\":968:988   */\n      calldataload\n        /* \"#utility.yul\":959:988   */\n      swap1\n      pop\n        /* \"#utility.yul\":997:1030   */\n      tag_130\n        /* \"#utility.yul\":1024:1029   */\n      dup2\n        /* \"#utility.yul\":997:1030   */\n      tag_75\n      jump\t// in\n    tag_130:\n        /* \"#utility.yul\":897:1036   */\n      swap3\n      swap2\n      pop\n      pop\n      jump\t// out\n        /* \"#utility.yul\":1042:1371   */\n    tag_17:\n        /* \"#utility.yul\":1101:1107   */\n      0x00\n        /* \"#utility.yul\":1150:1152   */\n      0x20\n        /* \"#utility.yul\":1138:1147   */\n      dup3\n        /* \"#utility.yul\":1129:1136   */\n      dup5\n        /* \"#utility.yul\":1125:1148   */\n      sub\n        /* \"#utility.yul\":1121:1153   */\n      slt\n        /* \"#utility.yul\":1118:1237   */\n      iszero\n      tag_132\n      jumpi\n        /* \"#utility.yul\":1156:1235   */\n      tag_133\n      tag_73\n      jump\t// in\n    tag_133:\n        /* \"#utility.yul\":1118:1237   */\n    tag_132:\n        /* \"#utility.yul\":1276:1277   */\n      0x00\n        /* \"#utility.yul\":1301:1354   */\n      tag_134\n        /* \"#utility.yul\":1346:1353   */\n      dup5\n        /* \"#utility.yul\":1337:1343   */\n      dup3\n        /* \"#utility.yul\":1326:1335   */\n      dup6\n        /* \"#utility.yul\":1322:1344   */\n      add\n        /* \"#utility.yul\":1301:1354   */\n      tag_76\n      jump\t// in\n    tag_134:\n        /* \"#utility.yul\":1291:1354   */\n      swap2\n      pop\n        /* \"#utility.yul\":1247:1364   */\n      pop\n        /* \"#utility.yul\":1042:1371   */\n      swap3\n      swap2\n      pop\n      pop\n      jump\t// out\n        /* \"#utility.yul\":1377:1476   */\n    tag_77:\n        /* \"#utility.yul\":1429:1435   */\n      0x00\n        /* \"#utility.yul\":1463:1468   */\n      dup2\n        /* \"#utility.yul\":1457:1469   */\n      mload\n        /* \"#utility.yul\":1447:1469   */\n      swap1\n      pop\n        /* \"#utility.yul\":1377:1476   */\n      swap2\n      swap1\n      pop\n      jump\t// out\n        /* \"#utility.yul\":1482:1651   */\n    tag_78:\n        /* \"#utility.yul\":1566:1577   */\n      0x00\n        /* \"#utility.yul\":1600:1606   */\n      dup3\n        /* \"#utility.yul\":1595:1598   */\n      dup3\n        /* \"#utility.yul\":1588:1607   */\n      mstore\n        /* \"#utility.yul\":1640:1644   */\n      0x20\n        /* \"#utility.yul\":1635:1638   */\n      dup3\n        /* \"#utility.yul\":1631:1645   */\n      add\n        /* \"#utility.yul\":1616:1645   */\n      swap1\n      pop\n        /* \"#utility.yul\":1482:1651   */\n      swap3\n      swap2\n      pop\n      pop\n      jump\t// out\n        /* \"#utility.yul\":1657:1796   */\n    tag_79:\n        /* \"#utility.yul\":1746:1752   */\n      dup3\n        /* \"#utility.yul\":1741:1744   */\n      dup2\n        /* \"#utility.yul\":1736:1739   */\n      dup4\n        /* \"#utility.yul\":1730:1753   */\n      mcopy\n        /* \"#utility.yul\":1787:1788   */\n      0x00\n        /* \"#utility.yul\":1778:1784   */\n      dup4\n        /* \"#utility.yul\":1773:1776   */\n      dup4\n        /* \"#utility.yul\":1769:1785   */\n      add\n        /* \"#utility.yul\":1762:1789   */\n      mstore\n        /* \"#utility.yul\":1657:1796   */\n      pop\n      pop\n      pop\n      jump\t// out\n        /* \"#utility.yul\":1802:1904   */\n    tag_80:\n        /* \"#utility.yul\":1843:1849   */\n      0x00\n        /* \"#utility.yul\":1894:1896   */\n      0x1f\n        /* \"#utility.yul\":1890:1897   */\n      not\n        /* \"#utility.yul\":1885:1887   */\n      0x1f\n        /* \"#utility.yul\":1878:1883   */\n      dup4\n        /* \"#utility.yul\":1874:1888   */\n      add\n        /* \"#utility.yul\":1870:1898   */\n      and\n        /* \"#utility.yul\":1860:1898   */\n      swap1\n      pop\n        /* \"#utility.yul\":1802:1904   */\n      swap2\n      swap1\n      pop\n      jump\t// out\n        /* \"#utility.yul\":1910:2287   */\n    tag_81:\n        /* \"#utility.yul\":1998:2001   */\n      0x00\n        /* \"#utility.yul\":2026:2065   */\n      tag_140\n        /* \"#utility.yul\":2059:2064   */\n      dup3\n        /* \"#utility.yul\":2026:2065   */\n      tag_77\n      jump\t// in\n    tag_140:\n        /* \"#utility.yul\":2081:2152   */\n      tag_141\n        /* \"#utility.yul\":2145:2151   */\n      dup2\n        /* \"#utility.yul\":2140:2143   */\n      dup6\n        /* \"#utility.yul\":2081:2152   */\n      tag_78\n      jump\t// in\n    tag_141:\n        /* \"#utility.yul\":2074:2152   */\n      swap4\n      pop\n        /* \"#utility.yul\":2161:2226   */\n      tag_142\n        /* \"#utility.yul\":2219:2225   */\n      dup2\n        /* \"#utility.yul\":2214:2217   */\n      dup6\n        /* \"#utility.yul\":2207:2211   */\n      0x20\n        /* \"#utility.yul\":2200:2205   */\n      dup7\n        /* \"#utility.yul\":2196:2212   */\n      add\n        /* \"#utility.yul\":2161:2226   */\n      tag_79\n      jump\t// in\n    tag_142:\n        /* \"#utility.yul\":2251:2280   */\n      tag_143\n        /* \"#utility.yul\":2273:2279   */\n      dup2\n        /* \"#utility.yul\":2251:2280   */\n      tag_80\n      jump\t// in\n    tag_143:\n        /* \"#utility.yul\":2246:2249   */\n      dup5\n        /* \"#utility.yul\":2242:2281   */\n      add\n        /* \"#utility.yul\":2235:2281   */\n      swap2\n      pop\n        /* \"#utility.yul\":2002:2287   */\n      pop\n        /* \"#utility.yul\":1910:2287   */\n      swap3\n      swap2\n      pop\n      pop\n      jump\t// out\n        /* \"#utility.yul\":2293:2716   */\n    tag_20:\n        /* \"#utility.yul\":2434:2438   */\n      0x00\n        /* \"#utility.yul\":2472:2474   */\n      0x40\n        /* \"#utility.yul\":2461:2470   */\n      dup3\n        /* \"#utility.yul\":2457:2475   */\n      add\n        /* \"#utility.yul\":2449:2475   */\n      swap1\n      pop\n        /* \"#utility.yul\":2485:2556   */\n      tag_145\n        /* \"#utility.yul\":2553:2554   */\n      0x00\n        /* \"#utility.yul\":2542:2551   */\n      dup4\n        /* \"#utility.yul\":2538:2555   */\n      add\n        /* \"#utility.yul\":2529:2535   */\n      dup6\n        /* \"#utility.yul\":2485:2556   */\n      tag_71\n      jump\t// in\n    tag_145:\n        /* \"#utility.yul\":2603:2612   */\n      dup2\n        /* \"#utility.yul\":2597:2601   */\n      dup2\n        /* \"#utility.yul\":2593:2613   */\n      sub\n        /* \"#utility.yul\":2588:2590   */\n      0x20\n        /* \"#utility.yul\":2577:2586   */\n      dup4\n        /* \"#utility.yul\":2573:2591   */\n      add\n        /* \"#utility.yul\":2566:2614   */\n      mstore\n        /* \"#utility.yul\":2631:2709   */\n      tag_146\n        /* \"#utility.yul\":2704:2708   */\n      dup2\n        /* \"#utility.yul\":2695:2701   */\n      dup5\n        /* \"#utility.yul\":2631:2709   */\n      tag_81\n      jump\t// in\n    tag_146:\n        /* \"#utility.yul\":2623:2709   */\n      swap1\n      pop\n        /* \"#utility.yul\":2293:2716   */\n      swap4\n      swap3\n      pop\n      pop\n      pop\n      jump\t// out\n        /* \"#utility.yul\":2722:2848   */\n    tag_82:\n        /* \"#utility.yul\":2759:2766   */\n      0x00\n        /* \"#utility.yul\":2799:2841   */\n      0xffffffffffffffffffffffffffffffffffffffff\n        /* \"#utility.yul\":2792:2797   */\n      dup3\n        /* \"#utility.yul\":2788:2842   */\n      and\n        /* \"#utility.yul\":2777:2842   */\n      swap1\n      pop\n        /* \"#utility.yul\":2722:2848   */\n      swap2\n      swap1\n      pop\n      jump\t// out\n        /* \"#utility.yul\":2854:2950   */\n    tag_83:\n        /* \"#utility.yul\":2891:2898   */\n      0x00\n        /* \"#utility.yul\":2920:2944   */\n      tag_149\n        /* \"#utility.yul\":2938:2943   */\n      dup3\n        /* \"#utility.yul\":2920:2944   */\n      tag_82\n      jump\t// in\n    tag_149:\n        /* \"#utility.yul\":2909:2944   */\n      swap1\n      pop\n        /* \"#utility.yul\":2854:2950   */\n      swap2\n      swap1\n      pop\n      jump\t// out\n        /* \"#utility.yul\":2956:3078   */\n    tag_84:\n        /* \"#utility.yul\":3029:3053   */\n      tag_151\n        /* \"#utility.yul\":3047:3052   */\n      dup2\n        /* \"#utility.yul\":3029:3053   */\n      tag_83\n      jump\t// in\n    tag_151:\n        /* \"#utility.yul\":3022:3027   */\n      dup2\n        /* \"#utility.yul\":3019:3054   */\n      eq\n        /* \"#utility.yul\":3009:3072   */\n      tag_152\n      jumpi\n        /* \"#utility.yul\":3068:3069   */\n      0x00\n        /* \"#utility.yul\":3065:3066   */\n      dup1\n        /* \"#utility.yul\":3058:3070   */\n      revert\n        /* \"#utility.yul\":3009:3072   */\n    tag_152:\n        /* \"#utility.yul\":2956:3078   */\n      pop\n      jump\t// out\n        /* \"#utility.yul\":3084:3223   */\n    tag_85:\n        /* \"#utility.yul\":3130:3135   */\n      0x00\n        /* \"#utility.yul\":3168:3174   */\n      dup2\n        /* \"#utility.yul\":3155:3175   */\n      calldataload\n        /* \"#utility.yul\":3146:3175   */\n      swap1\n      pop\n        /* \"#utility.yul\":3184:3217   */\n      tag_154\n        /* \"#utility.yul\":3211:3216   */\n      dup2\n        /* \"#utility.yul\":3184:3217   */\n      tag_84\n      jump\t// in\n    tag_154:\n        /* \"#utility.yul\":3084:3223   */\n      swap3\n      swap2\n      pop\n      pop\n      jump\t// out\n        /* \"#utility.yul\":3229:3558   */\n    tag_23:\n        /* \"#utility.yul\":3288:3294   */\n      0x00\n        /* \"#utility.yul\":3337:3339   */\n      0x20\n        /* \"#utility.yul\":3325:3334   */\n      dup3\n        /* \"#utility.yul\":3316:3323   */\n      dup5\n        /* \"#utility.yul\":3312:3335   */\n      sub\n        /* \"#utility.yul\":3308:3340   */\n      slt\n        /* \"#utility.yul\":3305:3424   */\n      iszero\n      tag_156\n      jumpi\n        /* \"#utility.yul\":3343:3422   */\n      tag_157\n      tag_73\n      jump\t// in\n    tag_157:\n        /* \"#utility.yul\":3305:3424   */\n    tag_156:\n        /* \"#utility.yul\":3463:3464   */\n      0x00\n        /* \"#utility.yul\":3488:3541   */\n      tag_158\n        /* \"#utility.yul\":3533:3540   */\n      dup5\n        /* \"#utility.yul\":3524:3530   */\n      dup3\n        /* \"#utility.yul\":3513:3522   */\n      dup6\n        /* \"#utility.yul\":3509:3531   */\n      add\n        /* \"#utility.yul\":3488:3541   */\n      tag_85\n      jump\t// in\n    tag_158:\n        /* \"#utility.yul\":3478:3541   */\n      swap2\n      pop\n        /* \"#utility.yul\":3434:3551   */\n      pop\n        /* \"#utility.yul\":3229:3558   */\n      swap3\n      swap2\n      pop\n      pop\n      jump\t// out\n        /* \"#utility.yul\":3564:3681   */\n    tag_86:\n        /* \"#utility.yul\":3673:3674   */\n      0x00\n        /* \"#utility.yul\":3670:3671   */\n      dup1\n        /* \"#utility.yul\":3663:3675   */\n      revert\n        /* \"#utility.yul\":3687:3804   */\n    tag_87:\n        /* \"#utility.yul\":3796:3797   */\n      0x00\n        /* \"#utility.yul\":3793:3794   */\n      dup1\n        /* \"#utility.yul\":3786:3798   */\n      revert\n        /* \"#utility.yul\":3810:3990   */\n    tag_88:\n        /* \"#utility.yul\":3858:3935   */\n      0x4e487b7100000000000000000000000000000000000000000000000000000000\n        /* \"#utility.yul\":3855:3856   */\n      0x00\n        /* \"#utility.yul\":3848:3936   */\n      mstore\n        /* \"#utility.yul\":3955:3959   */\n      0x41\n        /* \"#utility.yul\":3952:3953   */\n      0x04\n        /* \"#utility.yul\":3945:3960   */\n      mstore\n        /* \"#utility.yul\":3979:3983   */\n      0x24\n        /* \"#utility.yul\":3976:3977   */\n      0x00\n        /* \"#utility.yul\":3969:3984   */\n      revert\n        /* \"#utility.yul\":3996:4277   */\n    tag_89:\n        /* \"#utility.yul\":4079:4106   */\n      tag_163\n        /* \"#utility.yul\":4101:4105   */\n      dup3\n        /* \"#utility.yul\":4079:4106   */\n      tag_80\n      jump\t// in\n    tag_163:\n        /* \"#utility.yul\":4071:4077   */\n      dup2\n        /* \"#utility.yul\":4067:4107   */\n      add\n        /* \"#utility.yul\":4209:4215   */\n      dup2\n        /* \"#utility.yul\":4197:4207   */\n      dup2\n        /* \"#utility.yul\":4194:4216   */\n      lt\n        /* \"#utility.yul\":4173:4191   */\n      0xffffffffffffffff\n        /* \"#utility.yul\":4161:4171   */\n      dup3\n        /* \"#utility.yul\":4158:4192   */\n      gt\n        /* \"#utility.yul\":4155:4217   */\n      or\n        /* \"#utility.yul\":4152:4240   */\n      iszero\n      tag_164\n      jumpi\n        /* \"#utility.yul\":4220:4238   */\n      tag_165\n      tag_88\n      jump\t// in\n    tag_165:\n        /* \"#utility.yul\":4152:4240   */\n    tag_164:\n        /* \"#utility.yul\":4260:4270   */\n      dup1\n        /* \"#utility.yul\":4256:4258   */\n      0x40\n        /* \"#utility.yul\":4249:4271   */\n      mstore\n        /* \"#utility.yul\":4039:4277   */\n      pop\n        /* \"#utility.yul\":3996:4277   */\n      pop\n      pop\n      jump\t// out\n        /* \"#utility.yul\":4283:4412   */\n    tag_90:\n        /* \"#utility.yul\":4317:4323   */\n      0x00\n        /* \"#utility.yul\":4344:4364   */\n      tag_167\n      tag_72\n      jump\t// in\n    tag_167:\n        /* \"#utility.yul\":4334:4364   */\n      swap1\n      pop\n        /* \"#utility.yul\":4373:4406   */\n      tag_168\n        /* \"#utility.yul\":4401:4405   */\n      dup3\n        /* \"#utility.yul\":4393:4399   */\n      dup3\n        /* \"#utility.yul\":4373:4406   */\n      tag_89\n      jump\t// in\n    tag_168:\n        /* \"#utility.yul\":4283:4412   */\n      swap2\n      swap1\n      pop\n      jump\t// out\n        /* \"#utility.yul\":4418:4726   */\n    tag_91:\n        /* \"#utility.yul\":4480:4484   */\n      0x00\n        /* \"#utility.yul\":4570:4588   */\n      0xffffffffffffffff\n        /* \"#utility.yul\":4562:4568   */\n      dup3\n        /* \"#utility.yul\":4559:4589   */\n      gt\n        /* \"#utility.yul\":4556:4612   */\n      iszero\n      tag_170\n      jumpi\n        /* \"#utility.yul\":4592:4610   */\n      tag_171\n      tag_88\n      jump\t// in\n    tag_171:\n        /* \"#utility.yul\":4556:4612   */\n    tag_170:\n        /* \"#utility.yul\":4630:4659   */\n      tag_172\n        /* \"#utility.yul\":4652:4658   */\n      dup3\n        /* \"#utility.yul\":4630:4659   */\n      tag_80\n      jump\t// in\n    tag_172:\n        /* \"#utility.yul\":4622:4659   */\n      swap1\n      pop\n        /* \"#utility.yul\":4714:4718   */\n      0x20\n        /* \"#utility.yul\":4708:4712   */\n      dup2\n        /* \"#utility.yul\":4704:4719   */\n      add\n        /* \"#utility.yul\":4696:4719   */\n      swap1\n      pop\n        /* \"#utility.yul\":4418:4726   */\n      swap2\n      swap1\n      pop\n      jump\t// out\n        /* \"#utility.yul\":4732:4880   */\n    tag_92:\n        /* \"#utility.yul\":4830:4836   */\n      dup3\n        /* \"#utility.yul\":4825:4828   */\n      dup2\n        /* \"#utility.yul\":4820:4823   */\n      dup4\n        /* \"#utility.yul\":4807:4837   */\n      calldatacopy\n        /* \"#utility.yul\":4871:4872   */\n      0x00\n        /* \"#utility.yul\":4862:4868   */\n      dup4\n        /* \"#utility.yul\":4857:4860   */\n      dup4\n        /* \"#utility.yul\":4853:4869   */\n      add\n        /* \"#utility.yul\":4846:4873   */\n      mstore\n        /* \"#utility.yul\":4732:4880   */\n      pop\n      pop\n      pop\n      jump\t// out\n        /* \"#utility.yul\":4886:5311   */\n    tag_93:\n        /* \"#utility.yul\":4964:4969   */\n      0x00\n        /* \"#utility.yul\":4989:5055   */\n      tag_175\n        /* \"#utility.yul\":5005:5054   */\n      tag_176\n        /* \"#utility.yul\":5047:5053   */\n      dup5\n        /* \"#utility.yul\":5005:5054   */\n      tag_91\n      jump\t// in\n    tag_176:\n        /* \"#utility.yul\":4989:5055   */\n      tag_90\n      jump\t// in\n    tag_175:\n        /* \"#utility.yul\":4980:5055   */\n      swap1\n      pop\n        /* \"#utility.yul\":5078:5084   */\n      dup3\n        /* \"#utility.yul\":5071:5076   */\n      dup2\n        /* \"#utility.yul\":5064:5085   */\n      mstore\n        /* \"#utility.yul\":5116:5120   */\n      0x20\n        /* \"#utility.yul\":5109:5114   */\n      dup2\n        /* \"#utility.yul\":5105:5121   */\n      add\n        /* \"#utility.yul\":5154:5157   */\n      dup5\n        /* \"#utility.yul\":5145:5151   */\n      dup5\n        /* \"#utility.yul\":5140:5143   */\n      dup5\n        /* \"#utility.yul\":5136:5152   */\n      add\n        /* \"#utility.yul\":5133:5158   */\n      gt\n        /* \"#utility.yul\":5130:5242   */\n      iszero\n      tag_177\n      jumpi\n        /* \"#utility.yul\":5161:5240   */\n      tag_178\n      tag_87\n      jump\t// in\n    tag_178:\n        /* \"#utility.yul\":5130:5242   */\n    tag_177:\n        /* \"#utility.yul\":5251:5305   */\n      tag_179\n        /* \"#utility.yul\":5298:5304   */\n      dup5\n        /* \"#utility.yul\":5293:5296   */\n      dup3\n        /* \"#utility.yul\":5288:5291   */\n      dup6\n        /* \"#utility.yul\":5251:5305   */\n      tag_92\n      jump\t// in\n    tag_179:\n        /* \"#utility.yul\":4970:5311   */\n      pop\n        /* \"#utility.yul\":4886:5311   */\n      swap4\n      swap3\n      pop\n      pop\n      pop\n      jump\t// out\n        /* \"#utility.yul\":5331:5671   */\n    tag_94:\n        /* \"#utility.yul\":5387:5392   */\n      0x00\n        /* \"#utility.yul\":5436:5439   */\n      dup3\n        /* \"#utility.yul\":5429:5433   */\n      0x1f\n        /* \"#utility.yul\":5421:5427   */\n      dup4\n        /* \"#utility.yul\":5417:5434   */\n      add\n        /* \"#utility.yul\":5413:5440   */\n      slt\n        /* \"#utility.yul\":5403:5525   */\n      tag_181\n      jumpi\n        /* \"#utility.yul\":5444:5523   */\n      tag_182\n      tag_86\n      jump\t// in\n    tag_182:\n        /* \"#utility.yul\":5403:5525   */\n    tag_181:\n        /* \"#utility.yul\":5561:5567   */\n      dup2\n        /* \"#utility.yul\":5548:5568   */\n      calldataload\n        /* \"#utility.yul\":5586:5665   */\n      tag_183\n        /* \"#utility.yul\":5661:5664   */\n      dup5\n        /* \"#utility.yul\":5653:5659   */\n      dup3\n        /* \"#utility.yul\":5646:5650   */\n      0x20\n        /* \"#utility.yul\":5638:5644   */\n      dup7\n        /* \"#utility.yul\":5634:5651   */\n      add\n        /* \"#utility.yul\":5586:5665   */\n      tag_93\n      jump\t// in\n    tag_183:\n        /* \"#utility.yul\":5577:5665   */\n      swap2\n      pop\n        /* \"#utility.yul\":5393:5671   */\n      pop\n        /* \"#utility.yul\":5331:5671   */\n      swap3\n      swap2\n      pop\n      pop\n      jump\t// out\n        /* \"#utility.yul\":5677:6186   */\n    tag_27:\n        /* \"#utility.yul\":5746:5752   */\n      0x00\n        /* \"#utility.yul\":5795:5797   */\n      0x20\n        /* \"#utility.yul\":5783:5792   */\n      dup3\n        /* \"#utility.yul\":5774:5781   */\n      dup5\n        /* \"#utility.yul\":5770:5793   */\n      sub\n        /* \"#utility.yul\":5766:5798   */\n      slt\n        /* \"#utility.yul\":5763:5882   */\n      iszero\n      tag_185\n      jumpi\n        /* \"#utility.yul\":5801:5880   */\n      tag_186\n      tag_73\n      jump\t// in\n    tag_186:\n        /* \"#utility.yul\":5763:5882   */\n    tag_185:\n        /* \"#utility.yul\":5949:5950   */\n      0x00\n        /* \"#utility.yul\":5938:5947   */\n      dup3\n        /* \"#utility.yul\":5934:5951   */\n      add\n        /* \"#utility.yul\":5921:5952   */\n      calldataload\n        /* \"#utility.yul\":5979:5997   */\n      0xffffffffffffffff\n        /* \"#utility.yul\":5971:5977   */\n      dup2\n        /* \"#utility.yul\":5968:5998   */\n      gt\n        /* \"#utility.yul\":5965:6082   */\n      iszero\n      tag_187\n      jumpi\n        /* \"#utility.yul\":6001:6080   */\n      tag_188\n      tag_74\n      jump\t// in\n    tag_188:\n        /* \"#utility.yul\":5965:6082   */\n    tag_187:\n        /* \"#utility.yul\":6106:6169   */\n      tag_189\n        /* \"#utility.yul\":6161:6168   */\n      dup5\n        /* \"#utility.yul\":6152:6158   */\n      dup3\n        /* \"#utility.yul\":6141:6150   */\n      dup6\n        /* \"#utility.yul\":6137:6159   */\n      add\n        /* \"#utility.yul\":6106:6169   */\n      tag_94\n      jump\t// in\n    tag_189:\n        /* \"#utility.yul\":6096:6169   */\n      swap2\n      pop\n        /* \"#utility.yul\":5892:6179   */\n      pop\n        /* \"#utility.yul\":5677:6186   */\n      swap3\n      swap2\n      pop\n      pop\n      jump\t// out\n        /* \"#utility.yul\":6192:6282   */\n    tag_95:\n        /* \"#utility.yul\":6226:6233   */\n      0x00\n        /* \"#utility.yul\":6269:6274   */\n      dup2\n        /* \"#utility.yul\":6262:6275   */\n      iszero\n        /* \"#utility.yul\":6255:6276   */\n      iszero\n        /* \"#utility.yul\":6244:6276   */\n      swap1\n      pop\n        /* \"#utility.yul\":6192:6282   */\n      swap2\n      swap1\n      pop\n      jump\t// out\n        /* \"#utility.yul\":6288:6397   */\n    tag_96:\n        /* \"#utility.yul\":6369:6390   */\n      tag_192\n        /* \"#utility.yul\":6384:6389   */\n      dup2\n        /* \"#utility.yul\":6369:6390   */\n      tag_95\n      jump\t// in\n    tag_192:\n        /* \"#utility.yul\":6364:6367   */\n      dup3\n        /* \"#utility.yul\":6357:6391   */\n      mstore\n        /* \"#utility.yul\":6288:6397   */\n      pop\n      pop\n      jump\t// out\n        /* \"#utility.yul\":6403:6613   */\n    tag_36:\n        /* \"#utility.yul\":6490:6494   */\n      0x00\n        /* \"#utility.yul\":6528:6530   */\n      0x20\n        /* \"#utility.yul\":6517:6526   */\n      dup3\n        /* \"#utility.yul\":6513:6531   */\n      add\n        /* \"#utility.yul\":6505:6531   */\n      swap1\n      pop\n        /* \"#utility.yul\":6541:6606   */\n      tag_194\n        /* \"#utility.yul\":6603:6604   */\n      0x00\n        /* \"#utility.yul\":6592:6601   */\n      dup4\n        /* \"#utility.yul\":6588:6605   */\n      add\n        /* \"#utility.yul\":6579:6585   */\n      dup5\n        /* \"#utility.yul\":6541:6606   */\n      tag_96\n      jump\t// in\n    tag_194:\n        /* \"#utility.yul\":6403:6613   */\n      swap3\n      swap2\n      pop\n      pop\n      jump\t// out\n        /* \"#utility.yul\":6619:6737   */\n    tag_97:\n        /* \"#utility.yul\":6706:6730   */\n      tag_196\n        /* \"#utility.yul\":6724:6729   */\n      dup2\n        /* \"#utility.yul\":6706:6730   */\n      tag_83\n      jump\t// in\n    tag_196:\n        /* \"#utility.yul\":6701:6704   */\n      dup3\n        /* \"#utility.yul\":6694:6731   */\n      mstore\n        /* \"#utility.yul\":6619:6737   */\n      pop\n      pop\n      jump\t// out\n        /* \"#utility.yul\":6743:6965   */\n    tag_40:\n        /* \"#utility.yul\":6836:6840   */\n      0x00\n        /* \"#utility.yul\":6874:6876   */\n      0x20\n        /* \"#utility.yul\":6863:6872   */\n      dup3\n        /* \"#utility.yul\":6859:6877   */\n      add\n        /* \"#utility.yul\":6851:6877   */\n      swap1\n      pop\n        /* \"#utility.yul\":6887:6958   */\n      tag_198\n        /* \"#utility.yul\":6955:6956   */\n      0x00\n        /* \"#utility.yul\":6944:6953   */\n      dup4\n        /* \"#utility.yul\":6940:6957   */\n      add\n        /* \"#utility.yul\":6931:6937   */\n      dup5\n        /* \"#utility.yul\":6887:6958   */\n      tag_97\n      jump\t// in\n    tag_198:\n        /* \"#utility.yul\":6743:6965   */\n      swap3\n      swap2\n      pop\n      pop\n      jump\t// out\n        /* \"#utility.yul\":6971:7151   */\n    tag_98:\n        /* \"#utility.yul\":7019:7096   */\n      0x4e487b7100000000000000000000000000000000000000000000000000000000\n        /* \"#utility.yul\":7016:7017   */\n      0x00\n        /* \"#utility.yul\":7009:7097   */\n      mstore\n        /* \"#utility.yul\":7116:7120   */\n      0x22\n        /* \"#utility.yul\":7113:7114   */\n      0x04\n        /* \"#utility.yul\":7106:7121   */\n      mstore\n        /* \"#utility.yul\":7140:7144   */\n      0x24\n        /* \"#utility.yul\":7137:7138   */\n      0x00\n        /* \"#utility.yul\":7130:7145   */\n      revert\n        /* \"#utility.yul\":7157:7477   */\n    tag_45:\n        /* \"#utility.yul\":7201:7207   */\n      0x00\n        /* \"#utility.yul\":7238:7239   */\n      0x02\n        /* \"#utility.yul\":7232:7236   */\n      dup3\n        /* \"#utility.yul\":7228:7240   */\n      div\n        /* \"#utility.yul\":7218:7240   */\n      swap1\n      pop\n        /* \"#utility.yul\":7285:7286   */\n      0x01\n        /* \"#utility.yul\":7279:7283   */\n      dup3\n        /* \"#utility.yul\":7275:7287   */\n      and\n        /* \"#utility.yul\":7306:7324   */\n      dup1\n        /* \"#utility.yul\":7296:7377   */\n      tag_201\n      jumpi\n        /* \"#utility.yul\":7362:7366   */\n      0x7f\n        /* \"#utility.yul\":7354:7360   */\n      dup3\n        /* \"#utility.yul\":7350:7367   */\n      and\n        /* \"#utility.yul\":7340:7367   */\n      swap2\n      pop\n        /* \"#utility.yul\":7296:7377   */\n    tag_201:\n        /* \"#utility.yul\":7424:7426   */\n      0x20\n        /* \"#utility.yul\":7416:7422   */\n      dup3\n        /* \"#utility.yul\":7413:7427   */\n      lt\n        /* \"#utility.yul\":7393:7411   */\n      dup2\n        /* \"#utility.yul\":7390:7428   */\n      sub\n        /* \"#utility.yul\":7387:7471   */\n      tag_202\n      jumpi\n        /* \"#utility.yul\":7443:7461   */\n      tag_203\n      tag_98\n      jump\t// in\n    tag_203:\n        /* \"#utility.yul\":7387:7471   */\n    tag_202:\n        /* \"#utility.yul\":7208:7477   */\n      pop\n        /* \"#utility.yul\":7157:7477   */\n      swap2\n      swap1\n      pop\n      jump\t// out\n        /* \"#utility.yul\":7483:7703   */\n    tag_99:\n        /* \"#utility.yul\":7623:7657   */\n      0x4f6e6c792061646d696e2063616e2063616c6c20746869732066756e6374696f\n        /* \"#utility.yul\":7619:7620   */\n      0x00\n        /* \"#utility.yul\":7611:7617   */\n      dup3\n        /* \"#utility.yul\":7607:7621   */\n      add\n        /* \"#utility.yul\":7600:7658   */\n      mstore\n        /* \"#utility.yul\":7692:7695   */\n      0x6e00000000000000000000000000000000000000000000000000000000000000\n        /* \"#utility.yul\":7687:7689   */\n      0x20\n        /* \"#utility.yul\":7679:7685   */\n      dup3\n        /* \"#utility.yul\":7675:7690   */\n      add\n        /* \"#utility.yul\":7668:7696   */\n      mstore\n        /* \"#utility.yul\":7483:7703   */\n      pop\n      jump\t// out\n        /* \"#utility.yul\":7709:8075   */\n    tag_100:\n        /* \"#utility.yul\":7851:7854   */\n      0x00\n        /* \"#utility.yul\":7872:7939   */\n      tag_206\n        /* \"#utility.yul\":7936:7938   */\n      0x21\n        /* \"#utility.yul\":7931:7934   */\n      dup4\n        /* \"#utility.yul\":7872:7939   */\n      tag_78\n      jump\t// in\n    tag_206:\n        /* \"#utility.yul\":7865:7939   */\n      swap2\n      pop\n        /* \"#utility.yul\":7948:8041   */\n      tag_207\n        /* \"#utility.yul\":8037:8040   */\n      dup3\n        /* \"#utility.yul\":7948:8041   */\n      tag_99\n      jump\t// in\n    tag_207:\n        /* \"#utility.yul\":8066:8068   */\n      0x40\n        /* \"#utility.yul\":8061:8064   */\n      dup3\n        /* \"#utility.yul\":8057:8069   */\n      add\n        /* \"#utility.yul\":8050:8069   */\n      swap1\n      pop\n        /* \"#utility.yul\":7709:8075   */\n      swap2\n      swap1\n      pop\n      jump\t// out\n        /* \"#utility.yul\":8081:8500   */\n    tag_53:\n        /* \"#utility.yul\":8247:8251   */\n      0x00\n        /* \"#utility.yul\":8285:8287   */\n      0x20\n        /* \"#utility.yul\":8274:8283   */\n      dup3\n        /* \"#utility.yul\":8270:8288   */\n      add\n        /* \"#utility.yul\":8262:8288   */\n      swap1\n      pop\n        /* \"#utility.yul\":8334:8343   */\n      dup2\n        /* \"#utility.yul\":8328:8332   */\n      dup2\n        /* \"#utility.yul\":8324:8344   */\n      sub\n        /* \"#utility.yul\":8320:8321   */\n      0x00\n        /* \"#utility.yul\":8309:8318   */\n      dup4\n        /* \"#utility.yul\":8305:8322   */\n      add\n        /* \"#utility.yul\":8298:8345   */\n      mstore\n        /* \"#utility.yul\":8362:8493   */\n      tag_209\n        /* \"#utility.yul\":8488:8492   */\n      dup2\n        /* \"#utility.yul\":8362:8493   */\n      tag_100\n      jump\t// in\n    tag_209:\n        /* \"#utility.yul\":8354:8493   */\n      swap1\n      pop\n        /* \"#utility.yul\":8081:8500   */\n      swap2\n      swap1\n      pop\n      jump\t// out\n        /* \"#utility.yul\":8506:8686   */\n    tag_101:\n        /* \"#utility.yul\":8554:8631   */\n      0x4e487b7100000000000000000000000000000000000000000000000000000000\n        /* \"#utility.yul\":8551:8552   */\n      0x00\n        /* \"#utility.yul\":8544:8632   */\n      mstore\n        /* \"#utility.yul\":8651:8655   */\n      0x11\n        /* \"#utility.yul\":8648:8649   */\n      0x04\n        /* \"#utility.yul\":8641:8656   */\n      mstore\n        /* \"#utility.yul\":8675:8679   */\n      0x24\n        /* \"#utility.yul\":8672:8673   */\n      0x00\n        /* \"#utility.yul\":8665:8680   */\n      revert\n        /* \"#utility.yul\":8692:8883   */\n    tag_60:\n        /* \"#utility.yul\":8732:8735   */\n      0x00\n        /* \"#utility.yul\":8751:8771   */\n      tag_212\n        /* \"#utility.yul\":8769:8770   */\n      dup3\n        /* \"#utility.yul\":8751:8771   */\n      tag_70\n      jump\t// in\n    tag_212:\n        /* \"#utility.yul\":8746:8771   */\n      swap2\n      pop\n        /* \"#utility.yul\":8785:8805   */\n      tag_213\n        /* \"#utility.yul\":8803:8804   */\n      dup4\n        /* \"#utility.yul\":8785:8805   */\n      tag_70\n      jump\t// in\n    tag_213:\n        /* \"#utility.yul\":8780:8805   */\n      swap3\n      pop\n        /* \"#utility.yul\":8828:8829   */\n      dup3\n        /* \"#utility.yul\":8825:8826   */\n      dup3\n        /* \"#utility.yul\":8821:8830   */\n      add\n        /* \"#utility.yul\":8814:8830   */\n      swap1\n      pop\n        /* \"#utility.yul\":8849:8852   */\n      dup1\n        /* \"#utility.yul\":8846:8847   */\n      dup3\n        /* \"#utility.yul\":8843:8853   */\n      gt\n        /* \"#utility.yul\":8840:8876   */\n      iszero\n      tag_214\n      jumpi\n        /* \"#utility.yul\":8856:8874   */\n      tag_215\n      tag_101\n      jump\t// in\n    tag_215:\n        /* \"#utility.yul\":8840:8876   */\n    tag_214:\n        /* \"#utility.yul\":8692:8883   */\n      swap3\n      swap2\n      pop\n      pop\n      jump\t// out\n        /* \"#utility.yul\":8889:9030   */\n    tag_102:\n        /* \"#utility.yul\":8938:8942   */\n      0x00\n        /* \"#utility.yul\":8961:8964   */\n      dup2\n        /* \"#utility.yul\":8953:8964   */\n      swap1\n      pop\n        /* \"#utility.yul\":8984:8987   */\n      dup2\n        /* \"#utility.yul\":8981:8982   */\n      0x00\n        /* \"#utility.yul\":8974:8988   */\n      mstore\n        /* \"#utility.yul\":9018:9022   */\n      0x20\n        /* \"#utility.yul\":9015:9016   */\n      0x00\n        /* \"#utility.yul\":9005:9023   */\n      keccak256\n        /* \"#utility.yul\":8997:9023   */\n      swap1\n      pop\n        /* \"#utility.yul\":8889:9030   */\n      swap2\n      swap1\n      pop\n      jump\t// out\n        /* \"#utility.yul\":9036:9129   */\n    tag_103:\n        /* \"#utility.yul\":9073:9079   */\n      0x00\n        /* \"#utility.yul\":9120:9122   */\n      0x20\n        /* \"#utility.yul\":9115:9117   */\n      0x1f\n        /* \"#utility.yul\":9108:9113   */\n      dup4\n        /* \"#utility.yul\":9104:9118   */\n      add\n        /* \"#utility.yul\":9100:9123   */\n      div\n        /* \"#utility.yul\":9090:9123   */\n      swap1\n      pop\n        /* \"#utility.yul\":9036:9129   */\n      swap2\n      swap1\n      pop\n      jump\t// out\n        /* \"#utility.yul\":9135:9242   */\n    tag_104:\n        /* \"#utility.yul\":9179:9187   */\n      0x00\n        /* \"#utility.yul\":9229:9234   */\n      dup3\n        /* \"#utility.yul\":9223:9227   */\n      dup3\n        /* \"#utility.yul\":9219:9235   */\n      shl\n        /* \"#utility.yul\":9198:9235   */\n      swap1\n      pop\n        /* \"#utility.yul\":9135:9242   */\n      swap3\n      swap2\n      pop\n      pop\n      jump\t// out\n        /* \"#utility.yul\":9248:9641   */\n    tag_105:\n        /* \"#utility.yul\":9317:9323   */\n      0x00\n        /* \"#utility.yul\":9367:9368   */\n      0x08\n        /* \"#utility.yul\":9355:9365   */\n      dup4\n        /* \"#utility.yul\":9351:9369   */\n      mul\n        /* \"#utility.yul\":9390:9487   */\n      tag_220\n        /* \"#utility.yul\":9420:9486   */\n      0xffffffffffffffffffffffffffffffffffffffffffffffffffffffffffffffff\n        /* \"#utility.yul\":9409:9418   */\n      dup3\n        /* \"#utility.yul\":9390:9487   */\n      tag_104\n      jump\t// in\n    tag_220:\n        /* \"#utility.yul\":9508:9547   */\n      tag_221\n        /* \"#utility.yul\":9538:9546   */\n      dup7\n        /* \"#utility.yul\":9527:9536   */\n      dup4\n        /* \"#utility.yul\":9508:9547   */\n      tag_104\n      jump\t// in\n    tag_221:\n        /* \"#utility.yul\":9496:9547   */\n      swap6\n      pop\n        /* \"#utility.yul\":9580:9584   */\n      dup1\n        /* \"#utility.yul\":9576:9585   */\n      not\n        /* \"#utility.yul\":9569:9574   */\n      dup5\n        /* \"#utility.yul\":9565:9586   */\n      and\n        /* \"#utility.yul\":9556:9586   */\n      swap4\n      pop\n        /* \"#utility.yul\":9629:9633   */\n      dup1\n        /* \"#utility.yul\":9619:9627   */\n      dup7\n        /* \"#utility.yul\":9615:9634   */\n      and\n        /* \"#utility.yul\":9608:9613   */\n      dup5\n        /* \"#utility.yul\":9605:9635   */\n      or\n        /* \"#utility.yul\":9595:9635   */\n      swap3\n      pop\n        /* \"#utility.yul\":9324:9641   */\n      pop\n      pop\n        /* \"#utility.yul\":9248:9641   */\n      swap4\n      swap3\n      pop\n      pop\n      pop\n      jump\t// out\n        /* \"#utility.yul\":9647:9707   */\n    tag_106:\n        /* \"#utility.yul\":9675:9678   */\n      0x00\n        /* \"#utility.yul\":9696:9701   */\n      dup2\n        /* \"#utility.yul\":9689:9701   */\n      swap1\n      pop\n        /* \"#utility.yul\":9647:9707   */\n      swap2\n      swap1\n      pop\n      jump\t// out\n        /* \"#utility.yul\":9713:9855   */\n    tag_107:\n        /* \"#utility.yul\":9763:9772   */\n      0x00\n        /* \"#utility.yul\":9796:9849   */\n      tag_224\n        /* \"#utility.yul\":9814:9848   */\n      tag_225\n        /* \"#utility.yul\":9823:9847   */\n      tag_226\n        /* \"#utility.yul\":9841:9846   */\n      dup5\n        /* \"#utility.yul\":9823:9847   */\n      tag_70\n      jump\t// in\n    tag_226:\n        /* \"#utility.yul\":9814:9848   */\n      tag_106\n      jump\t// in\n    tag_225:\n        /* \"#utility.yul\":9796:9849   */\n      tag_70\n      jump\t// in\n    tag_224:\n        /* \"#utility.yul\":9783:9849   */\n      swap1\n      pop\n        /* \"#utility.yul\":9713:9855   */\n      swap2\n      swap1\n      pop\n      jump\t// out\n        /* \"#utility.yul\":9861:9936   */\n    tag_108:\n        /* \"#utility.yul\":9904:9907   */\n      0x00\n        /* \"#utility.yul\":9925:9930   */\n      dup2\n        /* \"#utility.yul\":9918:9930   */\n      swap1\n      pop\n        /* \"#utility.yul\":9861:9936   */\n      swap2\n      swap1\n      pop\n      jump\t// out\n        /* \"#utility.yul\":9942:10211   */\n    tag_109:\n        /* \"#utility.yul\":10052:10091   */\n      tag_229\n        /* \"#utility.yul\":10083:10090   */\n      dup4\n        /* \"#utility.yul\":10052:10091   */\n      tag_107\n      jump\t// in\n    tag_229:\n        /* \"#utility.yul\":10113:10204   */\n      tag_230\n        /* \"#utility.yul\":10162:10203   */\n      tag_231\n        /* \"#utility.yul\":10186:10202   */\n      dup3\n        /* \"#utility.yul\":10162:10203   */\n      tag_108\n      jump\t// in\n    tag_231:\n        /* \"#utility.yul\":10154:10160   */\n      dup5\n        /* \"#utility.yul\":10147:10151   */\n      dup5\n        /* \"#utility.yul\":10141:10152   */\n      sload\n        /* \"#utility.yul\":10113:10204   */\n      tag_105\n      jump\t// in\n    tag_230:\n        /* \"#utility.yul\":10107:10111   */\n      dup3\n        /* \"#utility.yul\":10100:10205   */\n      sstore\n        /* \"#utility.yul\":10018:10211   */\n      pop\n        /* \"#utility.yul\":9942:10211   */\n      pop\n      pop\n      pop\n      jump\t// out\n        /* \"#utility.yul\":10217:10290   */\n    tag_110:\n        /* \"#utility.yul\":10262:10265   */\n      0x00\n        /* \"#utility.yul\":10217:10290   */\n      swap1\n      jump\t// out\n        /* \"#utility.yul\":10296:10485   */\n    tag_111:\n        /* \"#utility.yul\":10373:10405   */\n      tag_234\n      tag_110\n      jump\t// in\n    tag_234:\n        /* \"#utility.yul\":10414:10479   */\n      tag_235\n        /* \"#utility.yul\":10472:10478   */\n      dup2\n        /* \"#utility.yul\":10464:10470   */\n      dup5\n        /* \"#utility.yul\":10458:10462   */\n      dup5\n        /* \"#utility.yul\":10414:10479   */\n      tag_109\n      jump\t// in\n    tag_235:\n        /* \"#utility.yul\":10349:10485   */\n      pop\n        /* \"#utility.yul\":10296:10485   */\n      pop\n      pop\n      jump\t// out\n        /* \"#utility.yul\":10491:10677   */\n    tag_112:\n        /* \"#utility.yul\":10551:10671   */\n    tag_237:\n        /* \"#utility.yul\":10568:10571   */\n      dup2\n        /* \"#utility.yul\":10561:10566   */\n      dup2\n        /* \"#utility.yul\":10558:10572   */\n      lt\n        /* \"#utility.yul\":10551:10671   */\n      iszero\n      tag_239\n      jumpi\n        /* \"#utility.yul\":10622:10661   */\n      tag_240\n        /* \"#utility.yul\":10659:10660   */\n      0x00\n        /* \"#utility.yul\":10652:10657   */\n      dup3\n        /* \"#utility.yul\":10622:10661   */\n      tag_111\n      jump\t// in\n    tag_240:\n        /* \"#utility.yul\":10595:10596   */\n      0x01\n        /* \"#utility.yul\":10588:10593   */\n      dup2\n        /* \"#utility.yul\":10584:10597   */\n      add\n        /* \"#utility.yul\":10575:10597   */\n      swap1\n      pop\n        /* \"#utility.yul\":10551:10671   */\n      jump(tag_237)\n    tag_239:\n        /* \"#utility.yul\":10491:10677   */\n      pop\n      pop\n      jump\t// out\n        /* \"#utility.yul\":10683:11226   */\n    tag_113:\n        /* \"#utility.yul\":10784:10786   */\n      0x1f\n        /* \"#utility.yul\":10779:10782   */\n      dup3\n        /* \"#utility.yul\":10776:10787   */\n      gt\n        /* \"#utility.yul\":10773:11219   */\n      iszero\n      tag_242\n      jumpi\n        /* \"#utility.yul\":10818:10856   */\n      tag_243\n        /* \"#utility.yul\":10850:10855   */\n      dup2\n        /* \"#utility.yul\":10818:10856   */\n      tag_102\n      jump\t// in\n    tag_243:\n        /* \"#utility.yul\":10902:10931   */\n      tag_244\n        /* \"#utility.yul\":10920:10930   */\n      dup5\n        /* \"#utility.yul\":10902:10931   */\n      tag_103\n      jump\t// in\n    tag_244:\n        /* \"#utility.yul\":10892:10900   */\n      dup2\n        /* \"#utility.yul\":10888:10932   */\n      add\n        /* \"#utility.yul\":11085:11087   */\n      0x20\n        /* \"#utility.yul\":11073:11083   */\n      dup6\n        /* \"#utility.yul\":11070:11088   */\n      lt\n        /* \"#utility.yul\":11067:11116   */\n      iszero\n      tag_245\n      jumpi\n        /* \"#utility.yul\":11106:11114   */\n      dup2\n        /* \"#utility.yul\":11091:11114   */\n      swap1\n      pop\n        /* \"#utility.yul\":11067:11116   */\n    tag_245:\n        /* \"#utility.yul\":11129:11209   */\n      tag_246\n        /* \"#utility.yul\":11185:11207   */\n      tag_247\n        /* \"#utility.yul\":11203:11206   */\n      dup6\n        /* \"#utility.yul\":11185:11207   */\n      tag_103\n      jump\t// in\n    tag_247:\n        /* \"#utility.yul\":11175:11183   */\n      dup4\n        /* \"#utility.yul\":11171:11208   */\n      add\n        /* \"#utility.yul\":11158:11169   */\n      dup3\n        /* \"#utility.yul\":11129:11209   */\n      tag_112\n      jump\t// in\n    tag_246:\n        /* \"#utility.yul\":10788:11219   */\n      pop\n      pop\n        /* \"#utility.yul\":10773:11219   */\n    tag_242:\n        /* \"#utility.yul\":10683:11226   */\n      pop\n      pop\n      pop\n      jump\t// out\n        /* \"#utility.yul\":11232:11349   */\n    tag_114:\n        /* \"#utility.yul\":11286:11294   */\n      0x00\n        /* \"#utility.yul\":11336:11341   */\n      dup3\n        /* \"#utility.yul\":11330:11334   */\n      dup3\n        /* \"#utility.yul\":11326:11342   */\n      shr\n        /* \"#utility.yul\":11305:11342   */\n      swap1\n      pop\n        /* \"#utility.yul\":11232:11349   */\n      swap3\n      swap2\n      pop\n      pop\n      jump\t// out\n        /* \"#utility.yul\":11355:11524   */\n    tag_115:\n        /* \"#utility.yul\":11399:11405   */\n      0x00\n        /* \"#utility.yul\":11432:11483   */\n      tag_250\n        /* \"#utility.yul\":11480:11481   */\n      0x00\n        /* \"#utility.yul\":11476:11482   */\n      not\n        /* \"#utility.yul\":11468:11473   */\n      dup5\n        /* \"#utility.yul\":11465:11466   */\n      0x08\n        /* \"#utility.yul\":11461:11474   */\n      mul\n        /* \"#utility.yul\":11432:11483   */\n      tag_114\n      jump\t// in\n    tag_250:\n        /* \"#utility.yul\":11428:11484   */\n      not\n        /* \"#utility.yul\":11513:11517   */\n      dup1\n        /* \"#utility.yul\":11507:11511   */\n      dup4\n        /* \"#utility.yul\":11503:11518   */\n      and\n        /* \"#utility.yul\":11493:11518   */\n      swap2\n      pop\n        /* \"#utility.yul\":11406:11524   */\n      pop\n        /* \"#utility.yul\":11355:11524   */\n      swap3\n      swap2\n      pop\n      pop\n      jump\t// out\n        /* \"#utility.yul\":11529:11824   */\n    tag_116:\n        /* \"#utility.yul\":11605:11609   */\n      0x00\n        /* \"#utility.yul\":11751:11780   */\n      tag_252\n        /* \"#utility.yul\":11776:11779   */\n      dup4\n        /* \"#utility.yul\":11770:11774   */\n      dup4\n        /* \"#utility.yul\":11751:11780   */\n      tag_115\n      jump\t// in\n    tag_252:\n        /* \"#utility.yul\":11743:11780   */\n      swap2\n      pop\n        /* \"#utility.yul\":11813:11816   */\n      dup3\n        /* \"#utility.yul\":11810:11811   */\n      0x02\n        /* \"#utility.yul\":11806:11817   */\n      mul\n        /* \"#utility.yul\":11800:11804   */\n      dup3\n        /* \"#utility.yul\":11797:11818   */\n      or\n        /* \"#utility.yul\":11789:11818   */\n      swap1\n      pop\n        /* \"#utility.yul\":11529:11824   */\n      swap3\n      swap2\n      pop\n      pop\n      jump\t// out\n        /* \"#utility.yul\":11829:13224   */\n    tag_63:\n        /* \"#utility.yul\":11946:11983   */\n      tag_254\n        /* \"#utility.yul\":11979:11982   */\n      dup3\n        /* \"#utility.yul\":11946:11983   */\n      tag_77\n      jump\t// in\n    tag_254:\n        /* \"#utility.yul\":12048:12066   */\n      0xffffffffffffffff\n        /* \"#utility.yul\":12040:12046   */\n      dup2\n        /* \"#utility.yul\":12037:12067   */\n      gt\n        /* \"#utility.yul\":12034:12090   */\n      iszero\n      tag_255\n      jumpi\n        /* \"#utility.yul\":12070:12088   */\n      tag_256\n      tag_88\n      jump\t// in\n    tag_256:\n        /* \"#utility.yul\":12034:12090   */\n    tag_255:\n        /* \"#utility.yul\":12114:12152   */\n      tag_257\n        /* \"#utility.yul\":12146:12150   */\n      dup3\n        /* \"#utility.yul\":12140:12151   */\n      sload\n        /* \"#utility.yul\":12114:12152   */\n      tag_45\n      jump\t// in\n    tag_257:\n        /* \"#utility.yul\":12199:12266   */\n      tag_258\n        /* \"#utility.yul\":12259:12265   */\n      dup3\n        /* \"#utility.yul\":12251:12257   */\n      dup3\n        /* \"#utility.yul\":12245:12249   */\n      dup6\n        /* \"#utility.yul\":12199:12266   */\n      tag_113\n      jump\t// in\n    tag_258:\n        /* \"#utility.yul\":12293:12294   */\n      0x00\n        /* \"#utility.yul\":12317:12321   */\n      0x20\n        /* \"#utility.yul\":12304:12321   */\n      swap1\n      pop\n        /* \"#utility.yul\":12349:12351   */\n      0x1f\n        /* \"#utility.yul\":12341:12347   */\n      dup4\n        /* \"#utility.yul\":12338:12352   */\n      gt\n        /* \"#utility.yul\":12366:12367   */\n      0x01\n        /* \"#utility.yul\":12361:12979   */\n      dup2\n      eq\n      tag_260\n      jumpi\n        /* \"#utility.yul\":13023:13024   */\n      0x00\n        /* \"#utility.yul\":13040:13046   */\n      dup5\n        /* \"#utility.yul\":13037:13114   */\n      iszero\n      tag_261\n      jumpi\n        /* \"#utility.yul\":13089:13098   */\n      dup3\n        /* \"#utility.yul\":13084:13087   */\n      dup8\n        /* \"#utility.yul\":13080:13099   */\n      add\n        /* \"#utility.yul\":13074:13100   */\n      mload\n        /* \"#utility.yul\":13065:13100   */\n      swap1\n      pop\n        /* \"#utility.yul\":13037:13114   */\n    tag_261:\n        /* \"#utility.yul\":13140:13207   */\n      tag_262\n        /* \"#utility.yul\":13200:13206   */\n      dup6\n        /* \"#utility.yul\":13193:13198   */\n      dup3\n        /* \"#utility.yul\":13140:13207   */\n      tag_116\n      jump\t// in\n    tag_262:\n        /* \"#utility.yul\":13134:13138   */\n      dup7\n        /* \"#utility.yul\":13127:13208   */\n      sstore\n        /* \"#utility.yul\":12996:13218   */\n      pop\n        /* \"#utility.yul\":12331:13218   */\n      jump(tag_259)\n        /* \"#utility.yul\":12361:12979   */\n    tag_260:\n        /* \"#utility.yul\":12413:12417   */\n      0x1f\n        /* \"#utility.yul\":12409:12418   */\n      not\n        /* \"#utility.yul\":12401:12407   */\n      dup5\n        /* \"#utility.yul\":12397:12419   */\n      and\n        /* \"#utility.yul\":12447:12484   */\n      tag_263\n        /* \"#utility.yul\":12479:12483   */\n      dup7\n        /* \"#utility.yul\":12447:12484   */\n      tag_102\n      jump\t// in\n    tag_263:\n        /* \"#utility.yul\":12506:12507   */\n      0x00\n        /* \"#utility.yul\":12520:12728   */\n    tag_264:\n        /* \"#utility.yul\":12534:12541   */\n      dup3\n        /* \"#utility.yul\":12531:12532   */\n      dup2\n        /* \"#utility.yul\":12528:12542   */\n      lt\n        /* \"#utility.yul\":12520:12728   */\n      iszero\n      tag_266\n      jumpi\n        /* \"#utility.yul\":12613:12622   */\n      dup5\n        /* \"#utility.yul\":12608:12611   */\n      dup10\n        /* \"#utility.yul\":12604:12623   */\n      add\n        /* \"#utility.yul\":12598:12624   */\n      mload\n        /* \"#utility.yul\":12590:12596   */\n      dup3\n        /* \"#utility.yul\":12583:12625   */\n      sstore\n        /* \"#utility.yul\":12664:12665   */\n      0x01\n        /* \"#utility.yul\":12656:12662   */\n      dup3\n        /* \"#utility.yul\":12652:12666   */\n      add\n        /* \"#utility.yul\":12642:12666   */\n      swap2\n      pop\n        /* \"#utility.yul\":12711:12713   */\n      0x20\n        /* \"#utility.yul\":12700:12709   */\n      dup6\n        /* \"#utility.yul\":12696:12714   */\n      add\n        /* \"#utility.yul\":12683:12714   */\n      swap5\n      pop\n        /* \"#utility.yul\":12557:12561   */\n      0x20\n        /* \"#utility.yul\":12554:12555   */\n      dup2\n        /* \"#utility.yul\":12550:12562   */\n      add\n        /* \"#utility.yul\":12545:12562   */\n      swap1\n      pop\n        /* \"#utility.yul\":12520:12728   */\n      jump(tag_264)\n    tag_266:\n        /* \"#utility.yul\":12756:12762   */\n      dup7\n        /* \"#utility.yul\":12747:12754   */\n      dup4\n        /* \"#utility.yul\":12744:12763   */\n      lt\n        /* \"#utility.yul\":12741:12920   */\n      iszero\n      tag_267\n      jumpi\n        /* \"#utility.yul\":12814:12823   */\n      dup5\n        /* \"#utility.yul\":12809:12812   */\n      dup10\n        /* \"#utility.yul\":12805:12824   */\n      add\n        /* \"#utility.yul\":12799:12825   */\n      mload\n        /* \"#utility.yul\":12857:12905   */\n      tag_268\n        /* \"#utility.yul\":12899:12903   */\n      0x1f\n        /* \"#utility.yul\":12891:12897   */\n      dup10\n        /* \"#utility.yul\":12887:12904   */\n      and\n        /* \"#utility.yul\":12876:12885   */\n      dup3\n        /* \"#utility.yul\":12857:12905   */\n      tag_115\n      jump\t// in\n    tag_268:\n        /* \"#utility.yul\":12849:12855   */\n      dup4\n        /* \"#utility.yul\":12842:12906   */\n      sstore\n        /* \"#utility.yul\":12764:12920   */\n      pop\n        /* \"#utility.yul\":12741:12920   */\n    tag_267:\n        /* \"#utility.yul\":12966:12967   */\n      0x01\n        /* \"#utility.yul\":12962:12963   */\n      0x02\n        /* \"#utility.yul\":12954:12960   */\n      dup9\n        /* \"#utility.yul\":12950:12964   */\n      mul\n        /* \"#utility.yul\":12946:12968   */\n      add\n        /* \"#utility.yul\":12940:12944   */\n      dup9\n        /* \"#utility.yul\":12933:12969   */\n      sstore\n        /* \"#utility.yul\":12368:12979   */\n      pop\n      pop\n      pop\n        /* \"#utility.yul\":12331:13218   */\n    tag_259:\n      pop\n        /* \"#utility.yul\":11921:13224   */\n      pop\n      pop\n      pop\n        /* \"#utility.yul\":11829:13224   */\n      pop\n      pop\n      jump\t// out\n        /* \"#utility.yul\":13230:13543   */\n    tag_65:\n        /* \"#utility.yul\":13343:13347   */\n      0x00\n        /* \"#utility.yul\":13381:13383   */\n      0x20\n        /* \"#utility.yul\":13370:13379   */\n      dup3\n        /* \"#utility.yul\":13366:13384   */\n      add\n        /* \"#utility.yul\":13358:13384   */\n      swap1\n      pop\n        /* \"#utility.yul\":13430:13439   */\n      dup2\n        /* \"#utility.yul\":13424:13428   */\n      dup2\n        /* \"#utility.yul\":13420:13440   */\n      sub\n        /* \"#utility.yul\":13416:13417   */\n      0x00\n        /* \"#utility.yul\":13405:13414   */\n      dup4\n        /* \"#utility.yul\":13401:13418   */\n      add\n        /* \"#utility.yul\":13394:13441   */\n      mstore\n        /* \"#utility.yul\":13458:13536   */\n      tag_270\n        /* \"#utility.yul\":13531:13535   */\n      dup2\n        /* \"#utility.yul\":13522:13528   */\n      dup5\n        /* \"#utility.yul\":13458:13536   */\n      tag_81\n      jump\t// in\n    tag_270:\n        /* \"#utility.yul\":13450:13536   */\n      swap1\n      pop\n        /* \"#utility.yul\":13230:13543   */\n      swap3\n      swap2\n      pop\n      pop\n      jump\t// out\n\n    auxdata: 0xa26469706673582212206eb0fb25b966dd99f0e39f117d1ba0419c0136800f89eb64c448743f16a937cc64736f6c63430008190033\n}\n",
				"bytecode": {
					"linkReferences": {},
					"object": "6080604052348015600e575f80fd5b50335f806101000a81548173ffffffffffffffffffffffffffffffffffffffff021916908373ffffffffffffffffffffffffffffffffffffffff160217905550610d018061005b5f395ff3fe608060405234801561000f575f80fd5b506004361061007b575f3560e01c8063462e91ec11610059578063462e91ec146100ea5780637ed1775114610106578063a3ec138d14610122578063f851a440146101525761007b565b806330a563471461007f5780633477ee2e1461009d57806338db6dd3146100ce575b5f80fd5b610087610170565b6040516100949190610584565b60405180910390f35b6100b760048036038101906100b291906105d8565b61017c565b6040516100c5929190610673565b60405180910390f35b6100e860048036038101906100e391906106fb565b610231565b005b61010460048036038101906100ff9190610852565b610316565b005b610120600480360381019061011b91906106fb565b610450565b005b61013c600480360381019061013791906106fb565b61052c565b60405161014991906108b3565b60405180910390f35b61015a610549565b60405161016791906108db565b60405180910390f35b5f600180549050905090565b6001818154811061018b575f80fd5b905f5260205f2090600202015f91509050805f0154908060010180546101b090610921565b80601f01602080910402602001604051908101604052809291908181526020018280546101dc90610921565b80156102275780601f106101fe57610100808354040283529160200191610227565b820191905f5260205f20905b81548152906001019060200180831161020a57829003601f168201915b5050505050905082565b5f8054906101000a900473ffffffffffffffffffffffffffffffffffffffff1673ffffffffffffffffffffffffffffffffffffffff163373ffffffffffffffffffffffffffffffffffffffff16146102be576040517f08c379a00000000000000000000000000000000000000000000000000000000081526004016102b5906109c1565b60405180910390fd5b600160025f8373ffffffffffffffffffffffffffffffffffffffff1673ffffffffffffffffffffffffffffffffffffffff1681526020019081526020015f205f6101000a81548160ff02191690831515021790555050565b5f8054906101000a900473ffffffffffffffffffffffffffffffffffffffff1673ffffffffffffffffffffffffffffffffffffffff163373ffffffffffffffffffffffffffffffffffffffff16146103a3576040517f08c379a000000000000000000000000000000000000000000000000000000000815260040161039a906109c1565b60405180910390fd5b60016040518060400160405280600180805490506103c19190610a0c565b815260200183815250908060018154018082558091505060019003905f5260205f2090600202015f909190919091505f820151815f0155602082015181600101908161040d9190610bdc565b5050506001805490507fe83b2a43e7e82d975c8a0a6d2f045153c869e111136a34d1889ab7b598e396a3826040516104459190610cab565b60405180910390a250565b5f8054906101000a900473ffffffffffffffffffffffffffffffffffffffff1673ffffffffffffffffffffffffffffffffffffffff163373ffffffffffffffffffffffffffffffffffffffff16146104dd576040517f08c379a00000000000000000000000000000000000000000000000000000000081526004016104d4906109c1565b60405180910390fd5b60025f8273ffffffffffffffffffffffffffffffffffffffff1673ffffffffffffffffffffffffffffffffffffffff1681526020019081526020015f205f6101000a81549060ff021916905550565b6002602052805f5260405f205f915054906101000a900460ff1681565b5f8054906101000a900473ffffffffffffffffffffffffffffffffffffffff1681565b5f819050919050565b61057e8161056c565b82525050565b5f6020820190506105975f830184610575565b92915050565b5f604051905090565b5f80fd5b5f80fd5b6105b78161056c565b81146105c1575f80fd5b50565b5f813590506105d2816105ae565b92915050565b5f602082840312156105ed576105ec6105a6565b5b5f6105fa848285016105c4565b91505092915050565b5f81519050919050565b5f82825260208201905092915050565b8281835e5f83830152505050565b5f601f19601f8301169050919050565b5f61064582610603565b61064f818561060d565b935061065f81856020860161061d565b6106688161062b565b840191505092915050565b5f6040820190506106865f830185610575565b8181036020830152610698818461063b565b90509392505050565b5f73ffffffffffffffffffffffffffffffffffffffff82169050919050565b5f6106ca826106a1565b9050919050565b6106da816106c0565b81146106e4575f80fd5b50565b5f813590506106f5816106d1565b92915050565b5f602082840312156107105761070f6105a6565b5b5f61071d848285016106e7565b91505092915050565b5f80fd5b5f80fd5b7f4e487b71000000000000000000000000000000000000000000000000000000005f52604160045260245ffd5b6107648261062b565b810181811067ffffffffffffffff821117156107835761078261072e565b5b80604052505050565b5f61079561059d565b90506107a1828261075b565b919050565b5f67ffffffffffffffff8211156107c0576107bf61072e565b5b6107c98261062b565b9050602081019050919050565b828183375f83830152505050565b5f6107f66107f1846107a6565b61078c565b9050828152602081018484840111156108125761081161072a565b5b61081d8482856107d6565b509392505050565b5f82601f83011261083957610838610726565b5b81356108498482602086016107e4565b91505092915050565b5f60208284031215610867576108666105a6565b5b5f82013567ffffffffffffffff811115610884576108836105aa565b5b61089084828501610825565b91505092915050565b5f8115159050919050565b6108ad81610899565b82525050565b5f6020820190506108c65f8301846108a4565b92915050565b6108d5816106c0565b82525050565b5f6020820190506108ee5f8301846108cc565b92915050565b7f4e487b71000000000000000000000000000000000000000000000000000000005f52602260045260245ffd5b5f600282049050600182168061093857607f821691505b60208210810361094b5761094a6108f4565b5b50919050565b7f4f6e6c792061646d696e2063616e2063616c6c20746869732066756e6374696f5f8201527f6e00000000000000000000000000000000000000000000000000000000000000602082015250565b5f6109ab60218361060d565b91506109b682610951565b604082019050919050565b5f6020820190508181035f8301526109d88161099f565b9050919050565b7f4e487b71000000000000000000000000000000000000000000000000000000005f52601160045260245ffd5b5f610a168261056c565b9150610a218361056c565b9250828201905080821115610a3957610a386109df565b5b92915050565b5f819050815f5260205f209050919050565b5f6020601f8301049050919050565b5f82821b905092915050565b5f60088302610a9b7fffffffffffffffffffffffffffffffffffffffffffffffffffffffffffffffff82610a60565b610aa58683610a60565b95508019841693508086168417925050509392505050565b5f819050919050565b5f610ae0610adb610ad68461056c565b610abd565b61056c565b9050919050565b5f819050919050565b610af983610ac6565b610b0d610b0582610ae7565b848454610a6c565b825550505050565b5f90565b610b21610b15565b610b2c818484610af0565b505050565b5b81811015610b4f57610b445f82610b19565b600181019050610b32565b5050565b601f821115610b9457610b6581610a3f565b610b6e84610a51565b81016020851015610b7d578190505b610b91610b8985610a51565b830182610b31565b50505b505050565b5f82821c905092915050565b5f610bb45f1984600802610b99565b1980831691505092915050565b5f610bcc8383610ba5565b9150826002028217905092915050565b610be582610603565b67ffffffffffffffff811115610bfe57610bfd61072e565b5b610c088254610921565b610c13828285610b53565b5f60209050601f831160018114610c44575f8415610c32578287015190505b610c3c8582610bc1565b865550610ca3565b601f198416610c5286610a3f565b5f5b82811015610c7957848901518255600182019150602085019450602081019050610c54565b86831015610c965784890151610c92601f891682610ba5565b8355505b6001600288020188555050505b505050505050565b5f6020820190508181035f830152610cc3818461063b565b90509291505056fea26469706673582212206eb0fb25b966dd99f0e39f117d1ba0419c0136800f89eb64c448743f16a937cc64736f6c63430008190033",
					"opcodes": "PUSH1 0x80 PUSH1 0x40 MSTORE CALLVALUE DUP1 ISZERO PUSH1 0xE JUMPI PUSH0 DUP1 REVERT JUMPDEST POP CALLER PUSH0 DUP1 PUSH2 0x100 EXP DUP2 SLOAD DUP2 PUSH20 0xFFFFFFFFFFFFFFFFFFFFFFFFFFFFFFFFFFFFFFFF MUL NOT AND SWAP1 DUP4 PUSH20 0xFFFFFFFFFFFFFFFFFFFFFFFFFFFFFFFFFFFFFFFF AND MUL OR SWAP1 SSTORE POP PUSH2 0xD01 DUP1 PUSH2 0x5B PUSH0 CODECOPY PUSH0 RETURN INVALID PUSH1 0x80 PUSH1 0x40 MSTORE CALLVALUE DUP1 ISZERO PUSH2 0xF JUMPI PUSH0 DUP1 REVERT JUMPDEST POP PUSH1 0x4 CALLDATASIZE LT PUSH2 0x7B JUMPI PUSH0 CALLDATALOAD PUSH1 0xE0 SHR DUP1 PUSH4 0x462E91EC GT PUSH2 0x59 JUMPI DUP1 PUSH4 0x462E91EC EQ PUSH2 0xEA JUMPI DUP1 PUSH4 0x7ED17751 EQ PUSH2 0x106 JUMPI DUP1 PUSH4 0xA3EC138D EQ PUSH2 0x122 JUMPI DUP1 PUSH4 0xF851A440 EQ PUSH2 0x152 JUMPI PUSH2 0x7B JUMP JUMPDEST DUP1 PUSH4 0x30A56347 EQ PUSH2 0x7F JUMPI DUP1 PUSH4 0x3477EE2E EQ PUSH2 0x9D JUMPI DUP1 PUSH4 0x38DB6DD3 EQ PUSH2 0xCE JUMPI JUMPDEST PUSH0 DUP1 REVERT JUMPDEST PUSH2 0x87 PUSH2 0x170 JUMP JUMPDEST PUSH1 0x40 MLOAD PUSH2 0x94 SWAP2 SWAP1 PUSH2 0x584 JUMP JUMPDEST PUSH1 0x40 MLOAD DUP1 SWAP2 SUB SWAP1 RETURN JUMPDEST PUSH2 0xB7 PUSH1 0x4 DUP1 CALLDATASIZE SUB DUP2 ADD SWAP1 PUSH2 0xB2 SWAP2 SWAP1 PUSH2 0x5D8 JUMP JUMPDEST PUSH2 0x17C JUMP JUMPDEST PUSH1 0x40 MLOAD PUSH2 0xC5 SWAP3 SWAP2 SWAP1 PUSH2 0x673 JUMP JUMPDEST PUSH1 0x40 MLOAD DUP1 SWAP2 SUB SWAP1 RETURN JUMPDEST PUSH2 0xE8 PUSH1 0x4 DUP1 CALLDATASIZE SUB DUP2 ADD SWAP1 PUSH2 0xE3 SWAP2 SWAP1 PUSH2 0x6FB JUMP JUMPDEST PUSH2 0x231 JUMP JUMPDEST STOP JUMPDEST PUSH2 0x104 PUSH1 0x4 DUP1 CALLDATASIZE SUB DUP2 ADD SWAP1 PUSH2 0xFF SWAP2 SWAP1 PUSH2 0x852 JUMP JUMPDEST PUSH2 0x316 JUMP JUMPDEST STOP JUMPDEST PUSH2 0x120 PUSH1 0x4 DUP1 CALLDATASIZE SUB DUP2 ADD SWAP1 PUSH2 0x11B SWAP2 SWAP1 PUSH2 0x6FB JUMP JUMPDEST PUSH2 0x450 JUMP JUMPDEST STOP JUMPDEST PUSH2 0x13C PUSH1 0x4 DUP1 CALLDATASIZE SUB DUP2 ADD SWAP1 PUSH2 0x137 SWAP2 SWAP1 PUSH2 0x6FB JUMP JUMPDEST PUSH2 0x52C JUMP JUMPDEST PUSH1 0x40 MLOAD PUSH2 0x149 SWAP2 SWAP1 PUSH2 0x8B3 JUMP JUMPDEST PUSH1 0x40 MLOAD DUP1 SWAP2 SUB SWAP1 RETURN JUMPDEST PUSH2 0x15A PUSH2 0x549 JUMP JUMPDEST PUSH1 0x40 MLOAD PUSH2 0x167 SWAP2 SWAP1 PUSH2 0x8DB JUMP JUMPDEST PUSH1 0x40 MLOAD DUP1 SWAP2 SUB SWAP1 RETURN JUMPDEST PUSH0 PUSH1 0x1 DUP1 SLOAD SWAP1 POP SWAP1 POP SWAP1 JUMP JUMPDEST PUSH1 0x1 DUP2 DUP2 SLOAD DUP2 LT PUSH2 0x18B JUMPI PUSH0 DUP1 REVERT JUMPDEST SWAP1 PUSH0 MSTORE PUSH1 0x20 PUSH0 KECCAK256 SWAP1 PUSH1 0x2 MUL ADD PUSH0 SWAP2 POP SWAP1 POP DUP1 PUSH0 ADD SLOAD SWAP1 DUP1 PUSH1 0x1 ADD DUP1 SLOAD PUSH2 0x1B0 SWAP1 PUSH2 0x921 JUMP JUMPDEST DUP1 PUSH1 0x1F ADD PUSH1 0x20 DUP1 SWAP2 DIV MUL PUSH1 0x20 ADD PUSH1 0x40 MLOAD SWAP1 DUP2 ADD PUSH1 0x40 MSTORE DUP1 SWAP3 SWAP2 SWAP1 DUP2 DUP2 MSTORE PUSH1 0x20 ADD DUP3 DUP1 SLOAD PUSH2 0x1DC SWAP1 PUSH2 0x921 JUMP JUMPDEST DUP1 ISZERO PUSH2 0x227 JUMPI DUP1 PUSH1 0x1F LT PUSH2 0x1FE JUMPI PUSH2 0x100 DUP1 DUP4 SLOAD DIV MUL DUP4 MSTORE SWAP2 PUSH1 0x20 ADD SWAP2 PUSH2 0x227 JUMP JUMPDEST DUP3 ADD SWAP2 SWAP1 PUSH0 MSTORE PUSH1 0x20 PUSH0 KECCAK256 SWAP1 JUMPDEST DUP2 SLOAD DUP2 MSTORE SWAP1 PUSH1 0x1 ADD SWAP1 PUSH1 0x20 ADD DUP1 DUP4 GT PUSH2 0x20A JUMPI DUP3 SWAP1 SUB PUSH1 0x1F AND DUP3 ADD SWAP2 JUMPDEST POP POP POP POP POP SWAP1 POP DUP3 JUMP JUMPDEST PUSH0 DUP1 SLOAD SWAP1 PUSH2 0x100 EXP SWAP1 DIV PUSH20 0xFFFFFFFFFFFFFFFFFFFFFFFFFFFFFFFFFFFFFFFF AND PUSH20 0xFFFFFFFFFFFFFFFFFFFFFFFFFFFFFFFFFFFFFFFF AND CALLER PUSH20 0xFFFFFFFFFFFFFFFFFFFFFFFFFFFFFFFFFFFFFFFF AND EQ PUSH2 0x2BE JUMPI PUSH1 0x40 MLOAD PUSH32 0x8C379A000000000000000000000000000000000000000000000000000000000 DUP2 MSTORE PUSH1 0x4 ADD PUSH2 0x2B5 SWAP1 PUSH2 0x9C1 JUMP JUMPDEST PUSH1 0x40 MLOAD DUP1 SWAP2 SUB SWAP1 REVERT JUMPDEST PUSH1 0x1 PUSH1 0x2 PUSH0 DUP4 PUSH20 0xFFFFFFFFFFFFFFFFFFFFFFFFFFFFFFFFFFFFFFFF AND PUSH20 0xFFFFFFFFFFFFFFFFFFFFFFFFFFFFFFFFFFFFFFFF AND DUP2 MSTORE PUSH1 0x20 ADD SWAP1 DUP2 MSTORE PUSH1 0x20 ADD PUSH0 KECCAK256 PUSH0 PUSH2 0x100 EXP DUP2 SLOAD DUP2 PUSH1 0xFF MUL NOT AND SWAP1 DUP4 ISZERO ISZERO MUL OR SWAP1 SSTORE POP POP JUMP JUMPDEST PUSH0 DUP1 SLOAD SWAP1 PUSH2 0x100 EXP SWAP1 DIV PUSH20 0xFFFFFFFFFFFFFFFFFFFFFFFFFFFFFFFFFFFFFFFF AND PUSH20 0xFFFFFFFFFFFFFFFFFFFFFFFFFFFFFFFFFFFFFFFF AND CALLER PUSH20 0xFFFFFFFFFFFFFFFFFFFFFFFFFFFFFFFFFFFFFFFF AND EQ PUSH2 0x3A3 JUMPI PUSH1 0x40 MLOAD PUSH32 0x8C379A000000000000000000000000000000000000000000000000000000000 DUP2 MSTORE PUSH1 0x4 ADD PUSH2 0x39A SWAP1 PUSH2 0x9C1 JUMP JUMPDEST PUSH1 0x40 MLOAD DUP1 SWAP2 SUB SWAP1 REVERT JUMPDEST PUSH1 0x1 PUSH1 0x40 MLOAD DUP1 PUSH1 0x40 ADD PUSH1 0x40 MSTORE DUP1 PUSH1 0x1 DUP1 DUP1 SLOAD SWAP1 POP PUSH2 0x3C1 SWAP2 SWAP1 PUSH2 0xA0C JUMP JUMPDEST DUP2 MSTORE PUSH1 0x20 ADD DUP4 DUP2 MSTORE POP SWAP1 DUP1 PUSH1 0x1 DUP2 SLOAD ADD DUP1 DUP3 SSTORE DUP1 SWAP2 POP POP PUSH1 0x1 SWAP1 SUB SWAP1 PUSH0 MSTORE PUSH1 0x20 PUSH0 KECCAK256 SWAP1 PUSH1 0x2 MUL ADD PUSH0 SWAP1 SWAP2 SWAP1 SWAP2 SWAP1 SWAP2 POP PUSH0 DUP3 ADD MLOAD DUP2 PUSH0 ADD SSTORE PUSH1 0x20 DUP3 ADD MLOAD DUP2 PUSH1 0x1 ADD SWAP1 DUP2 PUSH2 0x40D SWAP2 SWAP1 PUSH2 0xBDC JUMP JUMPDEST POP POP POP PUSH1 0x1 DUP1 SLOAD SWAP1 POP PUSH32 0xE83B2A43E7E82D975C8A0A6D2F045153C869E111136A34D1889AB7B598E396A3 DUP3 PUSH1 0x40 MLOAD PUSH2 0x445 SWAP2 SWAP1 PUSH2 0xCAB JUMP JUMPDEST PUSH1 0x40 MLOAD DUP1 SWAP2 SUB SWAP1 LOG2 POP JUMP JUMPDEST PUSH0 DUP1 SLOAD SWAP1 PUSH2 0x100 EXP SWAP1 DIV PUSH20 0xFFFFFFFFFFFFFFFFFFFFFFFFFFFFFFFFFFFFFFFF AND PUSH20 0xFFFFFFFFFFFFFFFFFFFFFFFFFFFFFFFFFFFFFFFF AND CALLER PUSH20 0xFFFFFFFFFFFFFFFFFFFFFFFFFFFFFFFFFFFFFFFF AND EQ PUSH2 0x4DD JUMPI PUSH1 0x40 MLOAD PUSH32 0x8C379A000000000000000000000000000000000000000000000000000000000 DUP2 MSTORE PUSH1 0x4 ADD PUSH2 0x4D4 SWAP1 PUSH2 0x9C1 JUMP JUMPDEST PUSH1 0x40 MLOAD DUP1 SWAP2 SUB SWAP1 REVERT JUMPDEST PUSH1 0x2 PUSH0 DUP3 PUSH20 0xFFFFFFFFFFFFFFFFFFFFFFFFFFFFFFFFFFFFFFFF AND PUSH20 0xFFFFFFFFFFFFFFFFFFFFFFFFFFFFFFFFFFFFFFFF AND DUP2 MSTORE PUSH1 0x20 ADD SWAP1 DUP2 MSTORE PUSH1 0x20 ADD PUSH0 KECCAK256 PUSH0 PUSH2 0x100 EXP DUP2 SLOAD SWAP1 PUSH1 0xFF MUL NOT AND SWAP1 SSTORE POP JUMP JUMPDEST PUSH1 0x2 PUSH1 0x20 MSTORE DUP1 PUSH0 MSTORE PUSH1 0x40 PUSH0 KECCAK256 PUSH0 SWAP2 POP SLOAD SWAP1 PUSH2 0x100 EXP SWAP1 DIV PUSH1 0xFF AND DUP2 JUMP JUMPDEST PUSH0 DUP1 SLOAD SWAP1 PUSH2 0x100 EXP SWAP1 DIV PUSH20 0xFFFFFFFFFFFFFFFFFFFFFFFFFFFFFFFFFFFFFFFF AND DUP2 JUMP JUMPDEST PUSH0 DUP2 SWAP1 POP SWAP2 SWAP1 POP JUMP JUMPDEST PUSH2 0x57E DUP2 PUSH2 0x56C JUMP JUMPDEST DUP3 MSTORE POP POP JUMP JUMPDEST PUSH0 PUSH1 0x20 DUP3 ADD SWAP1 POP PUSH2 0x597 PUSH0 DUP4 ADD DUP5 PUSH2 0x575 JUMP JUMPDEST SWAP3 SWAP2 POP POP JUMP JUMPDEST PUSH0 PUSH1 0x40 MLOAD SWAP1 POP SWAP1 JUMP JUMPDEST PUSH0 DUP1 REVERT JUMPDEST PUSH0 DUP1 REVERT JUMPDEST PUSH2 0x5B7 DUP2 PUSH2 0x56C JUMP JUMPDEST DUP2 EQ PUSH2 0x5C1 JUMPI PUSH0 DUP1 REVERT JUMPDEST POP JUMP JUMPDEST PUSH0 DUP2 CALLDATALOAD SWAP1 POP PUSH2 0x5D2 DUP2 PUSH2 0x5AE JUMP JUMPDEST SWAP3 SWAP2 POP POP JUMP JUMPDEST PUSH0 PUSH1 0x20 DUP3 DUP5 SUB SLT ISZERO PUSH2 0x5ED JUMPI PUSH2 0x5EC PUSH2 0x5A6 JUMP JUMPDEST JUMPDEST PUSH0 PUSH2 0x5FA DUP5 DUP3 DUP6 ADD PUSH2 0x5C4 JUMP JUMPDEST SWAP2 POP POP SWAP3 SWAP2 POP POP JUMP JUMPDEST PUSH0 DUP2 MLOAD SWAP1 POP SWAP2 SWAP1 POP JUMP JUMPDEST PUSH0 DUP3 DUP3 MSTORE PUSH1 0x20 DUP3 ADD SWAP1 POP SWAP3 SWAP2 POP POP JUMP JUMPDEST DUP3 DUP2 DUP4 MCOPY PUSH0 DUP4 DUP4 ADD MSTORE POP POP POP JUMP JUMPDEST PUSH0 PUSH1 0x1F NOT PUSH1 0x1F DUP4 ADD AND SWAP1 POP SWAP2 SWAP1 POP JUMP JUMPDEST PUSH0 PUSH2 0x645 DUP3 PUSH2 0x603 JUMP JUMPDEST PUSH2 0x64F DUP2 DUP6 PUSH2 0x60D JUMP JUMPDEST SWAP4 POP PUSH2 0x65F DUP2 DUP6 PUSH1 0x20 DUP7 ADD PUSH2 0x61D JUMP JUMPDEST PUSH2 0x668 DUP2 PUSH2 0x62B JUMP JUMPDEST DUP5 ADD SWAP2 POP POP SWAP3 SWAP2 POP POP JUMP JUMPDEST PUSH0 PUSH1 0x40 DUP3 ADD SWAP1 POP PUSH2 0x686 PUSH0 DUP4 ADD DUP6 PUSH2 0x575 JUMP JUMPDEST DUP2 DUP2 SUB PUSH1 0x20 DUP4 ADD MSTORE PUSH2 0x698 DUP2 DUP5 PUSH2 0x63B JUMP JUMPDEST SWAP1 POP SWAP4 SWAP3 POP POP POP JUMP JUMPDEST PUSH0 PUSH20 0xFFFFFFFFFFFFFFFFFFFFFFFFFFFFFFFFFFFFFFFF DUP3 AND SWAP1 POP SWAP2 SWAP1 POP JUMP JUMPDEST PUSH0 PUSH2 0x6CA DUP3 PUSH2 0x6A1 JUMP JUMPDEST SWAP1 POP SWAP2 SWAP1 POP JUMP JUMPDEST PUSH2 0x6DA DUP2 PUSH2 0x6C0 JUMP JUMPDEST DUP2 EQ PUSH2 0x6E4 JUMPI PUSH0 DUP1 REVERT JUMPDEST POP JUMP JUMPDEST PUSH0 DUP2 CALLDATALOAD SWAP1 POP PUSH2 0x6F5 DUP2 PUSH2 0x6D1 JUMP JUMPDEST SWAP3 SWAP2 POP POP JUMP JUMPDEST PUSH0 PUSH1 0x20 DUP3 DUP5 SUB SLT ISZERO PUSH2 0x710 JUMPI PUSH2 0x70F PUSH2 0x5A6 JUMP JUMPDEST JUMPDEST PUSH0 PUSH2 0x71D DUP5 DUP3 DUP6 ADD PUSH2 0x6E7 JUMP JUMPDEST SWAP2 POP POP SWAP3 SWAP2 POP POP JUMP JUMPDEST PUSH0 DUP1 REVERT JUMPDEST PUSH0 DUP1 REVERT JUMPDEST PUSH32 0x4E487B7100000000000000000000000000000000000000000000000000000000 PUSH0 MSTORE PUSH1 0x41 PUSH1 0x4 MSTORE PUSH1 0x24 PUSH0 REVERT JUMPDEST PUSH2 0x764 DUP3 PUSH2 0x62B JUMP JUMPDEST DUP2 ADD DUP2 DUP2 LT PUSH8 0xFFFFFFFFFFFFFFFF DUP3 GT OR ISZERO PUSH2 0x783 JUMPI PUSH2 0x782 PUSH2 0x72E JUMP JUMPDEST JUMPDEST DUP1 PUSH1 0x40 MSTORE POP POP POP JUMP JUMPDEST PUSH0 PUSH2 0x795 PUSH2 0x59D JUMP JUMPDEST SWAP1 POP PUSH2 0x7A1 DUP3 DUP3 PUSH2 0x75B JUMP JUMPDEST SWAP2 SWAP1 POP JUMP JUMPDEST PUSH0 PUSH8 0xFFFFFFFFFFFFFFFF DUP3 GT ISZERO PUSH2 0x7C0 JUMPI PUSH2 0x7BF PUSH2 0x72E JUMP JUMPDEST JUMPDEST PUSH2 0x7C9 DUP3 PUSH2 0x62B JUMP JUMPDEST SWAP1 POP PUSH1 0x20 DUP2 ADD SWAP1 POP SWAP2 SWAP1 POP JUMP JUMPDEST DUP3 DUP2 DUP4 CALLDATACOPY PUSH0 DUP4 DUP4 ADD MSTORE POP POP POP JUMP JUMPDEST PUSH0 PUSH2 0x7F6 PUSH2 0x7F1 DUP5 PUSH2 0x7A6 JUMP JUMPDEST PUSH2 0x78C JUMP JUMPDEST SWAP1 POP DUP3 DUP2 MSTORE PUSH1 0x20 DUP2 ADD DUP5 DUP5 DUP5 ADD GT ISZERO PUSH2 0x812 JUMPI PUSH2 0x811 PUSH2 0x72A JUMP JUMPDEST JUMPDEST PUSH2 0x81D DUP5 DUP3 DUP6 PUSH2 0x7D6 JUMP JUMPDEST POP SWAP4 SWAP3 POP POP POP JUMP JUMPDEST PUSH0 DUP3 PUSH1 0x1F DUP4 ADD SLT PUSH2 0x839 JUMPI PUSH2 0x838 PUSH2 0x726 JUMP JUMPDEST JUMPDEST DUP2 CALLDATALOAD PUSH2 0x849 DUP5 DUP3 PUSH1 0x20 DUP7 ADD PUSH2 0x7E4 JUMP JUMPDEST SWAP2 POP POP SWAP3 SWAP2 POP POP JUMP JUMPDEST PUSH0 PUSH1 0x20 DUP3 DUP5 SUB SLT ISZERO PUSH2 0x867 JUMPI PUSH2 0x866 PUSH2 0x5A6 JUMP JUMPDEST JUMPDEST PUSH0 DUP3 ADD CALLDATALOAD PUSH8 0xFFFFFFFFFFFFFFFF DUP2 GT ISZERO PUSH2 0x884 JUMPI PUSH2 0x883 PUSH2 0x5AA JUMP JUMPDEST JUMPDEST PUSH2 0x890 DUP5 DUP3 DUP6 ADD PUSH2 0x825 JUMP JUMPDEST SWAP2 POP POP SWAP3 SWAP2 POP POP JUMP JUMPDEST PUSH0 DUP2 ISZERO ISZERO SWAP1 POP SWAP2 SWAP1 POP JUMP JUMPDEST PUSH2 0x8AD DUP2 PUSH2 0x899 JUMP JUMPDEST DUP3 MSTORE POP POP JUMP JUMPDEST PUSH0 PUSH1 0x20 DUP3 ADD SWAP1 POP PUSH2 0x8C6 PUSH0 DUP4 ADD DUP5 PUSH2 0x8A4 JUMP JUMPDEST SWAP3 SWAP2 POP POP JUMP JUMPDEST PUSH2 0x8D5 DUP2 PUSH2 0x6C0 JUMP JUMPDEST DUP3 MSTORE POP POP JUMP JUMPDEST PUSH0 PUSH1 0x20 DUP3 ADD SWAP1 POP PUSH2 0x8EE PUSH0 DUP4 ADD DUP5 PUSH2 0x8CC JUMP JUMPDEST SWAP3 SWAP2 POP POP JUMP JUMPDEST PUSH32 0x4E487B7100000000000000000000000000000000000000000000000000000000 PUSH0 MSTORE PUSH1 0x22 PUSH1 0x4 MSTORE PUSH1 0x24 PUSH0 REVERT JUMPDEST PUSH0 PUSH1 0x2 DUP3 DIV SWAP1 POP PUSH1 0x1 DUP3 AND DUP1 PUSH2 0x938 JUMPI PUSH1 0x7F DUP3 AND SWAP2 POP JUMPDEST PUSH1 0x20 DUP3 LT DUP2 SUB PUSH2 0x94B JUMPI PUSH2 0x94A PUSH2 0x8F4 JUMP JUMPDEST JUMPDEST POP SWAP2 SWAP1 POP JUMP JUMPDEST PUSH32 0x4F6E6C792061646D696E2063616E2063616C6C20746869732066756E6374696F PUSH0 DUP3 ADD MSTORE PUSH32 0x6E00000000000000000000000000000000000000000000000000000000000000 PUSH1 0x20 DUP3 ADD MSTORE POP JUMP JUMPDEST PUSH0 PUSH2 0x9AB PUSH1 0x21 DUP4 PUSH2 0x60D JUMP JUMPDEST SWAP2 POP PUSH2 0x9B6 DUP3 PUSH2 0x951 JUMP JUMPDEST PUSH1 0x40 DUP3 ADD SWAP1 POP SWAP2 SWAP1 POP JUMP JUMPDEST PUSH0 PUSH1 0x20 DUP3 ADD SWAP1 POP DUP2 DUP2 SUB PUSH0 DUP4 ADD MSTORE PUSH2 0x9D8 DUP2 PUSH2 0x99F JUMP JUMPDEST SWAP1 POP SWAP2 SWAP1 POP JUMP JUMPDEST PUSH32 0x4E487B7100000000000000000000000000000000000000000000000000000000 PUSH0 MSTORE PUSH1 0x11 PUSH1 0x4 MSTORE PUSH1 0x24 PUSH0 REVERT JUMPDEST PUSH0 PUSH2 0xA16 DUP3 PUSH2 0x56C JUMP JUMPDEST SWAP2 POP PUSH2 0xA21 DUP4 PUSH2 0x56C JUMP JUMPDEST SWAP3 POP DUP3 DUP3 ADD SWAP1 POP DUP1 DUP3 GT ISZERO PUSH2 0xA39 JUMPI PUSH2 0xA38 PUSH2 0x9DF JUMP JUMPDEST JUMPDEST SWAP3 SWAP2 POP POP JUMP JUMPDEST PUSH0 DUP2 SWAP1 POP DUP2 PUSH0 MSTORE PUSH1 0x20 PUSH0 KECCAK256 SWAP1 POP SWAP2 SWAP1 POP JUMP JUMPDEST PUSH0 PUSH1 0x20 PUSH1 0x1F DUP4 ADD DIV SWAP1 POP SWAP2 SWAP1 POP JUMP JUMPDEST PUSH0 DUP3 DUP3 SHL SWAP1 POP SWAP3 SWAP2 POP POP JUMP JUMPDEST PUSH0 PUSH1 0x8 DUP4 MUL PUSH2 0xA9B PUSH32 0xFFFFFFFFFFFFFFFFFFFFFFFFFFFFFFFFFFFFFFFFFFFFFFFFFFFFFFFFFFFFFFFF DUP3 PUSH2 0xA60 JUMP JUMPDEST PUSH2 0xAA5 DUP7 DUP4 PUSH2 0xA60 JUMP JUMPDEST SWAP6 POP DUP1 NOT DUP5 AND SWAP4 POP DUP1 DUP7 AND DUP5 OR SWAP3 POP POP POP SWAP4 SWAP3 POP POP POP JUMP JUMPDEST PUSH0 DUP2 SWAP1 POP SWAP2 SWAP1 POP JUMP JUMPDEST PUSH0 PUSH2 0xAE0 PUSH2 0xADB PUSH2 0xAD6 DUP5 PUSH2 0x56C JUMP JUMPDEST PUSH2 0xABD JUMP JUMPDEST PUSH2 0x56C JUMP JUMPDEST SWAP1 POP SWAP2 SWAP1 POP JUMP JUMPDEST PUSH0 DUP2 SWAP1 POP SWAP2 SWAP1 POP JUMP JUMPDEST PUSH2 0xAF9 DUP4 PUSH2 0xAC6 JUMP JUMPDEST PUSH2 0xB0D PUSH2 0xB05 DUP3 PUSH2 0xAE7 JUMP JUMPDEST DUP5 DUP5 SLOAD PUSH2 0xA6C JUMP JUMPDEST DUP3 SSTORE POP POP POP POP JUMP JUMPDEST PUSH0 SWAP1 JUMP JUMPDEST PUSH2 0xB21 PUSH2 0xB15 JUMP JUMPDEST PUSH2 0xB2C DUP2 DUP5 DUP5 PUSH2 0xAF0 JUMP JUMPDEST POP POP POP JUMP JUMPDEST JUMPDEST DUP2 DUP2 LT ISZERO PUSH2 0xB4F JUMPI PUSH2 0xB44 PUSH0 DUP3 PUSH2 0xB19 JUMP JUMPDEST PUSH1 0x1 DUP2 ADD SWAP1 POP PUSH2 0xB32 JUMP JUMPDEST POP POP JUMP JUMPDEST PUSH1 0x1F DUP3 GT ISZERO PUSH2 0xB94 JUMPI PUSH2 0xB65 DUP2 PUSH2 0xA3F JUMP JUMPDEST PUSH2 0xB6E DUP5 PUSH2 0xA51 JUMP JUMPDEST DUP2 ADD PUSH1 0x20 DUP6 LT ISZERO PUSH2 0xB7D JUMPI DUP2 SWAP1 POP JUMPDEST PUSH2 0xB91 PUSH2 0xB89 DUP6 PUSH2 0xA51 JUMP JUMPDEST DUP4 ADD DUP3 PUSH2 0xB31 JUMP JUMPDEST POP POP JUMPDEST POP POP POP JUMP JUMPDEST PUSH0 DUP3 DUP3 SHR SWAP1 POP SWAP3 SWAP2 POP POP JUMP JUMPDEST PUSH0 PUSH2 0xBB4 PUSH0 NOT DUP5 PUSH1 0x8 MUL PUSH2 0xB99 JUMP JUMPDEST NOT DUP1 DUP4 AND SWAP2 POP POP SWAP3 SWAP2 POP POP JUMP JUMPDEST PUSH0 PUSH2 0xBCC DUP4 DUP4 PUSH2 0xBA5 JUMP JUMPDEST SWAP2 POP DUP3 PUSH1 0x2 MUL DUP3 OR SWAP1 POP SWAP3 SWAP2 POP POP JUMP JUMPDEST PUSH2 0xBE5 DUP3 PUSH2 0x603 JUMP JUMPDEST PUSH8 0xFFFFFFFFFFFFFFFF DUP2 GT ISZERO PUSH2 0xBFE JUMPI PUSH2 0xBFD PUSH2 0x72E JUMP JUMPDEST JUMPDEST PUSH2 0xC08 DUP3 SLOAD PUSH2 0x921 JUMP JUMPDEST PUSH2 0xC13 DUP3 DUP3 DUP6 PUSH2 0xB53 JUMP JUMPDEST PUSH0 PUSH1 0x20 SWAP1 POP PUSH1 0x1F DUP4 GT PUSH1 0x1 DUP2 EQ PUSH2 0xC44 JUMPI PUSH0 DUP5 ISZERO PUSH2 0xC32 JUMPI DUP3 DUP8 ADD MLOAD SWAP1 POP JUMPDEST PUSH2 0xC3C DUP6 DUP3 PUSH2 0xBC1 JUMP JUMPDEST DUP7 SSTORE POP PUSH2 0xCA3 JUMP JUMPDEST PUSH1 0x1F NOT DUP5 AND PUSH2 0xC52 DUP7 PUSH2 0xA3F JUMP JUMPDEST PUSH0 JUMPDEST DUP3 DUP2 LT ISZERO PUSH2 0xC79 JUMPI DUP5 DUP10 ADD MLOAD DUP3 SSTORE PUSH1 0x1 DUP3 ADD SWAP2 POP PUSH1 0x20 DUP6 ADD SWAP5 POP PUSH1 0x20 DUP2 ADD SWAP1 POP PUSH2 0xC54 JUMP JUMPDEST DUP7 DUP4 LT ISZERO PUSH2 0xC96 JUMPI DUP5 DUP10 ADD MLOAD PUSH2 0xC92 PUSH1 0x1F DUP10 AND DUP3 PUSH2 0xBA5 JUMP JUMPDEST DUP4 SSTORE POP JUMPDEST PUSH1 0x1 PUSH1 0x2 DUP9 MUL ADD DUP9 SSTORE POP POP POP JUMPDEST POP POP POP POP POP POP JUMP JUMPDEST PUSH0 PUSH1 0x20 DUP3 ADD SWAP1 POP DUP2 DUP2 SUB PUSH0 DUP4 ADD MSTORE PUSH2 0xCC3 DUP2 DUP5 PUSH2 0x63B JUMP JUMPDEST SWAP1 POP SWAP3 SWAP2 POP POP JUMP INVALID LOG2 PUSH5 0x6970667358 0x22 SLT KECCAK256 PUSH15 0xB0FB25B966DD99F0E39F117D1BA041 SWAP13 ADD CALLDATASIZE DUP1 0xF DUP10 0xEB PUSH5 0xC448743F16 0xA9 CALLDATACOPY 0xCC PUSH5 0x736F6C6343 STOP ADDMOD NOT STOP CALLER "
				},
				"gasEstimates": {
					"creation": {
						"codeDepositCost": "665800",
						"executionCost": "24965",
						"totalCost": "690765"
					},
					"external": {
						"addCandidate(string)": "infinite",
						"admin()": "2571",
						"candidates(uint256)": "infinite",
						"getCandidateCount()": "2441",
						"registerVoter(address)": "27014",
						"unregisterVoter(address)": "26966",
						"voters(address)": "2877"
					}
				},
				"methodIdentifiers": {
					"addCandidate(string)": "462e91ec",
					"admin()": "f851a440",
					"candidates(uint256)": "3477ee2e",
					"getCandidateCount()": "30a56347",
					"registerVoter(address)": "38db6dd3",
					"unregisterVoter(address)": "7ed17751",
					"voters(address)": "a3ec138d"
				}
			},
			"storageLayout": {
				"storage": [
					{
						"astId": 3,
						"contract": "contracts/Admin.sol:AdminContract",
						"label": "admin",
						"offset": 0,
						"slot": "0",
						"type": "t_address"
					},
					{
						"astId": 12,
						"contract": "contracts/Admin.sol:AdminContract",
						"label": "candidates",
						"offset": 0,
						"slot": "1",
						"type": "t_array(t_struct(Candidate)8_storage)dyn_storage"
					},
					{
						"astId": 16,
						"contract": "contracts/Admin.sol:AdminContract",
						"label": "voters",
						"offset": 0,
						"slot": "2",
						"type": "t_mapping(t_address,t_bool)"
					}
				],
				"types": {
					"t_address": {
						"encoding": "inplace",
						"label": "address",
						"numberOfBytes": "20"
					},
					"t_array(t_struct(Candidate)8_storage)dyn_storage": {
						"base": "t_struct(Candidate)8_storage",
						"encoding": "dynamic_array",
						"label": "struct AdminContract.Candidate[]",
						"numberOfBytes": "32"
					},
					"t_bool": {
						"encoding": "inplace",
						"label": "bool",
						"numberOfBytes": "1"
					},
					"t_mapping(t_address,t_bool)": {
						"encoding": "mapping",
						"key": "t_address",
						"label": "mapping(address => bool)",
						"numberOfBytes": "32",
						"value": "t_bool"
					},
					"t_string_storage": {
						"encoding": "bytes",
						"label": "string",
						"numberOfBytes": "32"
					},
					"t_struct(Candidate)8_storage": {
						"encoding": "inplace",
						"label": "struct AdminContract.Candidate",
						"members": [
							{
								"astId": 5,
								"contract": "contracts/Admin.sol:AdminContract",
								"label": "id",
								"offset": 0,
								"slot": "0",
								"type": "t_uint256"
							},
							{
								"astId": 7,
								"contract": "contracts/Admin.sol:AdminContract",
								"label": "name",
								"offset": 0,
								"slot": "1",
								"type": "t_string_storage"
							}
						],
						"numberOfBytes": "64"
					},
					"t_uint256": {
						"encoding": "inplace",
						"label": "uint256",
						"numberOfBytes": "32"
					}
				}
			},
			"userdoc": {
				"kind": "user",
				"methods": {},
				"version": 1
			}
		}
	}
}